:100000000C940F140C9440140C9440140C94401451
:100010000C9440140C9440140C9440140C94401410
:100020000C9440140C9440140C9440140C94401400
:100030000C9440140C9440140C9440140C944014F0
:100040000C9440140C947E450C9440140C94401471
:100050000C9440140C9440140C94B53D0C94A9914C
:100060000C9440140C94BD790C9440140C944014DE
:100070000C9440140C9440140C9440140C944014B0
:100080000C9440140C9440140C9440140C944014A0
:100090000C9440140C9440140C9440140C94401490
:1000A0000C9440140C9440140C9440140C94401480
:1000B0000C9440140C9440140C9440140C94401470
:1000C0000C9440140C9440140C9440140C94401460
:1000D0000C9440140C9440140C9440140C94401450
:1000E0000C944014084AD73B3BCE016E84BCBFFD44
:1000F000C12F3D6C74319ABD56833DDA3D00C77FF8
:1001000011BED9E4BB4C3E916BAAAABE0000008090
:100110003F05A84CCDB2D44EB93836A9020C50B91F
:10012000918688083CA6AAAA2ABE000000803F004B
:100130004E414E494E495459494E46CDCCCC3D0ACC
:10014000D7233C17B7D13877CC2B329595E6241FAF
:10015000B14F0A000020410000C84200401C462068
:10016000BCBE4CCA1B0E5AAEC59D74656E717565DA
:100170007565696E672022004B494C4C45442E2022
:100180000053544F505045442E20005072696E74F5
:1001900065722073746F7070656420647565207477
:1001A0006F206572726F72732E20466978207468B2
:1001B00065206572726F7220616E642075736520B0
:1001C0004D39393920746F20726573746172742EE1
:1001D000202854656D70657261747572652069734D
:1001E0002072657365742E205365742069742061D4
:1001F000667465722072657374617274696E6729C2
:100200000A004E6F20436865636B73756D207769D4
:100210007468206C696E65206E756D6265722C2045
:100220004C617374204C696E653A200063686563A5
:100230006B73756D206D69736D617463682C204CF0
:10024000617374204C696E653A20004C696E6520BC
:100250004E756D626572206973206E6F74204C61FB
:100260007374204C696E65204E756D6265722B311A
:100270002C204C617374204C696E653A20004D311E
:1002800031300020496E76616C6964206578747243
:10029000756465722000000000000000000000008E
:1002A0000000000048430000484300004843486FF6
:1002B0006D696E67206661696C65640050726F7469
:1002C00065637465642050696E0A0020573A0045E2
:1002D00020436F6F6C696E672E2E2E004520486597
:1002E0006174696E672E2E2E00205A3A0020593A0A
:1002F0000020436F756E7420583A0020453A002064
:100300005A3A0020593A00583A003A004361703A8C
:1003100000526573656E643A200020746F6F206C24
:100320006F6E6720657874727573696F6E20707276
:100330006576656E7465640A0020636F6C64206581
:100340007874727573696F6E2070726576656E74FD
:1003500065640A00627573793A207061757365642B
:1003600020666F7220696E7075740A006275737909
:100370003A2070617573656420666F7220757365CD
:10038000720A00627573793A2070726F63657373D5
:10039000696E670A004B494C4C45442E20004B497E
:1003A0004C4C20636175736564206279204B494C25
:1003B0004C20627574746F6E2F70696E0A004B4921
:1003C0004C4C45442E20004B494C4C2063617573C6
:1003D000656420627920746F6F206D756368206991
:1003E0006E6163746976652074696D65202D206384
:1003F000757272656E7420636F6D6D616E643A2004
:1004000000506C65617365207265736574005052AD
:10041000494E5445522048414C544544005072695D
:100420006E7465722068616C7465642E206B696CF3
:100430006C28292063616C6C6564210A001FFFFF32
:10044000FFFFFFFF600000000001FF400000000010
:1004500000FF8000000000007F83CF00000C303FD1
:1004600087FF80000C301F867980000C000F8C30D5
:10047000C7838C30E78C30CFC7CC31F38C30DCECC9
:10048000EC33B98C30D86C6C33198C30D06C0C33A5
:10049000198C30D86C0C33198C30DC6C0E3B198CF9
:1004A00030CF7C079F198C30C77C038F1940000028
:1004B00000000002600000000000061FFFFFFFFFB9
:1004C000FFF82020506C616E6E657242756666653D
:1004D0007242797465733A20002046726565204D3A
:1004E000656D6F72793A2000436F6D70696C656459
:1004F0003A2041707220313820323032300A0020E8
:100500007C20417574686F723A20286E6F6E652C7E
:100510002064656661756C7420636F6E6669672917
:100520000A00323031382D30382D303100204C6106
:10053000737420557064617465643A2000312E3103
:100540002E390A004D61726C696E0020536F66741B
:10055000776172652052657365740A002057617473
:100560006368646F672052657365740A0020427285
:100570006F776E206F75742052657365740A002062
:1005800045787465726E616C2052657365740A00FB
:10059000506F77657255700A0073746172740A0047
:1005A0005761726E696E673A20486F6D696E672099
:1005B00042756D702044697669736F72203C2031FA
:1005C0000A000202040000A0400000A04000000059
:1005D000400000484300004843000048436F6B0060
:1005E0004572726F722077726974696E6720746FDA
:1005F00020454550524F4D210A00454550524F4D20
:10060000206461746173697A65206572726F722EFD
:100610000A00290A002062797465733B20637263C3
:10062000200053657474696E67732053746F72652C
:1006300064202800290A002062797465733B2063D6
:10064000726320002073746F726564207365747424
:10065000696E6773207265747269657665642028B7
:1006600000202863616C63756C6174656429210ADC
:100670000020213D2000454550524F4D204352431C
:10068000206D69736D61746368202D202873746F09
:100690007265642920002053697A653A2000496E0A
:1006A0006465783A2000204D61726C696E3D563564
:1006B00035290A0028454550524F4D3D00454550CB
:1006C000524F4D2076657273696F6E206D69736D40
:1006D00061746368200048617264636F64656420BC
:1006E00044656661756C742053657474696E6773D4
:1006F000204C6F616465640A00B80B0000B80B0001
:1007000000640000001027000000009643000096DF
:1007100043000040400000C8410000A0420000A08B
:100720004200007A45E15A3C4420286D6D290020A2
:10073000440020490020204D3330312050005049E2
:10074000442073657474696E67733A0A002046002A
:1007500020420020480020204D3134352053004DE8
:100760006174657269616C20686561747570207070
:100770006172616D65746572733A0A00205A0020D7
:10078000590020204D323036205800486F6D6520CA
:100790006F66667365743A0A00204500205A00208F
:1007A000590020580020540020530020204D3230A2
:1007B0003520510020453C6D61785F655F6A657248
:1007C0006B3E0020583C6D61785F785F6A65726BA4
:1007D0003E20593C6D61785F795F6A65726B3E209F
:1007E0005A3C6D61785F7A5F6A65726B3E00416466
:1007F00076616E6365643A20513C6D696E5F736526
:10080000676D656E745F74696D655F75733E2053C7
:100810003C6D696E5F66656564726174653E205407
:100820003C6D696E5F74726176656C5F6665656468
:10083000726174653E0020540020520020204D3229
:100840003034205000416363656C65726174696F78
:100850006E2028756E6974732F7332293A20503CCC
:100860007072696E745F616363656C3E20523C72A6
:100870006574726163745F616363656C3E20543CB0
:1008800074726176656C5F616363656C3E0A00201B
:100890004500205A0020590020204D323031205888
:1008A000004D6178696D756D20416363656C65729B
:1008B0006174696F6E2028756E6974732F733229A5
:1008C0003A0A00204500205A0020590020204D32CD
:1008D00030332058004D6178696D756D206665650F
:1008E0006472617465732028756E6974732F73293F
:1008F0003A0A00204500205A0020590020204D3996
:100900003220580053746570732070657220756EC4
:1009100069743A0A0020204D3230302044300A00F9
:1009200020204D3230302044002044697361626CD5
:1009300065640A0046696C616D656E742073657448
:1009400074696E67733A0020204D3134392043209A
:100950003B20556E69747320696E2043656C736922
:1009600075730A002020473231202020203B00549C
:100970005249474745524544006F70656E003A2022
:10098000007A5F6D696E00795F6D696E00785F6DEA
:10099000696E005265706F7274696E6720656E646F
:1009A00073746F70207374617475730A0024F4D4C7
:1009B0003050C38E20C2A24017828B7011127A91E0
:1009C0000D816CD90AA861E108C7586607615143D7
:1009D000061E4B5D05C145A7041A411104093D9847
:1009E00003713931034036DB0265339102D4305450
:1009F00002802E1D02632CEE01752AC501B028A0CD
:100A000001102781018F2564012B244B01E0223442
:100A100001AC211F018D200D01801FFC00841EED03
:100A200000971DDF00B81CD200E61BC600201BBCCF
:100A300000641AB200B219A8000A19A0006A189935
:100A400000D117910040178B00B516840031167E37
:100A500000B31579003A157300C7146F0058146A73
:100A600000EE1366008813630025135E00C7125B57
:100A7000006C12570015125400C111510070114F33
:100A80000021114B00D61049008D1047004610443C
:100A90000002104200C00F4000800F3E00420F3C99
:100AA00000060F3B00CB0E3800930E37005C0E356E
:100AB00000270E3400F30D3200C10D3100900D30CF
:100AC00000600D2E00320D2D00050D2C00D90C2BD1
:100AD00000AE0C2900850C29005C0C2700350C2782
:100AE000000E0C2600E80B2400C40B2400A00B23EE
:100AF000007D0B23005A0B2100390B2100180B201D
:100B000000F80A1F00D90A1E00BB0A1E009D0A1D1C
:100B100000800A1D00630A1C00470A1B002C0A1BE8
:100B200000110A1A00F7091A00DD091900C4091991
:100B300000AB091900920917007B09180063091717
:100B4000004C09160036091600200916000A09157E
:100B500000F5081500E0081400CC081400B80814CB
:100B600000A4081400900813007D0812006B0813FD
:100B7000005808120046081200340811002308111A
:100B8000001208110001081100F0071000E0071022
:100B900000D0071000C0071000B0070F00A1071019
:100BA0000091070E0083070F0074070F0065070E02
:100BB0000057070E0049070E003B070D002E070ED9
:100BC0000020070D0013070D0006070D00F9060CA5
:100BD00000ED060D00E0060C00D4060C00C8060C63
:100BE00000BC060C00B0060C00A4060B0099060C15
:100BF000008D060B0082060B0077060B006C060BBF
:100C00000061060A0057060B004C060A0042060A5D
:100C10000038060A002E060A0024060A001A060AF0
:100C2000001006090007060A00FD050900F4050981
:100C300000EB050900E2050900D9050900D0050906
:100C400000C7050900BE050900B5050800AD050887
:100C500000A50509009C050800940508008C0508FE
:100C600000840508007C050800740508006C050771
:100C700000650508005D050700560508004E0507DC
:100C80000047050700400508003805070031050743
:100C9000002A050700230507001C050600160507A6
:100CA000000F0507000805060002050700FB040603
:100CB00000F5040700EE040600E8040600E204075D
:100CC00000DB040600D5040600CF040600C90406B4
:100CD00000C3040600BD040600B7040600B1040505
:100CE00000AC040600A6040600A00405009B040650
:100CF0000095040500900406008A0405008504059B
:100D000000800406007A04050075040500700405DF
:100D1000006B04050066040500610405005C040521
:100D20000057040500520405004D04050048040561
:100D300000430405003E0404003A040500350405A0
:100D400000300404002C04050027040400230405DB
:100D5000001E0404001A0404001604050011040413
:100D6000000D040400090405000404040000040448
:100D700000FC030400F8030400F4030400F003047F
:100D800000EC030400E8030400E4030400E00304AF
:100D900000DC030400D8030400D4030400D00304DF
:100DA00000CC030400C8030300C503030024F404BB
:100DB000D9201BC40C5C0E9804C4095F026507713E
:100DC00001F405F900FB04B30048048700C103697E
:100DD000005803550003034500BE023A0084023167
:100DE0000053022A002902250004022000E4011C0D
:100DF00000C8011900AF0117009801140084011305
:100E000000710110006101100051010E0043010D3D
:100E10000036010B002B010B0020010B001501090E
:100E2000000C01090003010800FB000800F30008A2
:100E300000EB000700E4000600DE000600D8000614
:100E400000D2000600CC000500C7000500C2000566
:100E500000BD000400B9000400B5000400B10004A6
:100E600000AD000400A9000400A5000300A20003D7
:100E7000009F0004009B00030098000300950002FF
:100E80000093000300900003008D0002008B00031C
:100E90000088000200860002008400030081000236
:100EA000007F0002007D0002007B0002007900024A
:100EB0000077000100760002007400020072000159
:100EC00000710002006F0002006D0001006C000262
:100ED000006A00010069000200670001006600016D
:100EE0000065000100640002006200010061000171
:100EF00000600001005F0002005D0001005C000175
:100F0000005B0001005A0001005900010058000177
:100F10000057000100560001005500010054000177
:100F20000053000000530001005200010051000175
:100F300000500001004F0001004E0000004E000173
:100F4000004D0001004C0001004B0000004B00016F
:100F5000004A00010049000100480000004800016B
:100F60000047000100460000004600010045000067
:100F7000004500010044000100430000004300015F
:100F80000042000000420001004100000041000159
:100F900000400001003F0000003F0001003E000053
:100FA000003E0001003D0000003D0001003C00004B
:100FB000003C0000003C0001003B0000003B000141
:100FC000003A0000003A0001003900000039000139
:100FD0000038000000380000003800010037000031
:100FE0000037000100360000003600000036000126
:100FF000003500000035000000350001003400001D
:101000000034000000340001003300000033000011
:101010000033000100320000003200000032000105
:1010200000310000003100000031000100300000FC
:101030000030000000300001002F0000002F0000F1
:10104000002F0000002F0001002E0000002E0000E5
:10105000002E0001002D0000002D0000002D0000DA
:10106000002D0001002C0000002C0000002C0000CE
:10107000002C0001002B0000002B0000002B0000C2
:10108000002B0001002A0000002A0000002A0000B6
:10109000002A0001002900000029000000290000AA
:1010A000002900000029000100280000002800009D
:1010B0000028000000280000002800010027000090
:1010C0000027000000270000002700000027000183
:1010D0000026000000260000002600000026000078
:1010E000002600010025000000250000002500006A
:1010F000002500000025000000250001002400005C
:10110000002400000024000000240000002400014E
:101110000023000000230000002300000023000043
:101120000023000000230000002300010022000033
:101130000022000000220000002200000022000027
:101140000022000100210000002100000021000019
:10115000002100000021000000210000002100010A
:1011600000200000002000000020000000200000FF
:1011700000200000002000000020000000200001EE
:10118000001F0000001F0000001F0000001F0000E3
:10119000001F0000001F0000001F0001001E0000D3
:1011A000001E0000001E0000001E000000043700AA
:1011B000001E290000511B000058100000100900FB
:1011C00000CC0400007802000041010000236465A7
:1011D00066696E652044454641554C545F4B64201A
:1011E0000023646566696E652044454641554C544C
:1011F0005F4B69200023646566696E65204445463F
:1012000041554C545F4B7020005049442041757447
:101210006F74756E652066696E69736865642120F8
:1012200050757420746865206C617374204B702C49
:10123000204B6920616E64204B6420636F6E737471
:10124000616E74732066726F6D2062656C6F7720BB
:10125000696E746F20436F6E666967757261746939
:101260006F6E2E680A00504944204175746F747582
:101270006E65206661696C6564212074696D656FB7
:1012800075740A00453120544845524D414C205256
:10129000554E4157415900546865726D616C20523A
:1012A000756E617761790045312048656174696EBA
:1012B00067206661696C65640048656174696E6782
:1012C000206661696C656400504944204175746F03
:1012D00074756E65206661696C6564212054656D66
:1012E000706572617475726520746F6F20686967CC
:1012F000680A00204B643A2000204B693A20002005
:101300004B703A20000A20436C617373696320506C
:101310004944200A002054753A2000204B753A2099
:1013200000206D61783A2000206D696E3A2000201F
:10133000643A200020626961733A200050494420D9
:101340004175746F74756E652073746172740A00F0
:10135000504944204175746F74756E6520666169EB
:101360006C656421204261642065787472756465DF
:1013700072206E756D6265720A006265640A002CE7
:101380002073797374656D2073746F707065642158
:10139000204865617465725F49443A200042656483
:1013A0002068656174696E67206661696C656400B8
:1013B00048656174696E67206661696C65640045A3
:1013C000312048656174696E67206661696C656487
:1013D0000048656174696E67206661696C656400C8
:1013E00070012C0190012701B0012201C0011D01F3
:1013F000F00118011002130130020E016002090110
:1014000090020401C002FF000003FA004003F5004F
:101410008003F000D003EB002004E6007004E1003C
:10142000E004DC004005D700C005D2004006CD0036
:10143000D006C8008007C3003008BE00F008B9001D
:10144000C009B400B00AAF00B00BAA00D00CA500D0
:10145000000EA000500F9B00C0109600501291008B
:1014600000148C00C0158700B0178200B0197D00F1
:10147000D01B7800001E730040206E00902269008F
:10148000F024640040275F0090295A00E02B5500AB
:10149000102E500020304B0010324600E033410047
:1014A00090353C001037370070383200A0392D00DD
:1014B000B03A2800A03B2300603C1E00103D1900FC
:1014C000903D1400103E0F00703E0A00C03E050023
:1014D000003F0000403FFBFF803FF6FFC03FF1FFB1
:1014E000453120544845524D414C2052554E4157AC
:1014F00041590042454420544845524D414C2052E8
:10150000554E4157415900546865726D616C2052C7
:10151000756E61776179004531204572723A204DD0
:10152000415854454D50004572723A204D4158542F
:10153000454D5020424544004D415854454D5020A2
:10154000747269676765726564004531204572721F
:101550003A204D494E54454D50004572723A204D47
:10156000494E54454D5020424544004D494E544546
:101570004D502074726967676572656400202F00A2
:101580002042403A0020403A002020202020200025
:101590005A00590020202020005800092000000097
:1015A000000000000000000000003FFFF00000000D
:1015B0000000000000000000003800700000000083
:1015C000000000000000000030FC300000000000BF
:1015D0000000000000000020FC10000000000000DF
:1015E0000000000000002078100000000000000053
:1015F000000000000020301000000000000000008B
:10160000000000002C00D03FC000000000000000DF
:101610002082002E31D07FE000000000000000108A
:1016200041002F7BD07FE00000000000000010414F
:10163000002F7BD07FE0000000000000002082002F
:101640002E31D03FC0000000000000004104002CFB
:1016500000D03FC0000000000000008208002030E1
:10166000107FE000000000000000820800207810D9
:101670007FE00000000000000041040020FC107F1B
:10168000E00000000000000020820030FC301F80DD
:10169000000000000000000000003800700F000093
:1016A000000000000000FFFFC03FFFF00600000048
:1016B0000000000000FFFFC000000000000000006C
:1016C000000000000000003FFFF0000000000000EC
:1016D0000000000000003800700000000000000062
:1016E0000000000000318630000000000000000013
:1016F0000000000023871000000000000000000030
:10170000000000278790000000000000000000009B
:1017100000002F87D0000000000000000000000043
:10172000002F03D03FC00000000000000020820016
:101730002030107FE0000000000000001041002079
:1017400078107FE0000000000000001041002078C9
:10175000107FE00000000000000020820020301018
:101760003FC0000000000000004104002F03D03FF4
:10177000C0000000000000008208002F87D07FE03A
:10178000000000000000008208002787907FE00032
:101790000000000000004104002387107FE00000EB
:1017A00000000000002082003186301F8000000011
:1017B000000000000000003800700F000000000072
:1017C000000000FFFFC03FFFF00600000000000027
:1017D0000000FFFFC00000003344205072696E74A7
:1017E00065722052656164792E005072696E746969
:1017F0006E672E2E2E005072696E742070617573A4
:10180000656400436F6E74726F6C00507265706136
:1018100072650054756E6500496E666F2073637261
:1018200065656E00466C6F7700466C6F77004661A9
:101830006E2073706565640046616E207370656527
:10184000640042656400426564004E6F7A7A6C659C
:10185000004E6F7A7A6C6500537065656400537052
:10186000656564004D61696E0050726568656174FC
:1018700020504C4120456E6400507265686561746B
:1018800020504C4120426564005072656865617467
:1018900020504C4100507265706172650050726555
:1018A000686561742041425320456E640050726542
:1018B000686561742041425320426564005072653E
:1018C00068656174204142530050726570617265B1
:1018D000004D343238005072656865617420504C98
:1018E0004100436F6F6C646F776E0050726568657E
:1018F0006174204142530044697361626C652073D6
:1019000074657070657273004D38340053657420CF
:10191000686F6D65206F66667365747300417574DA
:101920006F20686F6D6500473238004D6F76652017
:1019300061786973004D61696E004D6F766520585E
:10194000004D6F76652059004D6F7665205A004531
:1019500078747275646572004D6F766520302E3133
:101960006D6D004D6F766520316D6D004D6F766544
:101970002031306D6D004D6F7665206178697300A0
:101980004578747275646572004D6F7665205A00F3
:101990004D6F76652059004D6F766520580045786B
:1019A000747275646572004D6F7665205A004D6FD4
:1019B00076652059004D6F7665205800507265702D
:1019C00061726500496E697469616C697A65204568
:1019D0004550524F4D00436F6E74726F6C005265EC
:1019E00073746F7265206661696C73616665004C23
:1019F0006F61642073657474696E677300496E6902
:101A00007469616C697A6520454550524F4D0053A9
:101A1000746F72652073657474696E6773004669CC
:101A20006C616D656E74004D6F74696F6E00546506
:101A30006D7065726174757265004D61696E0050FC
:101A40007265686561742041425320636F6E660061
:101A50005072656865617420504C4120636F6E66FA
:101A6000005049442D44005049442D4400504944FD
:101A70002D49005049442D49005049442D500050F3
:101A800049442D500020082046616374002008203E
:101A900046616374002008204D6178002008204DC5
:101AA0006178002008204D696E002008204D696E85
:101AB000004F6666004F6E20004175746F74656D4F
:101AC000700046616E2073706565640046616E202B
:101AD00073706565640042656400426564004E6F22
:101AE0007A7A6C65004E6F7A7A6C6500436F6E741B
:101AF000726F6C0053746F72652073657474696ED5
:101B000067730042656400426564004E6F7A7A6CC8
:101B100065004E6F7A7A6C650046616E2073706561
:101B200065640046616E2073706565640054656D80
:101B30007065726174757265005654726176206DBD
:101B4000696E005654726176206D696E00566D693B
:101B50006E00566D696E00566D6178204500566DB9
:101B60006178204500566D6178205A00566D617885
:101B7000205A00566D6178205900566D61782059C1
:101B800000566D6178205800566D61782058004DE0
:101B90006F74696F6E00416D6178204500416D6121
:101BA00078204500416D6178205A00416D617820B0
:101BB0005A00416D6178205900416D6178205900CB
:101BC000416D6178205800416D6178205800412DA9
:101BD00074726176656C00412D74726176656C007B
:101BE000412D7265747261637400412D7265747267
:101BF00061637400416363656C00416363656C00FD
:101C00004D6F74696F6E0056652D6A65726B005674
:101C1000652D6A65726B00567A2D6A65726B005687
:101C20007A2D6A65726B0056792D6A65726B005663
:101C3000792D6A65726B0056782D6A65726B005655
:101C4000782D6A65726B004D6F74696F6E00457315
:101C5000746570732F6D6D004573746570732F6DAF
:101C60006D005A73746570732F6D6D005A737465CF
:101C700070732F6D6D005973746570732F6D6D00E7
:101C80005973746570732F6D6D005873746570733C
:101C90002F6D6D005873746570732F6D6D004D6FEF
:101CA00074696F6E0053746570732F6D6D004A65B3
:101CB000726B00416363656C65726174696F6E007D
:101CC00056656C6F6369747900436F6E74726F6CE4
:101CD0000046696C2E204469612E0046696C2E20F6
:101CE0004469612E004F6666004F6E2000452069F2
:101CF0006E206D6D3300436F6E74726F6C00434FD6
:101D00004D4D554E49434154494F4E00445259524E
:101D1000554E004552524F525300494E464F0045D2
:101D200043484F0000002100240027002A002D0016
:101D30003000330001010000040107010A01000026
:101D40002200250028002B002E0031003400020163
:101D50000000050108010B010000200023002600FF
:101D600029002C002F0032000001000003010601B1
:101D70000901050505050705080808080202020211
:101D80000A0A080804040404010101010101010117
:101D90000303030303030303040707070C0C0C0CE2
:101DA0000C0C0C0C020202020606060606060606CB
:101DB0000B0B0B0B0B0B0B0B010210202008081058
:101DC00020401020408002010201080402010102AB
:101DD0000408102040808040201008040201800484
:101DE00002018040201008040201080402010102DF
:101DF00004081020408001020408102040800000E8
:101E00000A0B02090C0D0E08070304010000000074
:101E100000000000000000000000000000000000C2
:101E2000000000000000000000001211100000007F
:101E300000000000000000000000000000000000A2
:101E40000000000047322F47332062616420706138
:101E500072616D65746572730A00536C6565702EEE
:101E60002E2E000000484200004842000080400042
:101E7000000000436C69636B20746F20726573759A
:101E80006D652E2E2E004E6F206D6F76652E00250F
:101E900069730025696D202569730025696820250F
:101EA000696D2025697300256964202569682025EE
:101EB000696D2025697300256979202569642025CD
:101EC00069682025696D20256973005072696E74F8
:101ED0002074696D653A20006F6666001F1D1A1D2B
:101EE000131D0C1DFE1C44454255473A004B494CFE
:101EF0004C45442E20004D3131332053006F6B0090
:101F000020573A0042656420636F6F6C696E672EDC
:101F10002E2E004265642068656174696E672E2EFE
:101F20002E003344205072696E746572204F6666CD
:101F30002E002C20002C2000544845524D414C5F6F
:101F400050524F54454354494F4E004155544F52FF
:101F500045504F52545F53445F53544154555300BE
:101F6000454D455247454E43595F504152534552A6
:101F700000434153455F4C494748545F42524947EB
:101F800048544E45535300544F47474C455F4C49C6
:101F90004748545300534F4654574152455F504FA2
:101FA000574552004255494C445F50455243454EB7
:101FB00054004C4556454C494E475F4441544100FE
:101FC0005A5F50524F4245004155544F4C4556457B
:101FD0004C005052494E545F4A4F420050524F47B6
:101FE00052455353004155544F5245504F52545F40
:101FF00054454D5000564F4C554D455452494300A1
:10200000454550524F4D0053455249414C5F584F42
:102010004E5F584F4646004649524D574152455F24
:102020004E414D453A4D61726C696E20312E312E14
:102030003920284769746875622920534F555243E7
:10204000455F434F44455F55524C3A687474707312
:102050003A2F2F6769746875622E636F6D2F4D611B
:10206000726C696E4669726D776172652F4D61722F
:102070006C696E2050524F544F434F4C5F5645523F
:1020800053494F4E3A312E30204D414348494E4539
:102090005F545950453A3344205072696E746572EA
:1020A0002045585452554445525F434F554E543A7B
:1020B0003120555549443A63656465326132662D75
:1020C000343161322D343734382D396231322D6359
:1020D00035356336326633363766660A002F2F2071
:1020E000004D31343520533C696E6465783E206F75
:1020F0007574206F662072616E67652028302D31FF
:10210000290A00205400205200416363656C657207
:102110006174696F6E3A20500000000000000000FA
:1021200000000000004F6666736574732061707074
:102130006C696564004572723A20546F6F20666165
:10214000722100546F6F206661722066726F6D207D
:102150007265666572656E636520706F696E740A7C
:1021600000FFFFFF205A00205900580020204D6139
:10217000783A2000205A00205900580020204D694C
:102180006E3A20004F6E20004F666600536F6674F3
:1021900020656E6473746F70733A200020466C6F14
:1021A000773A2000000136372603FFFFFF353C3D1C
:1021B000380EFFFFFF312E303E12FFFFFFFF28FFDA
:1021C0000C0809FFFFFF1A1C18FFFF2A08440AFF2A
:1021D00043496E76616C69642065787472756465D4
:1021E000720A0020643A0020693A0020703A0043E5
:1021F000290A0061626C656420286D696E2074652F
:102200006D702000436F6C6420657874727564652E
:10221000732061726520004E6F2063617365206CCE
:10222000696768740A00454550524F4D204F4B0A6C
:1022300000416374697665204578747275646572CF
:102240003A2000496E76616C696420657874727515
:102250006465720A00456E6473746F707320256341
:1022600020256320256320256300205A3A00205949
:102270003A0020583A00656E6473746F707320687A
:1022800069743A2000556E6B6E6F776E20636F6DC8
:102290006D616E643A202200486F6D6520257325BC
:1022A0007325732066697273740020666972737493
:1022B0000A005A0059005800486F6D6520002074CC
:1022C0006F6F206C6F6E6720657874727573696FBD
:1022D0006E2070726576656E7465640A0020636FA7
:1022E0006C6420657874727573696F6E20707265A6
:1022F00076656E7465640A006563686F3A004572BE
:10230000726F723A0000060900FE07019203212055
:102310007FFF07FF07FF0000000600000107070618
:10232000020080808080800080030202060105A0F8
:10233000A00507070600005050F850F85050050758
:10234000070600002078A07028F020050707060087
:1023500000C0C810204098180507070600006090CC
:10236000A040A89068020303060104C04080030750
:1023700007060100204080808040200307070601F7
:10238000008040202020408005050506000120A88F
:1023900070A8200505050600012020F82020020372
:1023A000030602FFC04080050101060003F8020297
:1023B00002060200C0C00505050600010810204005
:1023C00080050707060000708888888888700307E2
:1023D0000706010040C040404040E00507070600F6
:1023E00000708808708080F8050707060000F81064
:1023F00020100808F005070706000010305090F87C
:102400001010050707060000F880F008088870051E
:102410000707060000708080F088887005070706AF
:102420000000F80810202020200507070600007093
:10243000888870888870050707060000708888788B
:10244000080870020505060200C0C000C0C00206F0
:10245000060602FFC0C000C0408004070706000057
:1024600010204080402010050303060002F800F809
:102470000407070601008040201020408005070760
:1024800006000070880810200020050707060000DD
:1024900070880868A8A8700507070600007088887B
:1024A000F8888888050707060000F08888F0888883
:1024B000F005070706000070888080808870050797
:1024C00007060000F08888888888F005070706005E
:1024D00000F88080F08080F8050707060000F8808B
:1024E00080F0808080050707060000708880B8882B
:1024F0008870050707060000888888F888888801A2
:10250000070706020080808080808080050707061C
:1025100000003810101010906005070706000088B2
:1025200090A0C0A0908805070706000080808080EA
:102530008080F805070706000088D8A88888888862
:102540000507070600008888C8A898888805070737
:1025500006000070888888888870050707060000D4
:10256000F08888F080808005070706000070888862
:1025700088A89068050707060000F08888F0A090FA
:1025800088050707060000788080700808F00507B6
:1025900007060000F820202020202005070706005D
:1025A0000088888888888870050707060000888862
:1025B0008888885020050707060000888888888852
:1025C000A850050707060000888850205088880515
:1025D0000707060000888888502020200507070686
:1025E0000000F80810204080F8030707060100E00B
:1025F0008080808080E00505050600018040201075
:1026000008030707060100E02020202020E0050342
:1026100003060004205088050101060000F80202AC
:10262000020602058040050505060000700878884E
:10263000780507070600008080B0C88888F0050587
:1026400005060000708080887005070706000008F6
:102650000868988888780505050600007088F88065
:10266000700507070600003048E04040404005067E
:10267000060600FF708888780870050707060000C6
:102680008080B0C888888801070706020080008023
:10269000808080800308080601FF20002020202081
:1026A000A040040707060000808090A0C0A090030F
:1026B0000707060100C04040404040E00505050610
:1026C0000000D0A8A8A8A8050505060000B0C88885
:1026D000888805050506000070888888700506064C
:1026E0000600FFF08888F080800506060600FF7867
:1026F0008888780808050505060000B0C880808035
:1027000005050506000070807008F0040707060044
:10271000004040E040404030050505060000888844
:1027200088986805050506000088888850200505FA
:10273000050600008888A8A8500505050600008841
:10274000502050880506060600FF888888780870A3
:10275000050505060000F8102040F80307070601EC
:102760000020404080404020010707060200808092
:102770008080808080030707060100804040204061
:10278000408005020206000268900000000600007A
:1027900000060900FE000000000001090008FE001C
:1027A0000005080806000040F0C8888898781005E1
:1027B0000808060000C0F88888888888F80505059C
:1027C0000600012030F830200508080600002070BF
:1027D000F820202020E00509090600FF2070A8A8A5
:1027E000B8888870200509090600FFE080C0B0A8FD
:1027F000283028280509090600FFF8A88888888855
:1028000088A8F8050A0A0600FE205050505088A8F3
:10281000A8887003030306000340A040FC9E112417
:102820001FBECFEFD1E2DEBFCDBF00E00CBF13E093
:10283000A0E0B2E0EAE3F1E801E00BBF02C00790DC
:102840000D92AC33B107D9F72EE0ACE3B3E001C091
:102850001D92A53EB207E1F714E1CFE0D4E100E01C
:1028600006C021970109802FFE010E9436C0CE309C
:10287000D10780E00807A9F70E94779F0C949BC0BE
:102880000C9400002CEA35EC47E25EE360911A05F7
:1028900070911B0580911C0590911D050E940BBE37
:1028A0006093D8057093D9058093DA059093DB0582
:1028B00008952CEA35EC47E25EE360911E057091C5
:1028C0001F0580912005909121050E947EB960939B
:1028D000DC057093DD058093DE059093DF05089598
:1028E0006091390270913A02072E000C880B990B07
:1028F0000E941FB92AE037ED43E25CE30E947EB9F3
:102900002091D4053091D5054091D6055091D70539
:102910000E947EB960934D0270934E0280934F02E5
:1029200090935002089511989091020187FD90951F
:102930009170909300010000000000000000119AC7
:10294000000000000000000011989091020186FD37
:10295000909591709093000100000000000000002D
:10296000119A0000000000000000119890910201EF
:1029700085FD90959170909300010000000000008B
:102980000000119A000000000000000011989091D2
:10299000020184FD90959170909300010000000069
:1029A00000000000119A00000000000000001198D3
:1029B0009091020183FD9095917090930001000029
:1029C000000000000000119A00000000000000005C
:1029D00011989091020182FD909591709093000161
:1029E0000000000000000000119A0000000000003C
:1029F000000011989091020181FD90959170909343
:102A000000010000000000000000119A000000001A
:102A100000000000119880910201817080930001F4
:102A20000000000000000000119A000000000000FB
:102A300000000895089590E080E008958F929F929D
:102A4000AF92BF92CF92DF92EF92FF920F931F93BC
:102A5000CF93DF93B0E4A0E06A2F70E0AB014B0F9F
:102A6000511D559547954A1711F0B41319C0EEED55
:102A7000F4E165917491072E000C880B990B0E946C
:102A80001FB9DF91CF911F910F91FF90EF90DF90D1
:102A9000CF90BF90AF909F908F900895B42FDECFCE
:102AA0009A0121503109220F331F220F331FF901E0
:102AB000E052FC4EE590F490F901EC51FC4EC591CA
:102AC000D4918E159F0554F3A42FC817D9070CF481
:102AD000C3CFF901EE51FC4E05911491F901EA5171
:102AE000FC4EC590D490BC016E197F09072E000CD6
:102AF000880B990B0E941FB94B015C01B601601B4A
:102B0000710B072E000C880B990B0E941FB99B01BB
:102B1000AC01C501B4010E947EB94B015C01BE014C
:102B20006E197F09072E000C880B990B0E941FB9A4
:102B30009B01AC01C501B4010E940BBE6B017C017D
:102B4000B801110F880B990B0E941FB99B01AC01B2
:102B5000C701B6010E942FBD94CF8F929F92AF9272
:102B6000BF92CF92DF92EF92FF920F931F93CF937A
:102B7000DF93B0E4A0E06A2F70E0AB014B0F511D72
:102B800055954795A41711F0B41319C0EEEDF4E173
:102B900065917491072E000C880B990B0E941FB948
:102BA000DF91CF911F910F91FF90EF90DF90CF9029
:102BB000BF90AF909F908F900895B42FDECF9A0171
:102BC00021503109220F331F220F331FF901E05228
:102BD000FC4EE590F490F901EC51FC4EC591D49176
:102BE0008E159F0554F3A42FC817D9070CF4C3CF33
:102BF000F901EE51FC4E05911491F901EA51FC4E98
:102C0000C590D490BC016E197F09072E000C880B6B
:102C1000990B0E941FB94B015C01B601601B710B3F
:102C2000072E000C880B990B0E941FB99B01AC0169
:102C3000C501B4010E947EB94B015C01BE016E1951
:102C40007F09072E000C880B990B0E941FB99B016E
:102C5000AC01C501B4010E940BBE6B017C01B8013F
:102C6000110F880B990B0E941FB99B01AC01C70182
:102C7000B6010E942FBD94CF10926E0510928C0465
:102C800010928D0410928E0410928F0410926A0597
:102C900010926B0510926C0510926D0510928804CD
:102CA0001092890410928A0410928B0408959091D6
:102CB0006F00292F227091FF05C090916F009D7FBA
:102CC00090936F0034E0839FC0011124FC01E35B0B
:102CD000FA4F408151816281738184589B4FFC017E
:102CE000408351836283738381E080937B0422233A
:102CF00029F080916F00826080936F000895809129
:102D0000320480FF24C089988FEF80930002809165
:102D1000320481FF1FC08F988FEF80930102809152
:102D2000320482FF1AC080910B01827080930901E6
:102D30008FEF809302028091320483FF16C01698B1
:102D40008FEF809303020000000000000895899A2D
:102D500081E0DBCF8F9A81E0E0CF80910B018095FD
:102D600082708093090181E0E4CF169A81E0E9CF77
:102D7000CF93DF9390916F00292F227091FF05C0B0
:102D800090916F009D7F90936F0094E0899FA001C8
:102D90001124FA01E35BFA4F608171818281938192
:102DA000222329F020916F00226020936F00EA0116
:102DB000CD5FD74F0E941FB9288139814A815B813D
:102DC0000E947EB9DF91CF910895CF92DF92EF926A
:102DD000FF9280919F05882309F457C0C0909B05FE
:102DE000D0909C05E0909D05F0909E0520E030E09D
:102DF000A901C701B6010E9419B9882309F445C089
:102E000020E030E040E05FE3C701B6010E947EB9F8
:102E10009B01AC010E947EB92BED3FE049E450E4F8
:102E20000E947EB99B01AC0160E070E080E89FE306
:102E30000E940BBE6B017C01C092D405D092D505D7
:102E4000E092D605F092D7056091390270913A026E
:102E5000072E000C880B990B0E941FB92AE037ED52
:102E600043E25CE30E947EB9A70196010E947EB90D
:102E700060934D0270934E0280934F0290935002E4
:102E8000FF90EF90DF90CF900895C12CD12C80E877
:102E9000E82E8FE3F82ED0CF80916F00982F92709C
:102EA00081FF05C080916F008D7F80936F0010922D
:102EB000FB071092FC071092FD071092FE07992362
:102EC00029F080916F00826080936F0008950F93C6
:102ED0001F9380916D0D90916E0D891B8F7009F479
:102EE00049C090916A0D992361F0833040F48FEFCF
:102EF000890F29F080936A0D90E080E038C010922D
:102F00006A0D80916E0D2DE4829FC0011124825EB6
:102F1000974FFC01208120FDEFCF4091FB0750919E
:102F2000FC076091FD077091FE07E75BFF4F008192
:102F3000118122813381401B510B620B730B409333
:102F4000FB075093FC076093FD077093FE072091E9
:102F50006E0D2F5F2F7020936B0D30916E0D2091B1
:102F60006C0D321304C020916B0D20936C0D1F91DA
:102F70000F91089591DFC0CFCF93DF9380913104FB
:102F800065994AC0816080933104909103018091DA
:102F9000310491FD43C082608093310480913104FB
:102FA0004B993EC0846080933104C0916C04C0FF93
:102FB0000FC08091320480FF0BC08091310480FFEC
:102FC00007C08091700781608093700780E06FDE9A
:102FD000C1FF0FC08091320481FF0BC0809131048A
:102FE00081FF07C08091700782608093700781E045
:102FF0005EDEC2FF17C08091320482FF13C0809151
:10300000310482FF0FC08091700784608093700745
:1030100082E0DF91CF914BCE8E7FB5CF8D7FBCCF3D
:103020008B7FC1CFDF91CF9108955F9A80917C050E
:103030008E7F80937C058A9A80917C058D7F80931A
:103040007C058091080180958170809306018091B4
:103050007C058B7F80937C05129A089590913E03A6
:10306000E92FF0E0EA51FA4F80839F5F943040F4FB
:1030700090933E03809172078F5F8093720708954B
:1030800010923E03F7CF80912404909125042FEFF6
:103090003FEF981751F0E92FF0E0EC55FC4F2081FD
:1030A00030E09F5F9F7790932504C90108950C94A9
:1030B0008D8DCF92DF92EF92FF92CF93C82F0E9417
:1030C000818D6B017C0124EA30E74DE75FE360917D
:1030D00014057091150580911605909117050E94B1
:1030E00019B987FD18C08AEF90E0A0E0B0E08C0D20
:1030F0009D1DAE1DBF1D8093230590932405A093B5
:103100002505B0932605C0932602CF91FF90EF903E
:10311000DF90CF90089580E090E0DC01E8CF0F933E
:103120001F93CF93DF93EC010E94818D0E811F814D
:1031300028853985011511052105310579F52C857D
:10314000222339F1EA8521502C8721E02E0F2A878E
:103150003D85231301C01A86F0E03196EE0FFF1F64
:10316000EE0FFF1FEC0FFD1F0285138524853585AB
:103170000A831B832C833D83600F711F811D911D6A
:103180006E837F83888799878C819D81892B09F045
:10319000409ADF91CF911F910F910895601B710BA1
:1031A000820B930B97FDF5CF40981E821F821886E5
:1031B0001986EFCFCF93DF9300D01F92CDB7DEB744
:1031C000882349F00E94619A0F900F900F900F9002
:1031D000DF91CF91089588EB91E09C838B8384E10C
:1031E00090E09A838983BE016D5F7F4FCE01019687
:1031F0000E940A7DE9CF9F92AF92BF92CF92DF9259
:10320000EF92FF920F931F93CF93DF935B01E9013E
:103210004A3009F4B2C0453109F068C0DB011296AA
:10322000ED91FC91F280C681D78180910201809559
:1032300082708093000188E290E00197F1F7EF2C13
:10324000E29420EFE22230E1932E9F0C48E2C42E5C
:10325000D12C88EF68DBC6010197F1F7BFE1BF15FC
:1032600008F47BC08F2D807780685DDB8E2D5BDB63
:10327000C6010197F1F780E856DB80E054DBC60118
:103280000197F1F78AEF4FDBC6010197F1F78E0145
:10329000005F1F4F8881807F46DB89918295807F08
:1032A00042DBC017D107B1F7C6010197F1F7F394DC
:1032B000E0E1EE0EF910CDCF809102018270809393
:1032C0000001D5011296CD91DC91CE010E940992A8
:1032D0008111D3C1DF91CF911F910F91FF90EF909A
:1032E000DF90CF90BF90AF909F900895FB01028137
:1032F0001381423309F47CC108F480C1463409F4D7
:103300006DC1473409F470C14B3329F589812B8194
:10331000D80112966C91129713964C91213009F4B2
:10332000C3C1233009F08DC138EF380F582F91E019
:10333000431708F490E041E0531708F040E031E013
:10334000561708F430E0592F542B352309F0A1C14A
:10335000942309F09EC181E0BDCF80EE8F0D80687F
:10336000807FE1DA8F2D8295807FDDDAC6010197BB
:10337000F1F780E8D8DA80E881CF8091010182609E
:1033800080930101809102018270809300018091FD
:10339000010181608093010180910201817080931D
:1033A0000001099A119A80910201809582708093A0
:1033B000000188E290E00197F1F788E790E0CEE91C
:1033C000DFE0FE013197F1F70197D9F788EFABDA2B
:1033D00008E210E0C8010197F1F780E2A4DA80E08A
:1033E000A2DAC8010197F1F780E09DDA80E89BDA64
:1033F000C8010197F1F780E096DA80E194DAC8011C
:103400000197F1F7CE010197F1F7CE010197F1F79E
:10341000CE010197F1F7CE010197F1F7CE010197A7
:10342000F1F7CE010197F1F7CE010197F1F7CE0147
:103430000197F1F7CE010197F1F7CE010197F1F76E
:10344000CE010197F1F7CE010197F1F7CE01019777
:10345000F1F7CE010197F1F72197F1F780E263DAF6
:1034600080E461DAC8010197F1F780E25CDA80E676
:103470005ADAC8010197F1F7F12C00E0C8E2D0E078
:10348000802F807780684FDA8F2D4DDACE0101973B
:10349000F1F780E848DA80E046DACE010197F1F7EB
:1034A0008AEF41DACE010197F1F710E2119880918D
:1034B0000201817080930001000000000000000004
:1034C000119A000000000000000011988091020194
:1034D0008170809300010000000000000000119A3C
:1034E000000000000000000011988091020181702E
:1034F000809300010000000000000000119A00000D
:1035000000000000000011988091020181708093FA
:1035100000010000000000000000119A00000000FF
:1035200000000000119880910201817080930001D9
:103530000000000000000000119A000000000000E0
:1035400000001198809102018170809300010000B9
:10355000000000000000119A0000000000000000C0
:103560001198809102018170809300010000000099
:1035700000000000119A00000000000000001198F7
:103580008091020181708093000100000000000022
:103590000000119A000000000000000080E0C3D984
:1035A000CE010197F1F7115009F080CF88EFBBD918
:1035B000CE010197F1F70F5F80E1F80E003209F0BC
:1035C0005FCF80E0B0D980ECAED92197F1F7809140
:1035D000020182708093000181E07CCED8011596B3
:1035E0008C91888381E076CEF80181818883FACF3F
:1035F000B901C8010E94F39181E06CCE443171F0B1
:10360000473109F0A8CE1882F8018281898385812B
:1036100081508A8383818B8381E05CCED8011596AB
:103620004C91159750E0440F551F70E060E01696DE
:103630008D919C910E9451C0C8010E941F9281E00F
:1036400049CE481708F487CE861708F484CEFA804E
:10365000E12CD12C243070F41DC0BE01C8010E94A1
:10366000F391898198819D0D98838E0D8983FF0C3C
:1036700009F471CEF7FEF6CFF0CF4D8150E0440F44
:10368000551F70E060E08E819F810E9451C081E0F3
:1036900021CEFA8030E0F901E952FD4FD0802D5261
:1036A0003D4FF901E080E6CF58E0580F382F3FCE6C
:1036B000DF92EF92FF920F931F93CF93DF93EC0172
:1036C000D62E1CAD0BAD7C0184E0E80EF11CE98D1B
:1036D000FA8DC7011995412F480F2D2D602FC70175
:1036E0000E9430949BAD890F8BAF81E090E0DF9119
:1036F000CF911F910F91FF90EF90DF9008958091EF
:10370000C2049091C3049AD96093260D7093270D3B
:103710008093280D9093290D8091BE049091BF0451
:103720001CDA609378057093790580937A059093FD
:103730007B05A8951092C40408958F929F92AF9232
:10374000BF92CF92DF92EF92FF920F93CF93DF93CE
:103750001F92CDB7DEB76C017B0149018091300427
:103760005B01A40EB51E8823A1F0F6018081918132
:10377000480F591F518340830F90DF91CF910F91D4
:10378000FF90EF90DF90CF90BF90AF909F908F9081
:103790000895F601808191810E94CEBC8983909129
:1037A000E505992311F0002311F0F7018083BE0194
:1037B0006F5F7F4FC4010E942D8AF6018081918145
:1037C000019691838083FFEFEF1AFF0AEA14FB044E
:1037D00001F7D2CF80916E05823039F0813041F00F
:1037E00088ED97E16FEF0C94359B86EF97E1FACF68
:1037F0008AEE97E1F7CF8091FB048630D8F496E00B
:10380000899FF0011124E952FB4F20913D02309134
:103810003E0231832083409192075091930760913B
:1038200094077091950742835383648375838F5FF8
:103830008093FB04089520913D0230913E022817A9
:103840003907D9F090933E0280933D02409392074E
:103850005093930760939407709395078E579943FD
:1038600021F4109227051092FB0482E080934C0211
:1038700081E08093900710922C05089521E0209319
:103880002705609314057093150580931605909392
:10389000170540E050E0BA01809118059091190594
:1038A000CACF60E070E080E291E4E8CF60E070E0D1
:1038B00080E89FE3E3CF6DEC7CEC8CEC9DE3DECF06
:1038C00040E050E0BA018EE799E3B5CFE091FB0408
:1038D000EE2381F0E150E093FB0486E0E89FF001E5
:1038E0001124E952FB4F42815381648175818081AB
:1038F0009181A1CFE5CFDF92EF92FF920F931F93BB
:10390000CF93DF930E94438AC0918E0785E0E82E13
:10391000EC0ED4E0DC1B13E01C1B02E00C1B81E06E
:10392000F82EFC1ADC2ED194C1112DC08091910784
:103930008823B1F080914C02882359F081E0909166
:103940009107911180E024E049EC5CE16D2D0E942B
:10395000909ACF5FEC12E8CF85E080938F070BC081
:1039600080912D05882331F310922D05AFDF8091D2
:1039700090078823F9F2DF91CF911F910F91FF906B
:10398000EF90DF900895C13011F58091910781305B
:1039900079F080914C028823E1F281E090919107C7
:1039A000913009F080E023E040EC5CE16F2DCFCF57
:1039B00080912D05882369F310922D0588E59DE1FE
:1039C0000E94789E80919007882319F3D4CFC2304B
:1039D00009F055C080919107823081F080914C02AE
:1039E000882309F4B6CF81E090919107923009F0D5
:1039F00080E023E043EB5CE1602FA9CF80912D05AF
:103A0000882361F310922D058EE592E30E94789E43
:103A100080919007882311F3AECF80919107833076
:103A200081F080914C02882309F493CF81E090913A
:103A30009107933009F080E023E04EEA5CE1612FCA
:103A400086CF80912D05882361F310922D0581E2A8
:103A50009FE20E94789E80919007882311F38BCF7C
:103A600080912D058823A1F010922D058CEC90E318
:103A70000E94789E80919007882351F07CCFC330BC
:103A800061F2C43009F065CF80919107843041F331
:103A900080914C02882309F45CCF81E090919107DA
:103AA000943009F080E023E045EA5CE16D2F4FCFD0
:103AB0003F924F925F926F927F928F929F92AF92BE
:103AC000BF92CF92DF92EF92FF920F931F93CF930B
:103AD000DF930E94438AC0918E075C2E65E0662EBC
:103AE0006C0ED1E073E0D72EE9E38E2EEBE19E2E33
:103AF00086E0C82ECC1A85E0B82EBC1A84E0A82E29
:103B0000AC1A4D2C4C1A82E0782E7C1A3D2E3C1AB1
:103B1000C11138C0809191078823B9F080914C027F
:103B2000882361F0652D619581E090919107911155
:103B300080E024E04FE85BE10E94909ACF5F6C1236
:103B4000E7CF87E080938F070BC080912D058823F6
:103B500029F310922D05BADE809190078823F1F2A7
:103B6000DF91CF911F910F91FF90EF90DF90CF9059
:103B7000BF90AF909F908F907F906F905F904F908D
:103B80003F900895C13009F04DC080919107813078
:103B900021F180914C02882389F2DF9287EE8F9386
:103BA0001F92DF938BEE97E09F938F9381E89BE1C9
:103BB0009F938F933F9281E090919107913009F00C
:103BC00080E08F930E94069A8DB79EB70A960FB633
:103BD000F8949EBF0FBE8DBFB1CF80912D05882375
:103BE000C1F210922D05C0939607109228051092ED
:103BF000290510922A0510922B05E12C10ECF12ECC
:103C000009E714E420E030E040E85FE36BEE77E0A2
:103C100088E89BE10E94FD8A80919007882309F43F
:103C2000B8CF9ECFC23009F05AC18091910782303F
:103C300029F180914C02882309F480CFDF9287EE2E
:103C40008F931F92DF938FEE97E09F938F9383E77D
:103C50009BE19F938F937F9281E0909191079230A7
:103C600009F080E08F930E94069A8DB79EB70A965E
:103C70000FB6F8949EBF0FBE8DBF60CF80912D050B
:103C80008823B9F210922D05D0939607109228053B
:103C90001092290510922A0510922B05E12C10ECA8
:103CA000F12E09E714E420E030E040E85FE36FEE36
:103CB00077E08AE79BE10E94FD8A80919007882344
:103CC00009F4B7CF4DCF80919107833029F18091CE
:103CD0004C02882309F432CFDF9287EE8F931F9234
:103CE000DF9383EF97E09F938F9385E69BE19F930C
:103CF0008F934F9281E090919107933009F080E08B
:103D00008F930E94069A8DB79EB70A960FB6F894C5
:103D10009EBF0FBE8DBF12CF80912D058823B9F2B3
:103D200010922D05D0939607109228051092290520
:103D300010922A0510922B05E12C10ECF12E09E7C8
:103D400014E420E030E040E85FE363EF77E08CE6E6
:103D50009BE10E94FD8A80919007882309F4B7CFE8
:103D6000FFCE80919107843029F180914C02882305
:103D700009F4E4CEDF9287EE8F931F92DF9387EFF3
:103D800097E09F938F9387E59BE19F938F93AF92EB
:103D900081E090919107943009F080E08F930E9428
:103DA000069A8DB79EB70A960FB6F8949EBF0FBEBF
:103DB0008DBFC4CE80912D058823B9F210922D05B8
:103DC000D0939607109228051092290510922A0583
:103DD00010922B05E12C10ECF12E09E714E420E001
:103DE00030E040E85FE367EF77E08EE59BE10E941B
:103DF000FD8A80919007882309F4B7CFB1CE8091D6
:103E00009107853029F180914C02882309F496CEE0
:103E1000DF9287EE8F931F921F9287E198E09F9326
:103E20008F938DE49BE19F938F93BF9281E090915C
:103E30009107953009F080E08F930E94069A8DB724
:103E40009EB70A960FB6F8949EBF0FBE8DBF76CE72
:103E500080912D058823B9F210922D05D0939607F5
:103E6000109228051092290510922A0510922B0510
:103E7000E12C10ECF12E09E714E420E030E0A90178
:103E800067E178E082E59BE10E94FD8A80919007DE
:103E9000882309F4B8CF64CE80912D05882379F169
:103EA00010922D05D093960710922805109229059F
:103EB00010922A0510922B05E12C10ECF12E09E747
:103EC00014E420E030E0A90163E178E083E49BE1C1
:103ED0000E94FD8A80919007882389F041CEC330EB
:103EE00009F4F1CEC43009F43CCFC53009F487CFD2
:103EF000C63009F023CE80919107863069F2809117
:103F00004C02882309F41ACEDF9287EE8F931F921A
:103F10001F9283E198E09F938F939F928F92CF920D
:103F200081E090919107963009F080E08F930E9494
:103F3000069A8DB79EB70A960FB6F8949EBF0FBE2D
:103F40008DBFFCCDDF92EF92FF920F931F93CF9323
:103F5000DF930E94438AC0918E0785E0E82EEC0E25
:103F6000D4E0DC1B13E01C1B02E00C1B81E0F82EEC
:103F7000FC1ADC2ED194C1112DC0809191078823A9
:103F8000B1F080914C02882359F081E09091910723
:103F9000911180E024E04CEB59E16D2D0E94909A44
:103FA000CF5FEC12E8CF85E080938F070BC0809144
:103FB0002D05882331F310922D0588DC8091900720
:103FC0008823F9F2DF91CF911F910F91FF90EF902D
:103FD000DF900895C13011F580919107813079F01B
:103FE00080914C028823E1F281E090919107913019
:103FF00009F080E023E045EB59E16F2DCFCF8091B0
:104000002D05882369F310922D0587EE91E20E9419
:10401000789E80919007882319F3D4CFC23009F09D
:1040200055C080919107823081F080914C028823A5
:1040300009F4B6CF81E090919107923009F080E0C9
:1040400023E04EEA59E1602FA9CF80912D05882306
:1040500061F310922D058BEE91E20E94789E809183
:104060009007882311F3AECF80919107833081F0C0
:1040700080914C02882309F493CF81E090919107BD
:10408000933009F080E023E047EA59E1612F86CFC1
:1040900080912D05882361F310922D058FEE91E21A
:1040A0000E94789E80919007882311F38BCF809196
:1040B0002D058823A1F010922D0583EF91E20E9437
:1040C000789E80919007882351F07CCFC33061F2B5
:1040D000C43009F065CF80919107843041F380911D
:1040E0004C02882309F45CCF81E0909191079430D1
:1040F00009F080E023E04EE959E16D2F4FCFCF92D8
:10410000DF92EF92FF920F931F93CF93DF93182FBD
:1041100070931905609318050E94438AC0918E0719
:1041200085E0D82EDC0E81E004E00C1B93E0F92E34
:10413000FC1A92E0E92EEC1AC82ECC1ADC2FD1958D
:10414000113009F457C048F1123009F47CC0C11194
:10415000A1C08823D9F0809191071816BCF0409136
:1041600092075091930760919407709195074F5F64
:104170005F4F6F4F7F4F4093920750939307609329
:104180009407709395078F5F8093910780914C02FD
:10419000882341F160E879E152C0C1117BC08823D6
:1041A000D9F0809191071816BCF040919207509178
:1041B000930760919407709195074F5F5F4F6F4F22
:1041C0007F4F4093920750939307609394077093A7
:1041D00095078F5F8093910780914C0267E979E1A1
:1041E00081112DC080E0CF5FDC12AACF85E08093E3
:1041F0008F0773C0C1114EC08823D9F080919107F9
:104200001816BCF040919207509193076091940763
:10421000709195074F5F5F4F6F4F7F4F40939207AD
:104220005093930760939407709395078F5F8093E3
:10423000910780914C0260E979E1882399F28D2FF2
:104240000E94199ECFCFC11125C08823D9F080913B
:1042500091071816BCF04091920750919307609116
:104260009407709195074F5F5F4F6F4F7F4F40935B
:1042700092075093930760939407709395078F5F0D
:104280008093910780914C0269E879E1882309F4D1
:10429000A9CFD5CFC13051F580919107813091F0F0
:1042A00080914C02882309F49DCF81E09091910781
:1042B000913009F080E024E046E759E16C2D0E943E
:1042C000909A90CF80912D05882351F310922D055F
:1042D000FDDA80919007882319F3DF91CF911F9128
:1042E0000F91FF90EF90DF90CF900895C23009F0CA
:1042F00055C080919107823081F080914C028823D3
:1043000009F470CF81E090919107923009F080E03C
:1043100023E04CE659E16E2DD2CF80912D05882304
:1043200061F310922D0581E59CE10E94789E8091B9
:104330009007882311F3D1CF80919107833081F0CA
:1043400080914C02882309F44DCF81E09091910730
:10435000933009F080E023E043E659E16F2DAFCFC1
:1043600080912D05882361F310922D0586E59CE14F
:104370000E94789E80919007882311F3AECF8091A0
:104380002D058823A1F010922D058BE59CE10E945C
:10439000789E80919007882351F09FCFC33061F2BF
:1043A000C43009F01FCF80919107843041F3809190
:1043B0004C02882309F416CF81E090919107943044
:1043C00009F080E023E048E559E1602F78CF60E80C
:1043D0007DE280E094CE6CE77DE281E090CE68E7FC
:1043E0007DE282E08CCE62EF7BE283E088CEEF92CA
:1043F000FF920F931F93CF93DF930E94438AC09144
:104400008E0785E0F82EFC0ED3E0DC1B12E01C1BAF
:1044100001E00C1BEC2EE194C1112CC0809191079E
:104420008823B1F080914C02882359F081E090916B
:104430009107911180E024E045E958E16E2D0E943A
:10444000909ACF5FFC12E8CF84E080938F070BC077
:1044500080912D05882331F310922D0537DA809154
:1044600090078823F9F2DF91CF911F910F91FF9070
:10447000EF900895C13061F580919107813079F016
:1044800080914C028823E9F281E09091910791306C
:1044900009F080E020E249E858E1602FD0CF809118
:1044A0002D05882369F310922D05409193055091B5
:1044B000940560918F05709190058091970590917A
:1044C00098050E94D68D809190078823C9F2CBCFA2
:1044D000C23009F042C080919107823081F0809112
:1044E0004C02882309F4ADCF81E09091910792307E
:1044F00009F080E020E249E658E1612FA0CF8091E9
:104500002D05882361F310922D054091930550915C
:1045100094056FEF7FEF80919705909198050E9429
:10452000D68D809190078823D1F29DCF80912D0563
:104530008823D1F010922D05409193055091940558
:1045400060918F057091900590E080E00E94D68D7B
:1045500080919007882341F086CFC33009F071CF56
:1045600080919107833011F380914C02882309F4E4
:1045700068CF81E090919107933009F080E020E2CC
:1045800049E758E16D2F5BCFEF92FF920F931F9396
:10459000CF93DF930E94438AC0918E0785E0F82E67
:1045A000FC0ED3E0DC1B12E01C1B01E00C1BEC2E0C
:1045B000E194C1112CC0809191078823B1F08091C2
:1045C0004C02882359F081E090919107911180E08D
:1045D00024E049EC58E16E2D0E94909ACF5FFC12C6
:1045E000E8CF84E080938F070BC080912D0588234E
:1045F00031F310922D056AD9809190078823F9F242
:10460000DF91CF911F910F91FF90EF900895C130EE
:1046100061F580919107813079F080914C02882377
:10462000E9F281E090919107913009F080E020E279
:104630004DEB58E1602FD0CF80912D05882369F391
:1046400010922D0540919505509196056091910528
:10465000709192058091990590919A050E94D68D4E
:10466000809190078823C9F2CBCFC23009F042C0B5
:1046700080919107823081F080914C02882309F467
:10468000ADCF81E090919107923009F080E020E277
:104690004DE958E1612FA0CF80912D05882361F36A
:1046A00010922D0540919505509196056FEF7FEF83
:1046B0008091990590919A050E94D68D80919007DE
:1046C0008823D1F29DCF80912D058823D1F01092BF
:1046D0002D05409195055091960560919105709139
:1046E000920590E080E00E94D68D8091900788230B
:1046F00041F086CFC33009F071CF809191078330AC
:1047000011F380914C02882309F468CF81E09091E5
:104710009107933009F080E020E24DEA58E16D2FD7
:104720005BCF2F923F924F925F926F927F928F92C8
:104730009F92AF92BF92CF92DF92EF92FF920F9330
:104740001F93CF93DF931F921F92CDB7DEB70E94C6
:10475000438A80918E078A83582E8B5F898383E0FA
:10476000F82E94E2C92E98E1D92E85E0E82EE518BE
:104770002EE2A22E28E1B22E34E0632E462C4518FC
:1047800042E4842E48E1942E3F2C351882E0782EA6
:1047900075182224239425189A8191113EC0809186
:1047A00091078823D1F080914C02882361F0652D18
:1047B000619581E090919107911180E024E044E6B9
:1047C00058E10E94909A9A819F5F9A838981891308
:1047D000E3CF86E080938F070BC080912D0588235F
:1047E00011F310922D0572D8809190078823D9F289
:1047F0000F900F90DF91CF911F910F91FF90EF904D
:10480000DF90CF90BF90AF909F908F907F906F90F0
:104810005F904F903F902F9008958A818130B1F53D
:10482000809191078130D9F080914C02882359F210
:10483000FF9287EE8F931F928AE08F938AE492E033
:104840009F938F9388E598E19F938F932F9281E0B8
:1048500090919107913009F4C4C080E0C2C080916A
:104860002D05882309F310922D0510E000E027EEB6
:1048700033E04AE050E06AE472E08EE598E10E949D
:104880009C8A80919007882379F2B2CF9A819230E6
:1048900009F0EAC0809191078230F9F080914C02D2
:1048A000882309F490CF87E598E19F938F9391E057
:1048B0009F936F921F921F9284E29DE09F938F932C
:1048C0008AE498E19F938F937F9281E09091910782
:1048D000923009F444C080E042C080912D058823C5
:1048E000E9F210922D0581E0809396071092280539
:1048F0001092290510922A0510922B0507E518E160
:1049000024E031E050E040E064E27DE081E598E1C0
:104910000E949C8A80919007882309F4BFCF68CFBA
:10492000809191078330F9F080914C02882309F43B
:104930004ACF85E39EE39F938F931F9287E88F93DF
:104940001F921F928CE897E09F938F939F928F9274
:104950003F9281E090919107933009F0BCCF8F9303
:104960000E94F09941C080912D058823E9F21092B0
:104970002D0591E090939607109228051092290535
:1049800010922A0510922B0505E31EE327E830E07C
:1049900050E040E06CE877E086E498E10E949C8A71
:1049A00080919007882309F4BFCF22CF809191078F
:1049B000843001F180914C02882309F404CF1F92C6
:1049C0008FEF8F931F921F928BE198E09F938F93AD
:1049D000BF92AF924F9281E090919107943009F08D
:1049E0003CCF8F930E94F0990FB6F894DEBF0FBEB4
:1049F000CDBFE9CE80912D058823E1F210922D05DF
:104A000091E0909396071092280510922905109234
:104A10002A0510922B0510E000E02FEF30E050E067
:104A200040E06BE178E088E398E10E949C8A809105
:104A30009007882309F4BECFDBCE80912D05882313
:104A400009F110922D0500E714E127EE33E04AE06A
:104A500050E069E372E089E298E10E949C8A8091CB
:104A60009007882379F0C4CE9A81933009F458CF07
:104A7000943009F49BCF953009F0A5CE8091910731
:104A80008530D9F280914C02882309F49CCE80E7CE
:104A900094E19F938F93FF9287EE8F931F928AE00A
:104AA0008F9389E392E09F938F93DF92CF92EF925F
:104AB00081E090919107953009F00DCF50CFFF9292
:104AC0000F931F93CF93DF930E94438AC0918E0769
:104AD00005E00C0FFC2EF19412E01C1BD1E0DC1B56
:104AE000C11113C0809191078823A9F180914C02D4
:104AF000882359F081E090919107911180E024E0A2
:104B000048E158E16F2D0E94909A80916D0D90912F
:104B10006E0D891B8F7009F440C0C13009F060C070
:104B200080919107813051F180914C02882361F08E
:104B300081E090919107913009F080E023E043E11A
:104B400058E16D2F0E94909ACF5F0C13C9CF83E07C
:104B500080938F070DC080912D05882339F2109224
:104B60002D050E94661C80919007882309F4BECF12
:104B7000DF91CF911F910F91FF90089580912D05A6
:104B8000882391F210922D0581E993E20E94789E8C
:104B900080919007882341F2EBCFC13009F58091D5
:104BA0009107813071F080914C02882369F281E095
:104BB00090919107913009F080E023E04BE058E1BB
:104BC000C0CF80912D05882371F310922D0588EABE
:104BD0009DE40E94789E80919007882321F3C8CF9E
:104BE000C23009F0B1CF80919107823081F080917D
:104BF0004C02882309F4A8CF81E09091910792306C
:104C000009F080E023E043E058E1612F9BCF8091E1
:104C10002D05882361F310922D058CEA90E70E9400
:104C2000789E80919007882311F3A2CF9CE0899F02
:104C3000802D112491E0980F909373072CE0280F9A
:104C4000209374074091640D30E02E5F3F4F421770
:104C5000130609F0A4F42091660D921780F46623E0
:104C600041F08E5F0E94EA93809174078E5F0E94EC
:104C7000EA93809174071092670D8093680D0895F0
:104C8000CF93DF931F92CDB7DEB78091690D81116D
:104C900005C081E08093690D0E9462926091320D9F
:104CA0007091330D19829E012F5F3F4F4FE080E3DB
:104CB0009DE00E9426920F90DF91CF9108959FEF83
:104CC000980F993020F40E94CE9A81E008950E94B6
:104CD000627CFBCF9FEF980F993010F40C94CE9A22
:104CE0000C94627CCF93DF93EC01FE0184918823C6
:104CF00019F0F0DF2196F9CFDF91CF910895CF938E
:104D0000DF93EC018991882311F0E4DFFBCFDF9181
:104D1000CF910895AF92BF92CF92DF92EF92FF9220
:104D20000F931F93CF93DF935C017B010E940B9E37
:104D3000C82FC7010E945E9E04E110E0081B110904
:104D4000DD24D394C017110619F014F082E0D82E98
:104D50008091310D90E06D2D70E06F5F7F4F0E946C
:104D600007C0C62EC6E0C60F8091640DC81788F133
:104D70002091660D4C2F4B50550B241715064CF106
:104D80001092670DC093680DC5010E94677CD1E049
:104D9000E114F10499F08AE30E94627C52E0D5129A
:104DA0001AC0CC0D8091640DC81740F02091660D9B
:104DB0004C2F4B50550B241715067CF4DF91CF91E7
:104DC0001F910F91FF90EF90DF90CF90BF90AF9029
:104DD0000895D0E0DDCFDD2389F3802F880F800F89
:104DE000880F8093670DC093680D80E20E94627CFB
:104DF000C701DF91CF911F910F91FF90EF90DF904E
:104E0000CF90BF90AF907BCF8F929F92AF92BF9287
:104E1000FF920F931F93CF93DF9300D01F92CDB7D4
:104E2000DEB78091920790919307A0919407B0917B
:104E30009507B7FF08C0109292071092930710923F
:104E400094071092950780917D0790917E07A0911D
:104E50007F07B0918007409192075091930760912E
:104E600094077091950784179507A607B70744F430
:104E70008093920790939307A0939407B09395071C
:104E800080914C02882351F16091920770919307B1
:104E90008091940790919507009181071091820766
:104EA0002091830730918407600F711F821F931F29
:104EB0000E941FB92AE037ED43E25CE30E947EB90D
:104EC00069837A838B839C83CE0101960E945295DD
:104ED000BC0180918707909188071CDFF0902D0519
:104EE000F11009C080918907882309F43DC08091A1
:104EF0004C028823C9F1009185071091860701159E
:104F0000110509F1609192077091930780919407C0
:104F1000909195078090810790908207A0908307D9
:104F2000B0908407680D791D8A1D9B1D0E941FB9D2
:104F30002AE037ED43E25CE30E947EB9F80160832A
:104F4000718382839383E0918A07F0918B07309776
:104F500031F080918907811101C0F110199580917C
:104F60002D0581110E94661C10922D050F900F9047
:104F70000F900F90DF91CF911F910F91FF90BF90F5
:104F8000AF909F908F9008958F929F92AF92BF9213
:104F9000FF920F931F93CF93DF9300D01F92CDB753
:104FA000DEB78091920790919307A0919407B091FA
:104FB0009507B7FF08C010929207109293071092BE
:104FC00094071092950780917D0790917E07A0919C
:104FD0007F07B091800740919207509193076091AD
:104FE00094077091950784179507A607B70744F4AF
:104FF0008093920790939307A0939407B09395079B
:1050000080914C02882351F160919207709193072F
:1050100080919407909195070091810710918207E4
:105020002091830730918407600F711F821F931FA7
:105030000E941FB92AE037ED43E25CE30E947EB98B
:1050400069837A838B839C83CE0101960E9412969A
:10505000BC0180918707909188075CDEF0902D0558
:10506000F11009C080918907882309F43DC080911F
:105070004C028823C9F1009185071091860701151C
:10508000110509F16091920770919307809194073F
:10509000909195078090810790908207A090830758
:1050A000B0908407680D791D8A1D9B1D0E941FB951
:1050B0002AE037ED43E25CE30E947EB9F8016083A9
:1050C000718382839383E0918A07F0918B073097F5
:1050D00031F080918907811101C0F11019958091FB
:1050E0002D0581110E94661C10922D050F900F90C6
:1050F0000F900F90DF91CF911F910F91FF90BF9074
:10510000AF909F908F9008958F929F92AF92BF9291
:10511000FF920F931F93CF93DF9300D01F92CDB7D1
:10512000DEB78091920790919307A0919407B09178
:105130009507B7FF08C0109292071092930710923C
:1051400094071092950780917D0790917E07A0911A
:105150007F07B0918007409192075091930760912B
:1051600094077091950784179507A607B70744F42D
:105170008093920790939307A0939407B093950719
:1051800080914C02882351F16091920770919307AE
:105190008091940790919507009181071091820763
:1051A0002091830730918407600F711F821F931F26
:1051B0000E941FB920E030E048EC52E40E947EB922
:1051C00069837A838B839C83CE0101960E94B1967A
:1051D000BC0180918707909188079CDDF0902D0598
:1051E000F11009C080918907882309F43DC080919E
:1051F0004C028823C9F1009185071091860701159B
:10520000110509F1609192077091930780919407BD
:10521000909195078090810790908207A0908307D6
:10522000B0908407680D791D8A1D9B1D0E941FB9CF
:1052300020E030E048EC52E40E947EB9F80160833F
:10524000718382839383E0918A07F0918B07309773
:1052500031F080918907811101C0F1101995809179
:105260002D0581110E94661C10922D050F900F9044
:105270000F900F90DF91CF911F910F91FF90BF90F2
:10528000AF909F908F9008958F929F92AF92BF9210
:10529000FF920F931F93CF93DF9300D01F92CDB750
:1052A000DEB78091920790919307A0919407B091F7
:1052B0009507B7FF08C010929207109293071092BB
:1052C00094071092950780917D0790917E07A09199
:1052D0007F07B091800740919207509193076091AA
:1052E00094077091950784179507A607B70744F4AC
:1052F0008093920790939307A0939407B093950798
:1053000080914C02882351F160919207709193072C
:1053100080919407909195070091810710918207E1
:105320002091830730918407600F711F821F931FA4
:105330000E941FB92FE632E143E85AE30E947EB98A
:1053400069837A838B839C83CE0101960E946E8B46
:10535000BC018091870790918807DCDCF0902D05D7
:10536000F11009C080918907882309F43DC080911C
:105370004C028823C9F10091850710918607011519
:10538000110509F16091920770919307809194073C
:10539000909195078090810790908207A090830755
:1053A000B0908407680D791D8A1D9B1D0E941FB94E
:1053B0002FE632E143E85AE30E947EB9F8016083A8
:1053C000718382839383E0918A07F0918B073097F2
:1053D00031F080918907811101C0F11019958091F8
:1053E0002D0581110E94661C10922D050F900F90C3
:1053F0000F900F90DF91CF911F910F91FF90BF9071
:10540000AF909F908F9008958F929F92AF92BF928E
:10541000FF920F931F93CF93DF9300D01F92CDB7CE
:10542000DEB78091920790919307A0919407B09175
:105430009507B7FF08C01092920710929307109239
:1054400094071092950780917D0790917E07A09117
:105450007F07B09180074091920750919307609128
:1054600094077091950784179507A607B70744F42A
:105470008093920790939307A0939407B093950716
:1054800080914C02882351F16091920770919307AB
:105490008091940790919507009181071091820760
:1054A0002091830730918407600F711F821F931F23
:1054B0000E941FB92AE037ED43E25CE30E947EB907
:1054C00069837A838B839C83CE0101960E949F9887
:1054D000BC0180918707909188071CDCF0902D0516
:1054E000F11009C080918907882309F43DC080919B
:1054F0004C028823C9F10091850710918607011598
:10550000110509F1609192077091930780919407BA
:10551000909195078090810790908207A0908307D3
:10552000B0908407680D791D8A1D9B1D0E941FB9CC
:105530002AE037ED43E25CE30E947EB9F801608324
:10554000718382839383E0918A07F0918B07309770
:1055500031F080918907811101C0F1101995809176
:105560002D0581110E94661C10922D050F900F9041
:105570000F900F90DF91CF911F910F91FF90BF90EF
:10558000AF909F908F900895CF92DF92EF92FF920D
:105590001F93CF93DF938091920790919307A091EF
:1055A0009407B0919507B7FF08C010929207109228
:1055B0009307109294071092950780917D07909120
:1055C0007E07A0917F07B09180074091920750918C
:1055D0009307609194077091950784179507A60724
:1055E000B70744F48093920790939307A09394078E
:1055F000B093950780914C028823B1F16091920796
:10560000709193078091940790919507C0908107BE
:10561000D0908207E0908307F09084076C0D7D1D89
:105620008E1D9F1D0E941FB96B017C0120E030E0A0
:10563000A9010E9419B920E030E040E05FE387FF54
:1056400004C020E030E040E05FEBC701B6010E94FB
:105650002FBD0E9473BECB010E94BB99BC018091FB
:1056600087079091880756DB10912D05111108C00E
:10567000809189078823A9F180914C02882389F1C0
:10568000C0918507D09186072097D1F0609192074D
:10569000709193078091940790919507C09081072E
:1056A000D0908207E0908307F09084076C0D7D1DF9
:1056B0008E1D9F1D0E941FB9688379838A839B83F7
:1056C000E0918A07F0918B07309731F0809189073C
:1056D000811101C01111199580912D0581110E9430
:1056E000661C10922D05DF91CF911F91FF90EF90D6
:1056F000DF90CF9008958091920790919307A091A9
:105700009407B0919507B7FF08C0109292071092C6
:105710009307109294071092950780917D079091BE
:105720007E07A0917F07B09180074091920750912A
:105730009307609194077091950784179507A607C2
:10574000B70744F48093920790939307A09394072C
:10575000B093950780914C02882391F02091920795
:10576000309193078091810790918207820F931F58
:105770000E94BB99BC018091870790918807CADA83
:1057800020912D05211108C080918907882339F1C6
:1057900080914C02882319F1E0918507F0918607EA
:1057A000309761F080919207909193074091810723
:1057B00050918207840F951F91838083E0918A071F
:1057C000F0918B07309731F080918907811101C0EA
:1057D0002111199580912D0581110E94661C10924E
:1057E0002D05089580912D0510922D05882321F017
:1057F000109227050C94661C609192077091930794
:105800008091940790919507611571058105910527
:1058100061F10E941FB92091140530911505409146
:105820001605509117050E947EB92091B607309158
:10583000B7074091B8075091B9070E942FBD6093F8
:10584000B6077093B7078093B8079093B90783E0C2
:105850000E94591881E080934C0210929207109296
:105860009307109294071092950780914C02882319
:1058700041F086EB97E00E942998BC018FE499E102
:1058800049CA08953F924F925F926F927F928F9292
:105890009F92AF92BF92CF92DF92EF92FF920F93BF
:1058A0001F93CF93DF9300D000D000D01F92CDB7CD
:1058B000DEB79A878987362E80912D0510922D05A7
:1058C0008823E1F0109227050E94661C2A960FB6E5
:1058D000F894DEBF0FBECDBFDF91CF911F910F9126
:1058E000FF90EF90DF90CF90BF90AF909F908F9000
:1058F0007F906F905F904F903F90089580919207B6
:1059000090919307A0919407B09195078D839E8302
:10591000AF83B887892B8A2B8B2B09F454C094E072
:10592000699F80011124F801E655F84F40805180AD
:105930006280738080914502811183C020E030E055
:105940004AE754E4C301B2010E942EBD4B015C0141
:1059500020E030E04AE754E4C301B2010E942FBDC9
:105960006B017C016D817E818F8198850E941FB9BA
:105970002091140530911505409116055091170599
:105980000E947EB9A30192010E942FBD2B013C0110
:105990008D819E81AF81B885B7FF94C0A501940128
:1059A000C301B2010E9419B987FD84C0F801E65510
:1059B000F84F4082518262827382832D0E9459186F
:1059C00081E080934C0210929207109293071092FC
:1059D00094071092950780914C02882309F476CFA2
:1059E000A4E03A9EC0011124FC01E655F84F84540E
:1059F0009A4FDC012D913D914D915C9160817181B7
:105A0000828193810E942FBD69837A838B839C83DB
:105A10002DEC3CEC4CEC5DE36091140570911505A8
:105A200080911605909117050E9455BF87FD5BC0B8
:105A3000CE0101960E942998BC0189859A856AD970
:105A400045CFA1E06A17A1F0B2E06B1711F1809089
:105A5000C8059090C905A090CA05B090CB05C0902C
:105A60002D02D0902E02E0902F02F09030027ACFDB
:105A70008090CC059090CD05A090CE05B090CF053C
:105A8000C0903102D0903202E0903302F0903402A4
:105A900069CF8090D0059090D105A090D205B090AC
:105AA000D305C0903502D0903602E0903702F090D6
:105AB000380258CFF801E655F84F80829182A282D1
:105AC000B3827BCFA7019601C301B2010E9455BFEB
:105AD00018160CF06BCFF801E655F84FC082D18252
