:100000000C9476150C94A7150C94A7150C94A715B1
:100010000C94A7150C94A7150C94A7150C94A71570
:100020000C94A7150C94A7150C94A7150C94A71560
:100030000C94A7150C94A7150C94A7150C94A71550
:100040000C94A7150C94DCC40C94A7150C94A7155C
:100050000C94A7150C94A7150C9407B60C94FFAF3D
:100060000C94A7150C9469930C945F930C94A715AA
:100070000C94A7150C94A7150C94A7150C94A71510
:100080000C94A7150C94A7150C94A7150C94A71500
:100090000C94A7150C94A7150C94A7150C94A715F0
:1000A0000C94A7150C94A7150C94A7150C94A715E0
:1000B0000C94A7150C94A7150C94A7150C94A715D0
:1000C0000C94A7150C94A7150C94A7150C94A715C0
:1000D0000C94A7150C94A7150C94A7150C94A715B0
:1000E0000C94A715084AD73B3BCE016E84BCBFFDDC
:1000F000C12F3D6C74319ABD56833DDA3D00C77FF8
:1001000011BED9E4BB4C3E916BAAAABE0000008090
:100110003F05A84CCDB2D44EB93836A9020C50B91F
:10012000918688083CA6AAAA2ABE000000803F004B
:100130004E414E494E495459494E46CDCCCC3D0ACC
:10014000D7233C17B7D13877CC2B329595E6241FAF
:10015000B14F0A000020410000C84200401C462068
:10016000BCBE4CCA1B0E5AAEC59D7400407A10F33B
:100170005A00A0724E18090010A5D4E80000E876D5
:1001800048170000E40B54020000CA9A3B0000002C
:10019000E1F505000080969800000040420F000045
:1001A00000A08601000000102700000000E8030006
:1001B0000000006400000000000A000000000001D0
:1001C00000000000002C76D888DC674F0823DFC1D0
:1001D000DFAE59E1B1B796E5E3E453C63AE651998B
:1001E0007696E8E6C28426EB898C9B62ED407C6FB4
:1001F000FCEFBC9C9F40F2BAA56FA5F490055A2A6B
:10020000F75C936B6CF9676DC11BFCE0E40D47FE76
:10021000F520E6B500D0ED902E030094357705006B
:1002200080841E080000204E0A000000C80C3333F2
:1002300033330F986E12831141EF8D2114893BE601
:100240005516CFFEE6DB18D1844B381BF77C1D908A
:100250001DA4BBE424203284725E228100C9F124F3
:10026000ECA1E53D27434F4D4D554E49434154497F
:100270004F4E0044525952554E004552524F525320
:1002800000494E464F004543484F004572726F7219
:100290002077726974696E6720746F2045455052EB
:1002A0004F4D210A00363726033C3D380E2E303E96
:1002B000121A1C1808440AFF4308090001627573EA
:1002C000793A2070617573656420666F7220696E7B
:1002D0007075740A00627573793A20706175736580
:1002E0006420666F7220757365720A006275737997
:1002F0003A2070726F63657373696E670A005354B6
:100300004F505045442E20005072696E7465722023
:1003100073746F707065642064756520746F2065F8
:1003200072726F72732E204669782074686520653A
:1003300072726F7220616E6420757365204D393959
:100340003920746F20726573746172742E20285482
:10035000656D706572617475726520697320726570
:100360007365742E2053657420697420616674650A
:10037000722072657374617274696E67290A004E27
:100380006F20436865636B73756D207769746820AF
:100390006C696E65206E756D6265722C204C6173A0
:1003A00074204C696E653A2000636865636B7375F1
:1003B0006D206D69736D617463682C204C6173747A
:1003C000204C696E653A20004C696E65204E756D53
:1003D000626572206973206E6F74204C61737420A3
:1003E0004C696E65204E756D6265722B312C204C08
:1003F000617374204C696E653A20004D31313000D4
:100400002121204B494C4C20636175736564206247
:1004100079204B494C4C20627574746F6E2F706953
:100420006E0A002121204B494C4C20636175736595
:100430006420627920746F6F206D75636820696E27
:100440006163746976652074696D65202D2063751C
:100450007272656E7420636F6D6D616E643A200018
:10046000506C656173652052657365740050524924
:100470004E5445522048414C5445440025533A209F
:100480002553004B494C4C45442E20005072696E58
:100490007465722068616C7465642E206B696C6C85
:1004A00028292063616C6C6564210A006563686FAC
:1004B0003A004572726F723A000A4D656173757247
:1004C000656420706F696E74733A0A003378332064
:1004D0006D6573682E205A206F66667365743A20C6
:1004E00000206E6F7420656E74657265642E0A005C
:1004F00020496E76616C69642065787472756465F4
:10050000722000536C6565702E2E2E00206F6620C1
:10051000004D424C2047323920706F696E742000C4
:10052000290A004A206F7574206F662072616E6719
:10053000652028302D00290A0049206F7574206F2E
:10054000662072616E67652028302D004D657368E6
:100550002070726F62696E6720646F6E652E0A008C
:100560005374617274206D6573682070726F626974
:100570006E67207769746820224732392053312210
:100580002066697273742E0A004732380A4732397E
:1005900020533200686173206E6F20646174612E95
:1005A0000A004D65736820426564204C6576656C71
:1005B000696E67200053206F7574206F662072612A
:1005C0006E67652028302D35292E0A004D65736829
:1005D00020706F696E742063616E6E6F7420626547
:1005E000207265736F6C7665640A00436C69636B97
:1005F00020746F20526573756D652E2E2E004E6F20
:10060000204D6F76652E002569730025696D2025C4
:100610006973002569682025696D202569730025A7
:100620006964202569682025696D20256973002586
:10063000697920256964202569682025696D202550
:100640006973005072696E742074696D653A200098
:10065000496E76616C69642050696E204D6F6465E7
:100660000A0020573A00436F6F6C696E672E2E2E7A
:100670000048656174696E672E2E2E004520255353
:10068000006F6B006F666600860281027A02730259
:10069000650244454255473A004D31313220536896
:1006A0007574646F776E004D3131332053002057DD
:1006B0003A0042656420436F6F6C696E672E2E2E80
:1006C000004265642048656174696E672E2E2E00B5
:1006D0003344205072696E746572204F46462E0076
:1006E0004348414D4245525F54454D504552415457
:1006F000555245004D4F54494F4E5F4D4F44455361
:1007000000544845524D414C5F50524F544543545C
:10071000494F4E004155544F5245504F52545F532C
:10072000445F5354415455530050524F4D50545F01
:10073000535550504F525400454D455247454E4336
:10074000595F50415253455200434153455F4C4914
:100750004748545F4252494748544E45535300540A
:100760004F47474C455F4C494748545300534F4609
:1007700054574152455F504F574552004255494CDE
:10078000445F50455243454E54004C4556454C49F4
:100790004E475F44415441005A5F50524F4245001A
:1007A0004155544F4C4556454C005052494E545FAC
:1007B0004A4F420050524F475245535300415554FF
:1007C0004F5245504F52545F54454D5000564F4C78
:1007D000554D455452494300454550524F4D0042F6
:1007E000494E4152595F46494C455F5452414E5320
:1007F0004645520053455249414C5F584F4E5F5851
:100800004F4646004649524D574152455F4E414D75
:10081000453A4D61726C696E20322E302E352E3382
:1008200020284769744875622920534F5552434523
:100830005F434F44455F55524C3A68747470733A45
:100840002F2F6769746875622E636F6D2F4D61720B
:100850006C696E4669726D776172652F4D61726C5D
:10086000696E2050524F544F434F4C5F5645525380
:10087000494F4E3A312E30204D414348494E455F55
:10088000545950453A3344205072696E7465722051
:1008900045585452554445525F434F554E543A3192
:1008A00020555549443A63656465326132662D349A
:1008B0003161322D343734382D396231322D633580
:1008C000356336326633363766660A002F2F2000CE
:1008D0004D31343520533C696E6465783E206F7528
:1008E00074206F662072616E67652028302D312973
:1008F0000A00205200416363656C65726174696F20
:100900006E3A2050003F4A206F7574206F66207247
:10091000616E67652028302E303120746F20302EB4
:1009200033290A0020580020204D61783A20002009
:100930000020204D696E3A2000536F667420656E6A
:100940006473746F70733A200046523A0020466C0C
:100950006F773A200050726F74656374656420503D
:10096000696E0A0020643A0020693A0020703A005B
:10097000496E76616C69642065787472756465721D
:100980000A0064697300656E0043290A0061626CA5
:10099000656420286D696E2074656D702000436F5A
:1009A0006C6420657874727564657320617265206B
:1009B000004F4646004F4E004F46460A00466164CF
:1009C00065204865696768742000426564204C654D
:1009D00076656C696E6720004661696C6564207499
:1009E0006F20656E61626C6520426564204C65769F
:1009F000656C696E670A004D657368204265642006
:100A00004C6576656C20646174613A0A00496E76C3
:100A1000616C6964206D6573682E0A004D657368AA
:100A200020706F696E742063616E6E6F74206265F2
:100A3000207265736F6C7665640A004D3432312024
:100A4000696E636F727265637420706172616D6547
:100A50007465722075736167650A00486F6D652063
:100A6000257325732573204669727374004F66667B
:100A700073657473204170706C69656400457272AF
:100A80003A20546F6F206661722100546F6F2066A8
:100A900061722066726F6D207265666572656E6345
:100AA0006520706F696E740A00454550524F4D20A5
:100AB0004F4B0A002E0A002028302D31302900200B
:100AC00076616C7565206F7574206F662072616E3B
:100AD000676500416476616E6365204B3D00496E39
:100AE00076616C69642065787472756465720A0059
:100AF0004361703A0047322F4733206261642070AF
:100B00006172616D65746572730A006F6B00526586
:100B100073656E643A200023646566696E652044DF
:100B2000454641554C545F004B6420004B69200002
:100B30004B702000504944204175746F74756E6588
:100B40002066696E6973686564212050757420742D
:100B50006865206C617374204B702C204B69206198
:100B60006E64204B6420636F6E7374616E747320C7
:100B700066726F6D2062656C6F7720696E746F208E
:100B8000436F6E66696775726174696F6E2E680A6D
:100B900000504944204175746F74756E652066611C
:100BA000696C6564212074696D656F75740A005005
:100BB0004944204175746F74756E65206661696C77
:100BC0006564212054656D7065726174757265206D
:100BD000746F6F20686967680A00204B643A2000D0
:100BE000204B693A2000204B703A20000A20436CC9
:100BF000617373696320504944200A002054753A98
:100C00002000204B753A2000206D61783A200020AA
:100C10006D696E3A200020643A2000206269617399
:100C20003A2000504944204175746F74756E6520F8
:100C300073746172740A00504944204175746F7472
:100C4000756E65206661696C6564212054656D7000
:100C50006572617475726520746F6F20686967686A
:100C60000A00504944204175746F74756E652066A2
:100C700061696C65642120426164206578747275D5
:100C8000646572206E756D6265720A004572723A13
:100C9000207574663820666F6E74206E6F742069DC
:100CA0006E697469616C697A65642E004572723A86
:100CB000207574663820666F6E74206E6F742069BC
:100CC0006E697469616C697A65642E004572723A66
:100CD000207574663820666F6E74206E6F7420699C
:100CE0006E697469616C697A65642E0046696C2E60
:100CF000204469612E004520696E206D6DC2B300ED
:100D0000416476616E6365204B0020082046616374
:100D100074002008204D6178002008204D696E0085
:100D20004F6666004F6E004175746F74656D70009C
:100D30005654726176204D696E00566D696E00568C
:100D40006D6178204500566D6178205A00566D61BE
:100D500078205900566D6178205800416D617820E7
:100D60004500416D6178205A00416D61782059003D
:100D7000416D6178205800412D54726176656C0098
:100D8000412D5265747261637400416363656C0048
:100D90004A756E6374696F6E20446576004573749E
:100DA0006570732F6D6D005A73746570732F6D6D60
:100DB000005973746570732F6D6D0058737465708E
:100DC000732F6D6D00416476616E636564205365B9
:100DD0007474696E6773003F0043616E63656C00F5
:100DE000496E6974004D34323800496E6974696126
:100DF0006C697A6520454550524F4D0046696C61DB
:100E00006D656E740054656D7065726174757265A0
:100E10000053746570732F6D6D004A65726B0041ED
:100E20006363656C65726174696F6E0056656C6FA3
:100E3000636974790053657420486F6D65204F664F
:100E4000667365747300436F6E666967757261746B
:100E5000696F6E003F004E65787420436F726E6557
:100E60007200446F6E65004E657874004C6576655F
:100E70006C696E6720446F6E6521004D6F7665204A
:100E80005A00473239205332004E65787420506F33
:100E9000696E74002569202F20257500473239209E
:100EA00053310047323920533200436C69636B2061
:100EB000746F20426567696E00486F6D696E6720C8
:100EC00058595A005A2056616C756500496E646520
:100ED00078205900496E64657820580053746F7209
:100EE000652053657474696E6773004C6F6164208C
:100EF00053657474696E6773004C6576656C204346
:100F00006F726E65727300426564205A00466164B8
:100F10006520486569676874004F6666004F6E001B
:100F2000426564204C6576656C696E67004564694E
:100F300074204D657368004C6576656C204265646D
:100F4000004D6F74696F6E00426564004E6F7A7A6F
:100F50006C650046616E20537065656400436F6E7A
:100F600066696775726174696F6E00526573746F3C
:100F700072652044656661756C7473004C6F6164C2
:100F80002053657474696E67730053746F726520C3
:100F900053657474696E6773005072656865617437
:100FA0002041425320436F6E660050726568656150
:100FB0007420504C4120436F6E6600416476616E30
:100FC0006365642053657474696E6773004D61696D
:100FD0006E00436F6E66696775726174696F6E004B
:100FE00054656D7065726174757265004D6F7469DA
:100FF0006F6E0054756E6500496E666F20536372A4
:1010000065656E004D6F74696F6E004D3834004435
:10101000697361626C6520537465707065727300EA
:10102000426564204C6576656C696E6700473238AE
:101030005A00486F6D65205A004732385900486F92
:101040006D652059004732385800486F6D6520584B
:1010500000473238004175746F20486F6D65004D50
:1010600061696E005072656865617420504C412062
:10107000456E64005072656865617420504C412073
:101080004265640050726568656174204142532076
:10109000456E64005072656865617420414253205A
:1010A0004265640054656D706572617475726500A7
:1010B000436F6F6C646F776E005072656865617422
:1010C00020414253005072656865617420504C4164
:1010D0000046616E20537065656400426564004E91
:1010E0006F7A7A6C65004D61696E00416476616E5D
:1010F0006365204B00466C6F770046616E2053702D
:1011000065656400426564004E6F7A7A6C650042E2
:101110006564205A005370656564004D61696E0016
:10112000202020202020200020202020001FE02040
:101130001020102010102010202010201030300817
:1011400040048003001FE03FF03FF03FF01FE01F2E
:10115000E03FF03FF03FF00FC0078003003FFFF09B
:1011600038007030FC3020FC102078102030102C1B
:1011700000D02E31D02F7BD02F7BD02E31D02C0021
:10118000D020301020781020FC1030FC3038007057
:101190003FFFF03FFFF03800703186302387102783
:1011A00087902F87D02F03D0203010207810207800
:1011B000102030102F03D02F87D02787902387103F
:1011C0003186303800703FFFF01FFFF81FFFF80432
:1011D000104002082002082004104008208010411E
:1011E000001041000820800410400000001FFFF89C
:1011F0001FFFF8000016430000164300004843009C
:101200000000000000000000000000290A00206229
:10121000797465733B20637263200053657474694D
:101220006E67732053746F726564202800454550C3
:10123000524F4D206461746173697A6520657272E2
:101240006F722E0A00290A002062797465733B20B0
:1012500063726320002073746F7265642073657419
:1012600074696E677320726574726965766564204F
:1012700028004572723A20454550524F4D20435246
:101280004300202863616C63756C61746564292177
:101290000A0020213D2000454550524F4D20435229
:1012A00043206D69736D61746368202D2028737409
:1012B0006F7265642920004572723A20454550528C
:1012C0004F4D20496E646578002053697A653A2055
:1012D00000496E6465783A20004572723A204545AF
:1012E00050524F4D2056657273696F6E00204D61EC
:1012F000726C696E3D563736290A00454550524F8B
:101300004D2076657273696F6E206D69736D6174BF
:1013100063682028454550524F4D3D004861726436
:10132000636F6465642044656661756C7420536501
:101330007474696E6773204C6F616465640A0000A1
:1013400000964300009643000040400000C8410062
:1013500000A0420000A04200007A4500C02844B826
:101360000B0000B80B000064000000102700003BD9
:10137000200020204D393030204B004C696E6561D3
:101380007220416476616E63653A00204400204912
:101390000020204D333031205000504944207365E7
:1013A0007474696E67733A0020460020420020483A
:1013B0000020204D3134352053004D617465726931
:1013C000616C2068656174757020706172616D6513
:1013D000746572733A002020473239205334205A02
:1013E00000204A0020204732392053332049002072
:1013F000204D3432302053004D65736820426564BF
:10140000204C6576656C696E673A0020204D32305D
:1014100036205800486F6D65206F66667365743AB4
:1014200000204A0020530020204D32303520420059
:10143000416476616E6365643A20423C6D696E5F1B
:101440007365676D656E745F74696D655F75733E16
:1014500020533C6D696E5F66656564726174653EBC
:1014600020543C6D696E5F74726176656C5F666571
:101470006564726174653E204A3C6A756E635F64A0
:1014800065763E0020540020520020204D3230343A
:10149000205000416363656C65726174696F6E20F2
:1014A00028756E6974732F7332293A20503C70721C
:1014B000696E745F616363656C3E20523C72657453
:1014C000726163745F616363656C3E20543C747247
:1014D0006176656C5F616363656C3E0020204D3210
:1014E00030312058004D6178696D756D204163631E
:1014F000656C65726174696F6E2028756E697473AE
:101500002F7332293A0020204D3230332058004DBD
:101510006178696D756D2066656564726174657367
:101520002028756E6974732F73293A00537465709F
:10153000732070657220756E69743A0020204D32F8
:1015400030302044300A0020204D3230302044001A
:101550002044697361626C65640A0046696C616D60
:10156000656E742073657474696E67733A00202029
:101570004D3134392043203B20556E697473206906
:101580006E2043656C736975730A0020286D6D29A0
:10159000002020473231202020203B20556E6974E6
:1015A0007320696E206D6D006F70656E0054524936
:1015B000474745524544003A20007A5F6D696E0006
:1015C000795F6D696E00785F6D696E005265706F4E
:1015D0007274696E6720656E6473746F70207374C3
:1015E000617475730A0020746F6F206C6F6E6720D2
:1015F000657874727573696F6E2070726576656E4A
:101600007465640A0020636F6C6420657874727579
:1016100073696F6E2070726576656E7465640A001A
:10162000486F6D696E67204661696C6564000000F3
:10163000000000000000000000005761726E696E3B
:10164000673A20486F6D696E672042756D7020445F
:10165000697669736F72203C20310A00020204002F
:1016600000A0400000A04000000040000016430021
:1016700000164300004843FFFFFF000C0D00FE076B
:10168000022603BC017FFE08FE08FE0508080600CE
:101690000040F0C88888987810050808060000C047
:1016A000F88888888888F80505050600012030F844
:1016B00030200508080600002070F820202020E0D7
:1016C0000509090600FF2070A8A8B88888702005C1
:1016D0000606060001E08CEA8C8A0A050909060064
:1016E000FFF8A88888888888A8F8050A0A0600FEF6
:1016F000205050505088A8A88870030303060003A8
:1017000040A040FFFFFFFFFFFFFFFFFFFFFFFFFFC6
:10171000FFFFFFFFFFFFFFFFFF0000000605FF01C7
:101720000707060200808080808000800303030694
:101730000105A0A0A005060606000050F85050F8CC
:10174000500509090600FF2070A8A07028A8702085
:10175000050707060000C8C810204098980507072D
:1017600006000040A0A040A89068010303060205FF
:101770008080800309090601FF204040808080406E
:1017800040200309090601FF8040402020204040FE
:101790008005070706000020A8702070A820050516
:1017A000050600012020F820200203030601FFC0E7
:1017B0004080050101060003F8020202060100C094
:1017C000C0050707060000081010204040800507EC
:1017D00007060000708898A8C888700307070601EC
:1017E0000040C040404040E0050707060000708808
:1017F00008102040F8050707060000F80810300818
:10180000887005070706000010305090F81010058A
:101810000707060000F880F008088870050707062B
:101820000000304080F0888870050707060000F847
:101830000810102020200507070600007088887017
:10184000888870050707060000708888780810608F
:10185000020505060100C0C000C0C0020606060160
:10186000FFC0C000C0408003050506010120408084
:101870004020050303060002F800F80305050601F1
:101880000180402040800507070600007088102076
:101890002000200507070600007088B8A8B88070EF
:1018A000050707060000708888F8888888050707FC
:1018B000060000F04848704848F005070706000099
:1018C00070888080808870050707060000F048480F
:1018D000484848F0050707060000F88080F080803F
:1018E000F8050707060000F88080F0808080050773
:1018F000070600007088808098887005070706003A
:1019000000888888F8888888030707060100E04077
:1019100040404040E0050707060000381010101056
:1019200090600507070600008890A0C0A090880579
:101930000707060000808080808080F80507070682
:10194000000088D8A88888888805070706000088CE
:1019500088C8A898888805070706000070888888C6
:10196000888870050707060000F08888F08080806E
:1019700005070706000070888888A8906805070793
:10198000060000F08888F0A0908805070706000090
:1019900070888070088870050707060000F820200E
:1019A000202020200507070600008888888888886E
:1019B00070050707060000888888885050200507B2
:1019C0000706000088888888A8A850050707060031
:1019D00000888850205088880507070600008888FE
:1019E0005020202020050707060000F8081020409E
:1019F00080F80309090601FFE080808080808080F4
:101A0000E005070706000080404020101008030989
:101A1000090601FFE020202020202020E00503030C
:101A20000600052050880501010600FEF8030303A7
:101A3000060105804020050505060000700878882D
:101A4000780507070600008080F0888888F0050583
:101A500005060000708080887005070706000008F2
:101A60000878888888780505050600007088F08069
:101A700070050707060000304840E0404040050779
:101A8000070600FE7088888878087005070706003A
:101A9000008080F0888888880307070601004000DE
:101AA000C0404040E00409090601FE10003010105B
:101AB0001010906005070706000080808890E09075
:101AC00088030707060100C04040404040E005058C
:101AD00005060000D0A8A8A8A8050505060000B0C6
:101AE000C888888805050506000070888888700504
:101AF00007070600FEF0888888F080800507070643
:101B000000FE78888888780808050505060000B07A
:101B1000C880808005050506000078807008F00503
:101B200007070600002020F82020201805050506DC
:101B30000000888888986805050506000088888860
:101B400050200505050600008888A8A85005050551
:101B500006000088502050880507070600FE888888
:101B60008850204080050505060000F8102040F848
:101B70000309090601FF2040404080404040200109
:101B800009090602FF8080808080808080800309B0
:101B9000090601FF8040404020404040800503038B
:101BA00006000248A890FF5072696E74205061755B
:101BB0007365640024F4D43050C38E20C2A2401751
:101BC000828B7011127A910D816CD90AA861E1089B
:101BD000C7586607615143061E4B5D05C145A70402
:101BE0001A411104093D9803713931034036DB0273
:101BF00065339102D4305402802E1D02632CEE0115
:101C0000752AC501B028A001102781018F25640124
:101C10002B244B01E0223401AC211F018D200D014A
:101C2000801FFC00841EED00971DDF00B81CD20051
:101C3000E61BC600201BBC00641AB200B219A80043
:101C40000A19A0006A189900D117910040178B005B
:101C5000B516840031167E00B31579003A1573006D
:101C6000C7146F0058146A00EE13660088136300EF
:101C700025135E00C7125B006C125700151254004A
:101C8000C111510070114F0021114B00D6104900B5
:101C90008D1047004610440002104200C00F400063
:101CA000800F3E00420F3C00060F3B00CB0E380079
:101CB000930E37005C0E3500270E3400F30D320012
:101CC000C10D3100900D3000600D2E00320D2D0041
:101CD000050D2C00D90C2B00AE0C2900850C290019
:101CE0005C0C2700350C27000E0C2600E80B2400A6
:101CF000C40B2400A00B23007D0B23005A0B2100F2
:101D0000390B2100180B2000F80A1F00D90A1E0009
:101D1000BB0A1E009D0A1D00800A1D00630A1C00EC
:101D2000470A1B002C0A1B00110A1A00F7091A00A7
:101D3000DD091900C4091900AB091900920917003F
:101D40007B091800630917004C09160036091600B4
:101D5000200916000A091500F5081500E00814000E
:101D6000CC081400B8081400A4081400900813004C
:101D70007D0812006B081300580812004608120074
:101D80003408110023081100120811000108110085
:101D9000F0071000E0071000D0071000C007100087
:101DA000B0070F00A107100091070E0083070F0076
:101DB00074070F0065070E0057070E0049070E0055
:101DC0003B070D002E070E0020070D0013070D0026
:101DD00006070D00F9060C00ED060D00E0060C00EC
:101DE000D4060C00C8060C00BC060C00B0060C00A3
:101DF000A4060B0099060C008D060B0082060B0052
:101E000077060B006C060B0061060A0057060B00F4
:101E10004C060A0042060A0038060A002E060A008E
:101E200024060A001A060A001006090007060A001E
:101E3000FD050900F4050900EB050900E2050900AC
:101E4000D9050900D0050900C7050900BE0509002C
:101E5000B5050800AD050800A50509009C050800AA
:101E6000940508008C050800840508007C0508001E
:101E7000740508006C050700650508005D0507008E
:101E8000560508004E0507004705070040050800F5
:101E900038050700310507002A050700230507005C
:101EA0001C050600160507000F05070008050600BB
:101EB00002050700FB040600F5040700EE04060017
:101EC000E8040600E2040700DB040600D50406006F
:101ED000CF040600C9040600C3040600BD040600C2
:101EE000B7040600B1040500AC040600A604060011
:101EF000A00405009B04060095040500900406005C
:101F00008A04050085040500800406007A040500A3
:101F100075040500700405006B04050066040500E7
:101F2000610405005C040500570405005204050027
:101F30004D04050048040500430405003E04040068
:101F40003A04050035040500300404002C040500A3
:101F500027040400230405001E0404001A040400DE
:101F600016040500110404000D0404000904050012
:101F70000404040000040400FC030400F80304004B
:101F8000F4030400F0030400EC030400E80304007D
:101F9000E4030400E0030400DC030400D8030400AD
:101FA000D4030400D0030400CC030400C8030300DE
:101FB000C503030024F404D9201BC40C5C0E980450
:101FC000C4095F0265077101F405F900FB04B30061
:101FD00048048700C1036900580355000303450006
:101FE000BE023A008402310053022A002902250071
:101FF00004022000E4011C00C8011900AF01170011
:102000009801140084011300710110006101100097
:1020100051010E0043010D0036010B002B010B0096
:1020200020010B00150109000C0109000301080043
:10203000FB000800F3000800EB000700E4000600C6
:10204000DE000600D8000600D2000600CC00050025
:10205000C7000500C2000500BD000400B90004006F
:10206000B5000400B1000400AD000400A9000400A4
:10207000A5000300A20003009F0004009B000300D2
:1020800098000300950002009300030090000300F5
:102090008D0002008B000300880002008600020011
:1020A00084000300810002007F0002007D00020026
:1020B0007B00020079000200770001007600020038
:1020C0007400020072000100710002006F00020043
:1020D0006D0001006C0002006A000100690002004E
:1020E0006700010066000100650001006400020055
:1020F0006200010061000100600001005F00020059
:102100005D0001005C0001005B0001005A0001005D
:10211000590001005800010057000100560001005D
:10212000550001005400010053000000530001005D
:102130005200010051000100500001004F00010059
:102140004E0000004E0001004D0001004C00010057
:102150004B0000004B0001004A0001004900010053
:102160004800000048000100470001004600000050
:102170004600010045000000450001004400010048
:102180004300000043000100420000004200010043
:102190004100000041000100400001003F0000003C
:1021A0003F0001003E0000003E0001003D00000035
:1021B0003D0001003C0000003C0000003C0001002C
:1021C0003B0000003B0001003A0000003A00010023
:1021D000390000003900010038000000380000001C
:1021E0003800010037000000370001003600000011
:1021F0003600000036000100350000003500000008
:1022000035000100340000003400000034000100FB
:1022100033000000330000003300010032000000F2
:1022200032000000320001003100000031000000E7
:1022300031000100300000003000000030000100DB
:102240002F0000002F0000002F0000002F000100D1
:102250002E0000002E0000002E0001002D000000C6
:102260002D0000002D0000002D0001002C000000BA
:102270002C0000002C0000002C0001002B000000AE
:102280002B0000002B0000002B0001002A000000A2
:102290002A0000002A0000002A0001002900000096
:1022A0002900000029000000290000002900010089
:1022B000280000002800000028000000280000007E
:1022C0002800010027000000270000002700000070
:1022D0002700000027000100260000002600000063
:1022E0002600000026000000260001002500000056
:1022F000250000002500000025000000250000004A
:10230000250001002400000024000000240000003B
:10231000240000002400010023000000230000002E
:102320002300000023000000230000002300000021
:102330002300010022000000220000002200000013
:102340002200000022000000220001002100000005
:1023500021000000210000002100000021000000F9
:1023600021000000210001002000000020000000EA
:1023700020000000200000002000000020000000DD
:1023800020000000200001001F0000001F000000CE
:102390001F0000001F0000001F0000001F000000C1
:1023A0001F0001001E0000001E0000001E000000B3
:1023B0001E000000C23100001C260000F4190000BD
:1023C000D80F0000EB080000C004000075020000F8
:1023D0004001000020436F756E7420583A0042653A
:1023E0006400453100626564002C20737973746564
:1023F0006D2073746F707065642120486561746529
:10240000725F49443A200048656174696E672046EE
:1024100061696C65640048656174696E6720666116
:10242000696C65640070012C0190012701B00122E4
:1024300001C0011D01F00118011002130130020E4C
:10244000016002090190020401C002FF000003FACA
:10245000004003F5008003F000D003EB002004E609
:10246000007004E100E004DC004005D700C005D2A4
:10247000004006CD00D006C8008007C3003008BE6B
:1024800000F008B900C009B400B00AAF00B00BAA50
:1024900000D00CA500000EA000500F9B00C01096AD
:1024A000005012910000148C00C0158700B01782F4
:1024B00000B0197D00D01B7800001E730040206E14
:1024C0000090226900F024640040275F0090295AA0
:1024D00000E02B5500102E500020304B00103246EB
:1024E00000E033410090353C00103737007038323F
:1024F00000A0392D00B03A2800A03B2300603C1E0C
:1025000000103D1900903D1400103E0F00703E0A6F
:1025100000C03E0500003F0000403FFBFF803FF64B
:10252000FFC03FF1FF544845524D414C2052554E9B
:102530004157415900546865726D616C2052756E47
:1025400061776179004572723A204D415854454D8A
:1025500050004D415854454D50207472696767656D
:10256000726564004572723A204D494E54454D5093
:10257000004D494E54454D5020747269676765722D
:10258000656400202F002042403A0020403A0000BD
:10259000002100240027002A002D00300033000114
:1025A000010000040107010A0100002200250028A3
:1025B000002B002E0031003400020100000501084C
:1025C000010B01000020002300260029002C002F11
:1025D00000320000010000030106010901050505A4
:1025E00005070508080808020202020A0A0808048A
:1025F00004040401010101010101010303030303B8
:10260000030303040707070C0C0C0C0C0C0C0C0246
:1026100002020206060606060606060B0B0B0B0B4D
:102620000B0B0B0102102020080810204010204046
:102630008002010201080402010102040810204086
:1026400080804020100804020180040201804020A4
:1026500010080402010804020101020408102040CD
:1026600080010204081020408000000A0B02090CBF
:102670000D0E080703040100000000000000000028
:10268000000000000000000000000000000000004A
:102690000000000000121110000000000000000007
:1026A00000000000000000000000000000000068C2
:1026B0007474703A2F2F6D61726C696E66772E6F2D
:1026C000726700322E302E352E330001FFFFFFFFE0
:1026D000FFFFFFFFFFFFFFFFFF0FFFFFFFFFFFFFFA
:1026E000FFFFFFFFFFFFFF1E0000000000000000D3
:1026F000000007FFFF38000000000000000000009D
:1027000003FFFF700000000000000000000001FF58
:10271000FF600000000000000000000000FFFF60FC
:1027200000000000000000000000007FFFC000006B
:102730000000000000007800003FFFC00FC0FC0058
:10274000000000007818001FFFC03FE1FF000000FC
:102750000000783C000FFFC07FF3FF800000000006
:10276000783C0007FFC0FFFFFFC000000000783C7E
:102770000003FFC1F87F87E000000000780000013F
:10278000FFC1F03F03E00000000078000000FFC13F
:10279000E01E01E01F0003E0783C03F07FC1E01E73
:1027A00001E07FC00FF8783C07FC3FC1E01E01E16B
:1027B000FFE01FFC783C0FFE1FC1E01E01E3FFF0AD
:1027C0003FFE783C1FFE0FC1E01E01E3F3F83F3EE1
:1027D000783C3F3F07C1E01E01E7E0FC7C1F783CEE
:1027E0003E1F07C1E01E01E7C07C7C0F783C3C0F18
:1027F00003C1E01E01E7807C780F783C3C0F03C1E9
:10280000E01E01E7803C7800783C3C0F03C1E01EED
:1028100001E7803C7800783C3C0F03C1E01E01E7F3
:10282000803C7800783C3C0F03C1E01E01E7C03CCF
:102830007800783C3C0F03C1E01E01E3E03C7800E7
:102840007C3C3C0F03C1E01E01E3FF3FF8007FBC6E
:102850003C0F03C1E01E01E1FF3FF8003FBFFC0F4A
:1028600003C1E01E01E0FF3FF8001FBFFC0F03C1E2
:10287000E01E01E07F3FF8000FBFFC0F0360000087
:1028800000000000000000000000076000000000E1
:1028900000000000000000000670000000000000C2
:1028A0000000000000000E380000000000000000E2
:1028B000000000001C1E00000000000000000000DE
:1028C0000000780FFFFFFFFFFFFFFFFFFFFFFFFF8D
:1028D000F001FFFFFFFFFFFFFFFFFFFFFFFF802073
:1028E00020506C616E6E65724275666665724279E3
:1028F0007465733A20002046726565204D656D6FE2
:1029000072793A2000436F6D70696C65643A204DAE
:10291000617920313820323032300A00204C617326
:102920007420557064617465643A20323032302D01
:1029300030332D3331207C20417574686F723A201A
:10294000286E6F6E652C2064656661756C742063FB
:102950006F6E666967290A00322E302E352E330AD3
:10296000004D61726C696E0020536F6674776172FE
:10297000652052657365740A00205761746368644A
:102980006F672052657365740A002042726F776E1C
:10299000206F75742052657365740A002045787441
:1029A00065726E616C2052657365740A00506F77B2
:1029B000657255700A0073746172740A00456E6422
:1029C00073746F70730025532025632025632025C1
:1029D0006320256300205A3A0020593A0020583AD3
:1029E00000656E6473746F7073206869743A2000B8
:1029F0004D6F76652025736D6D00004D6F766520F7
:102A0000302E316D6D004D6F766520316D6D004D4E
:102A10006F76652031306D6D004D6F7665204178A1
:102A2000697300486F74656E6420746F6F20636F04
:102A30006C64004578747275646572004D6F7665DC
:102A4000205A004D6F76652059004D6F76652058ED
:102A500000000048420000484200008040220A0076
:102A6000556E6B6E6F776E20636F6D6D616E643A3D
:102A70002022003344205072696E746572205265C2
:102A80006164792E005072696E74696E672E2E2E05
:102A900000204500205A00205900204D393220588E
:102AA0000020746F6F206C6F6E672065787472758C
:102AB00073696F6E2070726576656E7465640A0066
:102AC00020636F6C6420657874727573696F6E2013
:102AD00070726576656E7465640A0020453A002060
:102AE0005A3A0020593A00583A00ACCB11241FBE84
:102AF000CFEFD1E2DEBFCDBF00E00CBF13E0A0E01E
:102B0000B2E0E6ECFDEB01E00BBF02C007900D92D6
:102B1000A833B107D9F720E1A8E3B3E001C01D92C3
:102B2000A330B207E1F715E1C6E7D5E100E006C042
:102B300021970109802FFE010E9489DEC537D10748
:102B400080E00807A9F70E94C4CC0C94E1DE0C9445
:102B50000000CF92DF92EF92FF9280918E05882342
:102B600009F457C0C0909305D0909405E090950566
:102B7000F090960520E030E0A901C701B6010E945F
:102B8000FAD4882309F445C020E030E040E05FE358
:102B9000C701B6010E945FD59B01AC010E945FD5C1
:102BA0002BED3FE049E450E40E945FD59B01AC016E
:102BB00060E070E080E89FE30E943CDC6B017C01F8
:102BC000C0928F05D0929005E0929105F092920507
:102BD00060912D0270912E02072E000C880B990B2C
:102BE0000E9400D52AE037ED43E25CE30E945FD506
:102BF000A70196010E945FD560935D0270935E020B
:102C000080935F0290936002FF90EF90DF90CF90EF
:102C10000895C12CD12C80E8E82E8FE3F82ED0CF78
:102C2000CF93DF9324E0829FC0011124EC01CD56A5
:102C3000D24FFC01E354FA4F835C9A4FDC012D9193
:102C40003D914D915C9160817181828193810E945F
:102C500060DB688379838A839B83DF91CF910895BA
:102C6000CF92DF92EF92FF921F93CF93DF93209149
:102C70002202222309F48DC0EC011091490510FFB6
:102C80002CC0C0900A02D0900B02E0900C02F09091
:102C90000D02288139814A815B81C701B6010E94FA
:102CA00086DD181624F4C882D982EA82FB82C0909D
:102CB0001602D0901702E0901802F09019022881B5
:102CC00039814A815B81C701B6010E94FAD487FF2E
:102CD00004C0C882D982EA82FB8211FF2CC0C09056
:102CE0000E02D0900F02E0901002F09011022C81A1
:102CF0003D814E815F81C701B6010E9486DD1816B5
:102D000024F4CC82DD82EE82FF82C0901A02D09041
:102D10001B02E0901C02F0901D022C813D814E812F
:102D20005F81C701B6010E94FAD487FF04C0CC823C
:102D3000DD82EE82FF8212FF2CC0C0901202D09082
:102D40001302E0901402F0901502288539854A8517
:102D50005B85C701B6010E9486DD181624F4C8867B
:102D6000D986EA86FB86C0901E02D0901F02E090B2
:102D70002002F0902102288539854A855B85C701AC
:102D8000B6010E94FAD487FF04C0C886D986EA86B5
:102D9000FB86DF91CF911F91FF90EF90DF90CF9056
:102DA0000895CF92DF92EF92FF92FC01C080D18014
:102DB000E280F38020E030E0A901C701B6010E9463
:102DC000FAD487FF69C0C701B601905820E030E00F
:102DD00040E251E40E945FD520E030E040EA50E458
:102DE0000E9460DB20E030E040E251E40E943CDCE5
:102DF0000E94A4DCFB01E03187E2F80708F453C02D
:102E0000CF0160E177E20E9446DE80E3860F809387
:102E10000E05E83E83E0F80708F447C0CF0168EEEE
:102E200073E00E9446DECB016AE070E00E9446DE5D
:102E3000805D80930F0580E2E436F10558F0CF0104
:102E400064E670E00E9446DECB016AE070E00E941A
:102E500046DE805D8093100580E2EA30F10558F08F
:102E60002AE030E0CF01B9010E9446DECB01B90172
:102E70000E9446DE805D80931105CF016AE070E01C
:102E80000E9446DE805D809312058EE095E0FF9003
:102E9000EF90DF90CF90089520E030E040E251E4E1
:102EA000C701B60197CF80E2B2CF80E2C2CF8F9246
:102EB0009F92AF92BF92CF92DF92EF92FF92CF9309
:102EC000C62FFC01C080D180E280F38020E030E496
:102ED0004CE156E4C701B6010E945FD54B015C018D
:102EE00020E030E0A901C701B6010E94FAD420E039
:102EF00030E040EA50E487FF04C020E030E040EAE0
:102F000050ECC501B4010E9460DB20E030E040E2FB
:102F100051E40E943CDC0E94A4DC6B017C01C114E2
:102F2000D104E104F10409F456C0F7FE09C0F0949D
:102F3000E094D094C094C11CD11CE11CF11CCDE2E2
:102F4000C0930D05C701B60128EE33E040E050E024
:102F50000E946DDE8AE0882E912CA12CB12CCA0132
:102F6000B901A50194010E946DDE605D60930E05BC
:102F70008EE280930F05C701B60124E630E040E001
:102F800050E00E946DDECA01B901A50194010E94C2
:102F90006DDE605D60931005C701B601A501940167
:102FA0000E946DDEC62FCA01B901A50194010E94DD
:102FB0006DDE605D60931105C05DC09312058DE00C
:102FC00095E0CF91FF90EF90DF90CF90BF90AF90C2
:102FD0009F908F900895C0E2B3CF8F929F92AF924F
:102FE000BF92CF92DF92EF92FF92FC01C080D1801E
:102FF000E280F38020E030E048EC52E4C701B60103
:103000000E945FD54B015C0120E030E0A901C701BF
:10301000B6010E94FAD420E030E040EA50E487FF95
:1030200004C020E030E040EA50ECC501B4010E9449
:1030300060DB20E030E040E251E40E943CDC0E9492
:10304000A4DC9B018BE237FF05C022273327261B18
:10305000370B8DE280930D05C90168EE73E00E9485
:103060005ADECB01EAE0F0E0BF010E945ADE805D4B
:1030700080930E05C90164E670E00E945ADECB0120
:10308000BF010E945ADE805D80930F05C901BF0118
:103090000E945ADE282FCB01BF010E945ADE805DBC
:1030A000809310058EE280931105205D2093120518
:1030B0008DE095E0FF90EF90DF90CF90BF90AF90C4
:1030C0009F908F9008959C0197FF26C0EE27FF27C1
:1030D000E81BF90B2D398FEF38070CF05DC08DE23E
:1030E00080930F05CF0164E670E00E945ADECB01A9
:1030F0002AE030E0B9010E945ADE805D809310051D
:10310000CF01B9010E945ADECB01B9010E945ADEFB
:10311000805D809311052AC0283E83E03807B4F112
:10312000C90168EE73E00E945ADECB01EAE0F0E0EC
:10313000BF010E945ADE805D80930F05C90164E6DD
:1031400070E00E945ADECB01BF010E945ADE805D12
:1031500080931005C901BF010E945ADECB01BF0157
:103160000E945ADE805D80931105F901CF016AE06B
:1031700070E00E945ADE805D809312058FE095E03A
:1031800008958DE237FDC5CF80E2C3CFF90180E21B
:10319000243631050CF0A4CF80E280930F05809394
:1031A0001005EA30F1056CF38DE237FF80E2809381
:1031B0001005CF016AE070E00E945ADE605D609306
:1031C0001105D4CF9C0197FD2DC080E22436310536
:1031D0005CF0C90164E670E00E945ADECB016AE04F
:1031E00070E00E945ADE805D8093100580E22A30F4
:1031F00031055CF0EAE0F0E0C901BF010E945ADE4F
:10320000CB01BF010E945ADE805D80931105C90188
:103210006AE070E00E945ADE805D8093120580E1D2
:1032200095E008953195219531098DE2DDCF282F64
:1032300080E2243628F0822F64E60E942DDE805D35
:103240008093100590E22A3040F03AE0822F632FFD
:103250000E942DDE0E942DDE905D90931105822F3D
:103260006AE00E942DDE905D9093120580E195E06A
:10327000089524E6829FC001112481589F4F6FEF6B
:1032800070E00E945ADE262F81E3643609F080E266
:1032900080930F0590E22A3040F03AE0822F632FAE
:1032A0000E942DDE0E942DDE905D90931005822FEE
:1032B0006AE00E942DDE905D9093110585E2809377
:1032C00012058FE095E0089560912D0270912E0215
:1032D000072E000C880B990B0E9400D52AE037EDD1
:1032E00043E25CE30E945FD520918F053091900509
:1032F00040919105509192050E945FD560935D02C7
:1033000070935E0280935F029093600208958091B3
:103310007F07811104C08091AA048093A0070895BB
:1033200080917F07811104C08091AA048093A00737
:1033300008950C948D2ECF92DF92EF92FF9223EF9F
:1033400034E045E35FE360918407709185078091E5
:103350008607909187070E945FD56B017C01609181
:10336000250D7091260D8091270D9091280D0E94BA
:10337000FED49B01AC01C701B6010E945FD529E7CD
:1033800032E84AE550E40E945FD50E94CCDD6093AC
:1033900098077093990780939A0790939B07FF90E3
:1033A000EF90DF90CF9008950F931F93522F2091AD
:1033B000D00D3091D10D2817390721F19093D10DFF
:1033C0008093D00D8B0130E020E000936D071093C7
:1033D0006E0720936F0730937007409365075093F3
:1033E0006607875A9E4321F41092CC0410929F04E2
:1033F00082E080935C0281E080937D071092D30489
:10340000109264071F910F91089521E02093CC043E
:103410006093A6047093A7048093A8049093A904D2
:1034200020E040E070E060E080915D0790915E07F1
:10343000BBCF6DEC7CEC8CEC9CE3E7CF6DEC7CECD3
:103440008CEC9DE3E2CF60E070E080E89FE3DDCFAD
:1034500060E070E080E291E4D8CF81E08093CC041A
:103460001092490520E040E070E060E080EE90E2DC
:103470009BDF81E590E19093CA058093C90508958B
:1034800020E040E070E060E083ED9CE38DDF81E0D0
:103490008093A2048091A304811107C08CE99EE06F
:1034A0009093CA058093C905089583EA9EE0F8CFFA
:1034B0008091A20D9091A30D891B8F7039F481E04A
:1034C00090918307913019F080E0089581E008958C
:1034D000CF93DF93EC01CB01BA010E9400D52AE023
:1034E00037ED43E25DE30E943CDC20E030E0A901DF
:1034F0000E9460DB0E94A9DC688379838A839B83B6
:10350000DF91CF910895CF93DF93EC01CB01BA0106
:103510000E9400D520E030E040E251E40E943CDC13
:1035200020E030E0A9010E9460DB688379838A8310
:103530009B83DF91CF910895CF93DF93EC01CB0173
:10354000BA010E9400D52AE037ED43E25DE30E9414
:103550003CDC20E030E0A9010E9460DB68837983D5
:103560008A839B83DF91CF910895CF93DF93EC0102
:10357000CB01BA010E9400D520E030E0A9010E94F1
:1035800060DB688379838A839B83DF91CF91089581
:10359000CF93DF93EC01CB01BA010E9400D520E06C
:1035A00030E0A9010E9460DB688379838A839B8372
:1035B000DF91CF910895CF93DF93EC01CB01BA0156
:1035C0000E9400D520E030E04AE754E40E943CDC51
:1035D00020E030E0A9010E9460DB688379838A8360
:1035E0009B83DF91CF910895CF93DF93EC01CB01C3
:1035F000BA010E9400D520E030E048EC52E40E947D
:103600003CDC20E030E0A9010E9460DB6883798324
:103610008A839B83DF91CF9108950E9400D520E09B
:1036200030E0A9010E9460DB0E94A9DC862FFFCD5B
:10363000CF93DF93EC01CB01BA010E9400D520E0CB
:1036400030E0A9010E9460DB0E94A9DC6883DF9161
:10365000CF9108950E9400D520E030E0A9010E949A
:1036600060DB0E94A4DCCB01ADCDCF93DF93EC01F6
:10367000CB01BA010E9400D520E030E0A9010E94F0
:1036800060DB0E94A4DC79836883DF91CF91089589
:103690000E9400D529EC38EC48EC5EE30E943CDC4B
:1036A00020E030E040E05FE30E9460DB0E94A9DCA4
:1036B000862FDFCDCF93DF93EC01CB01BA010E94BF
:1036C00000D529EC38EC48EC5EE30E943CDC20E0BD
:1036D00030E040E05FE30E9460DB0E94A9DC688389
:1036E000DF91CF910895CF93DF9300D01F92CDB794
:1036F000DEB70E94A9DC0E94FED469837A838B83A3
:103700009C83CE0101964DDB0F900F900F900F9090
:10371000DF91CF9108950E9400D52AE037ED43E272
:103720005DE30E943CDC20E030E0A9010E9460DB08
:10373000DACF8F929F92AF92BF92CF92DF92EF92A9
:10374000FF92CF936B017C0120E030E0A9010E9441
:10375000FAD487FDA4C067E177EB81E598E3A70180
:1037600096010E9460DB6B017C0120E030E0A90142
:103770000E94FAD487FF98C0C701B601905820E094
:1037800030E048EC52E40E945FD520E030E040EAAF
:1037900050E40E9460DB20E030E040E251E40E940F
:1037A0003CDC0E94A4DC6B017C0180E280930C0570
:1037B00060E280E1C81687E2D806E104F1048CF0EB
:1037C000C701B60120E137E240E050E00E946DDE23
:1037D000CA01B9012AE030E040E050E00E946DDE0D
:1037E000605D60930D0560E288EEC81683E0D80640
:1037F000E104F1048CF0C701B60128EE33E040E0AB
:1038000050E00E946DDECA01B9012AE030E040E0DC
:1038100050E00E946DDE605D60930E0560E284E61C
:10382000C816D104E104F1048CF0C701B60124E606
:1038300030E040E050E00E946DDECA01B9012AE0AC
:1038400030E040E050E00E946DDE605D60930F0567
:103850008AE0882E912CA12CB12CC701B601A501BC
:1038600094010E946DDEC62FCA01B901A501940121
:103870000E946DDE605D609310058EE280931105FD
:10388000C05DC09312058CE095E0CF91FF90EF9062
:10389000DF90CF90BF90AF909F908F90089567E199
:1038A00077EB81E598EB5BCF20E030E048EC52E429
:1038B000C701B60168CF0E9400D520E030E040E2A9
:1038C00051E40E943CDC20E030E0A9010E9460DB72
:1038D00030CFCF92DF92EF92FF92CF93DF9300D061
:1038E0001F92CDB7DEB76B017C0120E030E0A9016B
:1038F0000E94FAD487FD1AC067E177EB81E598E36F
:10390000A70196010E9460DB69837A838B839C8385
:10391000CE01019646DA0F900F900F900F90DF9135
:10392000CF91FF90EF90DF90CF90089567E177EB14
:1039300081E598EBE5CF0E9400D520E030E0A901B9
:103940000E9460DBC6CF0E9400D52AE037ED43E23B
:103950005DE30E943CDC20E030E0A9010E9460DBD6
:10396000B8CFCF92DF92EF92FF92CF93DF9300D048
:103970001F92CDB7DEB76B017C0120E030E0A901DA
:103980000E94FAD487FD1BC067E177EB81E598E3DD
:10399000A70196010E9460DB69837A838B839C83F5
:1039A00060E2CE01019683DA0F900F900F900F9096
:1039B000DF91CF91FF90EF90DF90CF90089567E176
:1039C00077EB81E598EBE4CF0E9400D520E030E072
:1039D0004AE754E40E943CDC20E030E0A9010E9468
:1039E00060DBBFCF8F929F92AF92BF92CF92DF9258
:1039F000EF92FF92CF936B017C0120E030E0A901B0
:103A00000E94FAD487FF9DC067E177EB81E598EBD0
:103A1000A70196010E9460DB6B017C0120E030E091
:103A20004AE754E40E945FD54B015C0120E030E09E
:103A300040E251ECC701B6010E94FAD4181654F4C2
:103A400020E030E048EC52E4C701B6010E9486DD78
:103A500087FD8BC020E030E0A901C701B6010E94BC
:103A6000FAD487FF73C060E070E080EA90ECA501B3
:103A700094010E9460DB20E030E040E251E40E94CB
:103A80003CDC0E94A4DC6B017C01F7FC64C020E1FB
:103A900037E240E050E00E946DDECA01B9012AE041
:103AA00030E040E050E00E946DDE605D60930D0507
:103AB000C701B60128EE33E040E050E00E946DDE21
:103AC0009AE0892E912CA12CB12CCA01B901A50133
:103AD00094010E946DDE605D60930E05C701B60122
:103AE00024E630E040E050E00E946DDECA01B901FA
:103AF000A50194010E946DDE605D60930F058EE26A
:103B000080931005C701B601A50194010E946DDEE6
:103B1000C62FCA01B901A50194010E946DDE605D46
:103B200060931105C05DC09312058DE095E0CF91C3
:103B3000FF90EF90DF90CF90BF90AF909F908F90CD
:103B4000089567E177EB81E598E362CF60E070E08C
:103B500080EA90E48CCFF094E094D094C094C11C9F
:103B6000D11CE11CF11C6DE2A1CF20E030E0A901E5
:103B7000C701B6010E94FAD487FF6AC060E070E016
:103B800080EA90ECA50194010E9460DB20E030E027
:103B900040E251E40E943CDC0E94A4DC4B015C0149
:103BA00020E030E0A901C701B6010E9486DD87FD53
:103BB0000BC020E030E040E251E4C701B6010E94B2
:103BC000FAD460E287FD13C0B7FC47C0C501B40159
:103BD00028EE33E040E050E00E946DDECA01B901FA
:103BE0002AE030E040E050E00E946DDE605D6093CE
:103BF0000E05C501B40124E630E040E050E00E942B
:103C00006DDE8AE0C82ED12CE12CF12CCA01B9015D
:103C1000A70196010E946DDE605D60930F058EE244
:103C200080931005C501B401A70196010E946DDEC5
:103C3000C62FCA01B901A70196010E946DDE605D21
:103C400060931105C05DC09312058EE095E06FCFC3
:103C500060E070E080EA90E495CFB094A0949094F6
:103C60008094811C911CA11CB11C6DE2C0CF0E94EC
:103C700000D520E030E048EC52E40E943CDC20E03B
:103C800030E0A9010E9460DBADCECF92DF92EF92CF
:103C9000FF926B017C0120E030E0A9010E94FAD480
:103CA00087FD25C067E177EB81E598E3A7019601E1
:103CB0000E9460DB6B017C0120E030E0A9010E94E2
:103CC000FAD420E030E040E05FE387FF04C020E06A
:103CD00030E040E05FEBC701B6010E9460DB0E946C
:103CE000A4DCCB01FF90EF90DF90CF906BCA67E12F
:103CF00077EB81E598EBDACF0E9400D520E030E049
:103D0000A9010E9460DBC1CFFC0184910895FC01F0
:103D10008081089511989091020187FD909591708E
:103D2000909300010000000000000000119A0000C4
:103D300000000000000011989091020186FD90950E
:103D40009170909300010000000000000000119AA3
:103D5000000000000000000011989091020185FD14
:103D60009095917090930001000000000000000009
:103D7000119A0000000000000000119890910201CB
:103D800084FD909591709093000100000000000068
:103D90000000119A000000000000000011989091AE
:103DA000020183FD90959170909300010000000046
:103DB00000000000119A00000000000000001198AF
:103DC0009091020182FD9095917090930001000006
:103DD000000000000000119A000000000000000038
:103DE00011989091020181FD90959170909300013E
:103DF0000000000000000000119A00000000000018
:103E000000001198809102018170809300010000F0
:103E1000000000000000119A0000000000000000F7
:103E20000895089590E080E00895282F9091C203AE
:103E3000833021F495FD0FC094FD0FC0892F90E0D1
:103E4000B0E0A0E004C0B695A795979587952A9510
:103E5000D2F78170089581E0089580E00895CF93AE
:103E6000DF93CAE6D5E020E030E0A90168817981DE
:103E70008A819B810E94FAD481111FC020E030E02A
:103E8000A9016C817D818E819F810E94FAD481116C
:103E900014C020E030E0A901688579858A859B857A
:103EA0000E94FAD4811109C02C9685E0CE38D8073B
:103EB000D1F680E0DF91CF91089581E0FBCF129A97
:103EC00008950F931F9380918307813019F50E9405
:103ED00084AF009118051091190520911A053091B1
:103EE0001B05601B710B820B930B28EE33E040E047
:103EF00050E00E9424DB60911405709115058091BB
:103F0000160590911705620F731F841F951F1F914F
:103F10000F91089560911C0570911D0580911E05FB
:103F200090911F05D6CF809183078150823070F425
:103F3000109283070E9484AF60931C0570931D0547
:103F400080931E0590931F0581E0089580E00895F9
:103F50000F931F930E9484AF0091B80D1091B90D7B
:103F60002091BA0D3091BB0D0115110521053105C8
:103F7000D9F52091BE0D2223A1F1E091BC0D215075
:103F80002093BE0D21E02E0F2093BC0D3091BF0D6C
:103F9000231302C01092BC0D24E0E29FF001112413
:103FA000E054F24F00811181228133810093B40DDE
:103FB0001093B50D2093B60D3093B70D600F711FA0
:103FC000811D911D6093B80D7093B90D8093BA0D4A
:103FD0009093BB0D8091B60D9091B70D892B09F090
:103FE000409A1F910F910895601B710B820B930BE8
:103FF00097FDF7CF40981092B80D1092B90D10921E
:10400000BA0D1092BB0DEDCFCF92DF92EF92FF92DF
:10401000CF93C82F0E9484AF6B017C0124EA30E764
:104020004DE75FE36091A6047091A7048091A80416
:104030009091A9040E94FAD487FD18C08AEF90E0FD
:10404000A0E0B0E08C0D9D1DAE1DBF1D8093C70488
:104050009093C804A093C904B093CA04C093080203
:10406000CF91FF90EF90DF90CF90089580E090E0A7
:10407000DC01E8CF0F931F93CF93DF938C01EB010B
:104080009091BE0D2091BF0D921304C061DF0E947C
:10409000EAB8F6CF8091BD0D34E0839FF001112482
:1040A000E054F24F11830083D383C2839F5F9093C8
:1040B000BE0D8F5F281739F08093BD0DDF91CF9132
:1040C0001F910F9108951092BD0DF8CF63E972E032
:1040D00084E690E0CFDF6AEB72E084E690E0CACF3E
:1040E0008111F4CF68EB71E084E190E0C3CF0C94D0
:1040F0008BC80C948BC80C948BC80C948BC80C94F4
:104100008AC50C948AC50C948AC50C948AC5CF9331
:10411000DF93FC0101900020E9F73197EF01C81B04
:10412000D90BCB32D1052CF02291207C2038E1F341
:10413000F5CFDD27AE01BC0181EE94E00E94C7DE21
:10414000CF51DB4F1882DF91CF910895CF93DF934A
:10415000CDB7DEB720E2488559856F818E810E94F8
:10416000A2A9DF91CF9108950C9490AF0C9490AFD9
:104170006CE17BE383E00C9453C967EC7CE382E061
:104180000C9453C96BEC7CE381E00C9453C96FEC45
:104190007CE380E00C9453C980915C02882331F069
:1041A00041E06AEA7EE081E00E9464A980916307B1
:1041B00010926307882319F01092A30461C908952F
:1041C00080915C02882331F041E069EB7EE082E07F
:1041D0000E9464A9809149058770873039F420E0F6
:1041E00040E070E060E08CEC90E2DEC80895EF9271
:1041F000FF920F931F9384E5E82E8EE0F82E06E5DC
:104200001EE020E535E34FE25AE262E67EE087E613
:104210009EE00E9405B21F910F91FF90EF900895CC
:10422000EF92FF920F931F9387EDE82E8DE0F82E0B
:104230000AEE1DE029E939E142E15CE669ED7DE045
:1042400080EE9DE00E9405B21F910F91FF90EF90CC
:104250000895AF92BF92CF92DF92EF92FF920F93A9
:104260001F93CF93DF936B01E9014A3009F4B6C085
:10427000453109F06BC0DB011296ED91FC91F280A3
:10428000C681D78180910201809582708093000160
:1042900088E28A950000E9F7BF2CB29420EFB222A1
:1042A00030E1A32EAF0C48E2E42E88EF33DD8E2DF3
:1042B0008A950000E9F7BFE1BF1508F47EC08F2D95
:1042C0008077806827DD8B2D25DD8E2D8A95000077
:1042D000E9F780E81FDD80E01DDD8E2D8A95000066
:1042E000E9F78AEF17DD8E2D8A950000E9F78E0138
:1042F000005F1F4F8881807F0DDD89918295807FCF
:1043000009DDC017D107B1F78E2D8A950000E9F7B6
:10431000F394E0E1BE0EFA10C8CF809102018270E2
:1043200080930001D6011296CD91DC91CE010E94BE
:104330005FB08111DBC1DF91CF911F910F91FF9091
:10434000EF90DF90CF90BF90AF900895FB01028176
:104350001381423309F485C108F489C1463409F454
:1043600076C1473409F479C14B3329F589812B8112
:10437000D80112966C91129713964C91213009F442
:10438000CCC1233009F096C138EF380F582F91E097
:10439000431708F490E041E0531708F040E031E0A3
:1043A000561708F430E0592F542B352309F0AAC1D1
:1043B000942309F0A7C181E0BECF80EE8F0D806805
:1043C000807FA8DC8F2D8295807FA4DC8E2D8A953E
:1043D0000000E9F780E89EDC80E87ECF8091010153
:1043E00082608093010180910201827080930001BC
:1043F00080910101816080930101809102018170AF
:1044000080930001099A119A80910201809582702F
:104410008093000188E28A950000E9F788E790E040
:10442000CEE9DFE0FE013197F1F70197D9F788EF88
:1044300071DC18E2812F8A950000E9F780E26ADCDE
:1044400080E068DC812F8A950000E9F780E062DC7B
:1044500080E860DC812F8A950000E9F780E05ADC73
:1044600080E158DC812F8A950000E9F7CE010197A1
:10447000F1F7CE010197F1F7CE010197F1F7CE01E7
:104480000197F1F7CE010197F1F7CE010197F1F70E
:10449000CE010197F1F7CE010197F1F7CE01019717
:1044A000F1F7CE010197F1F7CE010197F1F7CE01B7
:1044B0000197F1F7CE010197F1F7CE010197F1F7DE
:1044C0002197F1F780E226DC80E424DC812F8A95B5
:1044D0000000E9F780E21EDC80E61CDC1A95000093
:1044E000E9F700E010E0D8E2812F8077806812DCE5
:1044F000802F10DC8D2F8A950000E9F780E80ADC18
:1045000080E008DC8D2F8A950000E9F78AEF02DC55
:104510008D2F8A950000E9F7C0E211988091020181
:104520008170809300010000000000000000119ADB
:1045300000000000000000001198809102018170CD
:10454000809300010000000000000000119A0000AC
:10455000000000000000119880910201817080939A
:1045600000010000000000000000119A000000009F
:104570000000000011988091020181708093000179
:104580000000000000000000119A00000000000080
:104590000000119880910201817080930001000059
:1045A000000000000000119A000000000000000060
:1045B0001198809102018170809300010000000039
:1045C00000000000119A0000000000000000119897
:1045D00080910201817080930001000000000000C2
:1045E0000000119A00000000000000001198809166
:1045F00002018170809300010000000000000000B3
:10460000119A000000000000000080E083DB8D2F85
:104610008A950000E9F7C15009F07FCF88EF7ADB77
:104620008D2F8A950000E9F71F5F005F103209F0B7
:104630005BCF80E06FDB80EC6DDBDA950000E9F7A3
:104640008091020182708093000181E074CED801D4
:1046500015968C91888381E06ECEF80181818883E4
:10466000FACFB901C8010E9449B081E064CE44315B
:1046700071F0473109F09FCE1882F8018281898359
:10468000858181508A8383818B8381E054CED801D8
:1046900015964C91159750E0440F551F70E060E05F
:1046A00016968D919C910E9497DEC8010E9475B06C
:1046B00081E041CE481708F47ECE861708F47BCE01
:1046C000FA80E12CD12C243070F41DC0BE01C80149
:1046D0000E9449B0898198819D0D98838E0D8983B0
:1046E000FF0C09F468CEF7FEF6CFF0CF4D8150E015
:1046F000440F551F70E060E08E819F810E9497DE1D
:1047000081E019CEFA8030E0F901E651FD4FD0800A
:104710002A513D4FF901E080E6CF58E0580F382F7D
:1047200036CEDF92EF92FF920F931F93CF93DF93DA
:10473000EC01D62E1CAD0BAD7C0184E0E80EF11C23
:10474000E98DFA8DC7011995412F480F2D2D602F46
:10475000C7010E94B6B49BAD890F8BAF81E090E09A
:10476000DF91CF911F910F91FF90EF90DF9008950F
:104770008F929F92AF92BF92CF92DF92EF92FF9271
:104780000F931F93CF93DF93EC018B017A018A85FE
:104790009B858617970731F0888199810E9490B395
:1047A0001B870A8788859985019641F50C81DA80F7
:1047B0008E81D80EA880B980D5015596ED91FC91D7
:1047C000C5011995080F10E0F70121917F01211112
:1047D0004FC08E819F81810F911D9F838E8390E0BA
:1047E00080E0DF91CF911F910F91FF90EF90DF90CC
:1047F000CF90BF90AF909F908F900895CE80DF8034
:10480000F701008110E0002321F1A880B980602F1A
:10481000C5010E94E8B3D50151961C91119547013D
:10482000BFEF8B1A9B0AF40181914F01882351F04D
:10483000D50150969C91190F082F682FC5010E9431
:10484000E8B3F1CF003281F0F50183899189890FB6
:10485000180FC10ED11C288539852C153D0508F08F
:10486000A5CF81E090E0BDCFD50150968C91F0CFDF
:10487000402F6D2DC5010E94B6B4D80E180FA4CFDD
:10488000EF92FF920F931F93CF93DF93CDB7DEB7D5
:104890002C970FB6F894DEBF0FBECDBF10910D0E52
:1048A00000910E0E2091AE0421111BC04CEA5CE079
:1048B000602F812F0E9420B590E080E0180F1093A8
:1048C0000D0E00930E0E99272C960FB6F894DEBFAE
:1048D0000FBECDBFDF91CF911F910F91FF90EF9051
:1048E0000895E090DA0DF090DB0D26ED3DE03A837F
:1048F0002983212F30E03C832B83202F30E03E831F
:104900002D8318861F827A8769871C861B869E01E5
:104910002F5F3F4F44E85EE1BC01C7010E94A597AD
:10492000B70186ED9DE00E9490B38F819885C6CF38
:10493000EF92FF920F931F93CF93DF93CDB7DEB724
:104940002C970FB6F894DEBF0FBECDBF10910D0EA1
:1049500000910E0E2091AE0421111BC04CE85CE0CA
:10496000602F812F0E9420B590E080E0180F1093F7
:104970000D0E00930E0E99272C960FB6F894DEBFFD
:104980000FBECDBFDF91CF911F910F91FF90EF90A0
:104990000895E090DA0DF090DB0D26ED3DE03A83CE
:1049A0002983212F30E03C832B83202F30E03E836E
:1049B0002D8318861F827A8769871C861B869E0135
:1049C0002F5F3F4F47E85EE1BC01C7010E94A597FA
:1049D000B70186ED9DE00E9490B38F819885C6CF88
:1049E0008091B0039091B103009731F04AE050E01C
:1049F00070E060E00C942DD360E070E0CB0108958E
:104A00008091B0039091B103009731F04AE050E0FB
:104A100070E060E00C9400D260E070E0CB0108959B
:104A2000EFDFCB010895FF920F931F93CF93DF9396
:104A30001F92CDB7DEB7F82E05EA12E041E050E054
:104A4000B801CE0101960E9435D489818F1108C02A
:104A500081E00F90DF91CF911F910F91FF9008950A
:104A60000F5F1F4F82E00D3B180741F780E0F1CF49
:104A70008F929F92AF92BF92CF92DF92EF92FF926E
:104A80000F93CF93DF931F92CDB7DEB75C017B010D
:104A900049016B01C40ED51EF501808191810E94F0
:104AA000FFDA8983002311F0F7018083BE016F5F75
:104AB0007F4FC4010E946A96F50180819181019621
:104AC00091838083FFEFEF1AFF0AEC14FD0421F7B6
:104AD00080E00F90DF91CF910F91FF90EF90DF90EA
:104AE000CF90BF90AF909F908F9008954F925F921C
:104AF0006F927F928F929F92AF92BF92CF92DF92EE
:104B0000EF92FF920F931F93CF93DF93CDB7DEB752
:104B100068970FB6F894DEBF0FBECDBF8C015B0166
:104B20005A834983FC01EF5BFF4F60817181828171
:104B300093810E94FED46B017C01D5012D913D91A2
:104B40004D915C910E945FD50E9426DC2B013C01B7
:104B5000E981FA812081318142815381C701B60107
:104B60000E945FD50E9426DC4B015C01C301B201AB
:104B70000E94A9DC698B7A8B8B8B9C8B68377105C3
:104B80008105910540F428E730E040E050E0298BB2
:104B90003A8B4B8B5C8BC501B4010E94A9DC6D87FD
:104BA0007E878F87988B683771058105910540F462
:104BB00088E790E0A0E0B0E08D879E87AF87B88B54
:104BC000F801E35BFF4F20813181428153812983CA
:104BD0003A834B835C83CA01B9010E9400D52B0143
:104BE0003C0169897A898B899C890E94FED46987F6
:104BF0007A878B879C8720E030E0A901C301B2014E
:104C00000E94FAD4882309F43BC1A7019601C70189
:104C1000B6010E945FD54B015C0129853A854B8521
:104C20005C85CA01B9010E945FD59B01AC01C50139
:104C3000B4010E945FDB4B015C01A3019201C3013F
:104C4000B2010E9460DB9B01AC01C501B4010E946E
:104C50003CDC0E9426DC0E94A9DC6D837E838F836E
:104C6000988769817A818B819C81909580957095D8
:104C700061957F4F8F4F9F4F0E9400D54B015C0184
:104C80006D857E858F8598890E94FED469837A839D
:104C90008B839C8320E030E0A901C501B4010E9410
:104CA000FAD4882309F4F0C029813A814B815C81D0
:104CB000CA01B9010E945FD56D8B7E8B8F8B988F57
:104CC000A7019601C701B6010E945FD59B01AC0107
:104CD0006D897E898F89988D0E945FDB6B017C01D5
:104CE000A5019401C501B4010E9460DB9B01AC01E8
:104CF000C701B6010E943CDC0E94D5DCD801959624
:104D00008D909D90AD90BC909897750164012D8118
:104D10003E814F815885C21AD30AE40AF50A0E94DF
:104D2000A9DCC61AD70AE80AF90AF7FE6EC020E025
:104D300030E0A901C301B2010E94FAD4882309F42A
:104D4000A7C0C501B4010E94FED46B017C01A30180
:104D50009201C301B2010E9460DB9B01AC01C7015B
:104D6000B6010E945FD56B017C0129853A854B8590
:104D70005C85CA01B9010E945FD59B01AC01C701E6
:104D8000B6010E945FDB6B017C0129813A814B8176
:104D90005C81CA01B9010E945FD59B01AC01C701CA
:104DA000B6010E9460DB6B017C0120E030E040E84E
:104DB00050E4C301B2010E945FD59B01AC01C70161
:104DC000B6010E943CDC0E9426DC6B017C0120E0E5
:104DD00030E0A9010E9486DD18161CF0C12CD12CF0
:104DE0007601C701B6010E94A9DC6D837E838F83A3
:104DF000988786169706A806B90620F48D829E82AB
:104E0000AF82B886C12CD12C76018D819E81AF8175
:104E1000B885F80181A792A7A3A7B4A7C80ED91E89
:104E2000EA1EFB1EC5A6D6A6E7A6F0AAEB5BFF4FBF
:104E300029893A894B895C89208331834283538352
:104E400034968D859E85AF85B88980839183A283B2
:104E5000B38368960FB6F894DEBF0FBECDBFDF9167
:104E6000CF911F910F91FF90EF90DF90CF90BF9067
:104E7000AF909F908F907F906F905F904F9008952C
:104E800060E070E0CB01E5CE60E070E0CB0134CFB4
:104E900060E070E0CB0197CF0F931F938091A20D3C
:104EA0009091A30D891B8F7009F449C090919F0DBB
:104EB000992361F0833040F48FEF890F29F08093BC
:104EC0009F0D90E080E038C010929F0D8091A30D5F
:104ED00026E5829FC00111248A54984FFC0120814D
:104EE00020FDEFCF40919C0750919D0760919E0758
:104EF00070919F07EE5AFF4F00811181228133810B
:104F0000401B510B620B730B40939C0750939D0702
:104F100060939E0770939F072091A30D2F5F2F70C2
:104F20002093A00D3091A30D2091A10D321304C048
:104F30002091A00D2093A10D1F910F9108950E9423
:104F40007CC5BFCF2F923F924F925F926F927F921C
:104F50008F929F92AF92BF92CF92DF92EF92FF9289
:104F60000F931F93CF93DF93CDB7DEB762970FB642
:104F7000F894DEBF0FBECDBF788B6F87DC018D90BC
:104F80009D90AD90BC90139714962D913D914D91AD
:104F90005C9117972D833E834F83588720E030E044
:104FA00040E251E4C501B4010E945FDB21EC3FE027
:104FB0004CE75CE30E945FD50E94A4DC16160CF05F
:104FC00024C161E0E62E660FFF08F701EE0FFF1F18
:104FD000EE0FFF1FE05EF14F4080518062807380D2
:104FE00087010F5F1F4F20E030E040E251E46D8108
:104FF0007E818F8198850E945FDB21EC3FE04CE74A
:105000005CE30E945FD50E94A4DC16160CF001C17F
:1050100061E0E62F660FFF0BFA8BE98BEE0FFF1FA7
:10502000EE0FFF1FE05EF14F2081318142815381FD
:1050300029833A834B835C8329883A883FEF231A7C
:10504000330AB701660F771FAB014E0D5F1D5A87FC
:105050004987FA0189899A89E80FF91FEE0FFF1F26
:10506000EE0FFF1FE659FA4FC080D180E280F38037
:10507000F801EE0FFF1FEE0FFF1FE05EF14FA301DF
:10508000920160817181828193810E945FDB6B87D5
:105090007C878D879E87A3019201C501B4010E9480
:1050A0005FDB2B013C01C801880F991F080F191FF6
:1050B000A989BA89A00FB11FAA0FBB1FAA0FBB1FD6
:1050C000A659BA4FA70196016D917D918D919C9142
:1050D0000E945FDB2B853C854D855E850E943CDC14
:1050E000A30192010E945FD5A70196010E9460DB97
:1050F0006B017C01E985FA85E20DF31DEE0FFF1FC0
:10510000EE0FFF1FE659FA4F80809180A280B38096
:10511000020D131DF801EE0FFF1FEE0FFF1FE659E2
:10512000FA4FA501940160817181828193810E946F
:105130005FDB2B853C854D855E850E943CDCA301B1
:1051400092010E945FD5A50194010E9460DBA70136
:1051500096010E945FDB4B015C01F101EE0FFF1F26
:10516000EE0FFF1FE05EF14F29813A814B815C8198
:1051700060817181828193810E945FDB9B01AC0120
:10518000C501B4010E943CDC4B015C0129813A81DC
:105190004B815C816D817E818F8198850E945FDB70
:1051A0009B01AC01C501B4010E945FD5A701960126
:1051B0000E9460DBEF85F889208131814281538133
:1051C0000E945FD520916605309167054091680582
:1051D000509169050E9460DB62960FB6F894DEBFBD
:1051E0000FBECDBFDF91CF911F910F91FF90EF9038
:1051F000DF90CF90BF90AF909F908F907F906F90F7
:105200005F904F903F902F90089567FFDBCE60E056
:10521000D9CE67FFFECE60E0FCCE90916F0081E0BA
:1052200091FD02C080E0089590916F009D7F909362
:105230006F000895EFE6F0E080818260808308953A
:10524000CF92DF92EF92FF92CF93DF93C82FE5DFEB
:1052500094E0C99FE0011124FE01E756FA4FC08097
:10526000D180E280F3808111E5DFCF55D84FC701AF
:10527000B6010E9400D5288139814A815B810E9454
:105280005FD5DF91CF91FF90EF90DF90CF900895A1
:10529000CF93DF93CDB7DEB72C970FB6F894DEBF70
:1052A0000FBECDBF0E948096B8DF9CE0E5EAF5E036
:1052B000DE01119601900D929A95E1F78111BADF06
:1052C000CE0101960E941EBC2C960FB6F894DEBF4C
:1052D0000FBECDBFDF91CF9108958F929F92AF9275
:1052E000BF92CF92DF92EF92FF92CF93DF93EC01C8
:1052F0008090620590906305A0906405B09065056C
:1053000020E030E0A901C501B4010E94FAD488234D
:1053100009F452C0C880D980EA80FB80A7019601B9
:10532000C501B4010E94FAD418160CF04AC02091AD
:105330005E0530915F054091600550916105C701A0
:10534000B6010E94FAD4882321F1C0925E05D09262
:105350005F05E0926005F092610520915A05309159
:105360005B0540915C0550915D05C701B6010E9447
:105370005FD59B01AC0160E070E080E89FE30E9494
:105380005FDB6093290270932A0280932B02909333
:105390002C026091290270912A0280912B02909137
:1053A0002C02DF91CF91FF90EF90DF90CF90BF90D4
:1053B000AF909F908F90089560E070E080E89FE349
:1053C000F0CF60E070E0CB01ECCF0F931F93CF9351
:1053D000DF9300D01F92CDB7DEB72091670D222357
:1053E000D1F08C01089679DF69837A838B839C8363
:1053F000BE016F5F7F4FC801A5DD9B01AC01F801C5
:1054000060857185828593850E9460DBF8016087E5
:105410007187828793870F900F900F900F90DF9185
:10542000CF911F910F910895CF92DF92EF92FF924B
:105430000F931F93C12CD12C76018C012FE83DE0F6
:105440004BE85DE067E87DE083E89DE00E94A1A86D
:105450001F910F91FF90EF90DF90CF90089580E023
:1054600090E0A0E8B0E480938B0D90938C0DA09316
:105470008D0DB0938E0D86E093E0D6DF8091A00471
:105480008130B9F1C4F48823F9F08EEE92E0CCDFDC
:1054900010928B0D10928C0D10928D0D10928E0D1E
:1054A00086E093E0C1DF8091A0048F5F84309CF59B
:1054B0008093A0040895823049F1833031F780E071
:1054C00090E0A0EFB1E419C080E090E0A0EFB1E47B
:1054D0008093830D9093840DA093850DB093860DDA
:1054E0008093870D9093880DA093890DB0938A0DBA
:1054F000CCCF80E090E0A0EFB2E48093830D909356
:10550000840DA093850DB093860DBFCF80E090E011
:10551000A0EFB2E4E5CF1092A004089580915C0260
:10552000882331F041E069EB7EE082E00E9464A9CB
:10553000809149058770873071F41092A00420E0B3
:1055400040E070E060E087EF90E20E94D41981E0D3
:105550008093640784CF08950C9446C80E94D7C8EE
:10556000FBCF9091670D9817A1F00E9408C680911B
:10557000670D882331F083E89DE027DF1092670DE7
:10558000EBCF81E08093670D83E89DE00E941CC50E
:10559000F7CF08959091670D81E08927E2CF81E0F0
:1055A0008093CC048091BB058770873041F01092C6
:1055B000490581E590E19093CA058093C9058091E2
:1055C000670D8093A10480E0CCDF20E040E070E034
:1055D00060E08EE89AE20C94D4194F925F926F9239
:1055E0007F928F929F92AF92BF92CF92DF92EF9273
:1055F000FF92CF936B017C01C42FAC019B016091A2
:1056000062057091630580916405909165050E9423
:10561000FAD4882309F4A4C0B090670D80E0A1DF1C
:1056200020E030E0A901C701B6010E9486DD18160E
:105630001CF0C12CD12C7601C0926205D09263057A
:10564000E0926405F09265052DEB37E346E855EBF3
:10565000C701B6010E9486DD87FD0BC02DEB37E345
:1056600046E855E3C701B6010E94FAD418160CF0BB
:1056700073C0A701960160E070E080E89FE30E949C
:105680003CDC60935A0570935B0580935C059093B6
:105690005D0580EF9FEFA9E7B4EC80935E059093E2
:1056A0005F05A0936005B0936105BB2009F458C065
:1056B0004090830D5090840D6090850D7090860D04
:1056C0008090870D9090880DA090890DB0908A0DE4
:1056D000C0908B0DD0908C0DE0908D0DF0908E0DC4
:1056E00081E03FDFCC23E1F12091830D3091840DE7
:1056F0004091850D5091860DC301B2010E94FAD4EC
:1057000081111CC02091870D3091880D4091890D29
:1057100050918A0DC501B4010E94FAD481110EC0C6
:1057200020918B0D30918C0D40918D0D50918E0DEF
:10573000C701B6010E94FAD4882391F0CF91FF905F
:10574000EF90DF90CF90BF90AF909F908F907F9021
:105750006F905F904F909CCD60E070E0CB0191CF57
:10576000CF91FF90EF90DF90CF90BF90AF909F9040
:105770008F907F906F905F904F9008954F925F92BF
:105780006F927F928F929F92AF92BF92CF92DF9251
:10579000EF92FF920F931F93CF93DF9300D000D02F
:1057A000CDB7DEB78090830D9090840DA090850DCD
:1057B000B090860DC090870DD090880DE090890D37
:1057C000F0908A0D80918B0D90918C0DA0918D0D94
:1057D000B0918E0D89839A83AB83BC830E948AC566
:1057E0000E94A9150FEF11E1AAE0B2E0BE83AD83DC
:1057F00083EF682E81E1782E512C852D0E941016A2
:10580000F80185919591A591B491ED81FE818193E7
:105810009193A193B193FE83ED83F30185919591CB
:10582000A591B491ED81FE8180879187A287B3878E
:1058300053940C5F1F4FF4E06F0E711C83E05812FD
:10584000DCCF60912E0570912F05809130059091ED
:10585000310540E0C2DE23EF34E045E35FE36091D1
:1058600084077091850780918607909187070E9431
:105870005FD52B013C016091250D7091260D809123
:10588000270D9091280D0E94FED49B01AC01C3010D
:10589000B2010E945FD529E732E84AE550E40E9450
:1058A0005FD50E94CCDD6093980770939907809331
:1058B0009A0790939B070E948BC8A5019401609161
:1058C000830D7091840D8091850D9091860D0E94BD
:1058D000FAD481111EC0A70196016091870D7091C5
:1058E000880D8091890D90918A0D0E94FAD48111C2
:1058F00010C020918B0D30918C0D40918D0D5091E9
:105900008E0D69817A818B819C810E94FAD48823D3
:10591000B9F026960FB6F894DEBF0FBECDBFDF916B
:10592000CF911F910F91FF90EF90DF90CF90BF909C
:10593000AF909F908F907F906F905F904F90A8CC8A
:1059400026960FB6F894DEBF0FBECDBFDF91CF9184
:105950001F910F91FF90EF90DF90CF90BF90AF908D
:105960009F908F907F906F905F904F90089560917F
:10597000AA047091AB048091AC049091AD0441E015
:105980002CCECF934ADCC82F8091A30D8093A20D1B
:105990008093A10D8093A00D84E680939F0D0E94BB
:1059A0007CC588EE93E09093170D8093160DC1117E
:1059B00041DC81E0809398050E9408C60E94D7C808
:1059C000CF91CACD80913C05659955C08160809387
:1059D0003C059091030180913C0591FD4EC0826091
:1059E00080933C0580913C054B9949C0846080932D
:1059F0003C058091970580FF10C08091BA0580FF1B
:105A00000CC080913C0580FF08C080914D078160EB
:105A100080934D0780E00E9452BC80919705869547
:105A200080FF11C08091BA05869580FF0CC08091DF
:105A30003C0581FF08C080914D07826080934D072F
:105A400081E00E9452BC809197058695869580FFE3
:105A500018C08091BA058695869580FF12C0809106
:105A60003C0582FF0EC080914D07846080934D07F6
:105A700082E00C9452BC8E7FAACF8D7FB1CF8B7FFA
:105A8000B6CF089510928307109218051092190549
:105A900010921A0510921B0510921C0510921D05FC
:105AA00010921E0510921F051092140510921505F4
:105AB0001092160510921705089580918307813082
:105AC000E9F08230C9F40E94611F6093140570935D
:105AD0001505809316059093170581E08093830741
