:100000000C9477130C94A8130C94A8130C94A813B5
:100010000C94A8130C94A8130C94A8130C94A81374
:100020000C94A8130C94A8130C94A8130C94A81364
:100030000C94A8130C94A8130C94A8130C94A81354
:100040000C94A8130C9492250C94A8130C94A81348
:100050000C94A8130C94A8130C9432220C942589A8
:100060000C94A8130C9401710C94F7700C94A813C1
:100070000C94A8130C94A8130C94A8130C94A81314
:100080000C94A8130C94A8130C94A8130C94A81304
:100090000C94A8130C94A8130C94A8130C94A813F4
:1000A0000C94A8130C94A8130C94A8130C94A813E4
:1000B0000C94A8130C94A8130C94A8130C94A813D4
:1000C0000C94A8130C94A8130C94A8130C94A813C4
:1000D0000C94A8130C94A8130C94A8130C94A813B4
:1000E0000C94A813084AD73B3BCE016E84BCBFFDDD
:1000F000C12F3D6C74319ABD56833DDA3D00C77FF8
:1001000011BED9E4BB4C3E916BAAAABE0000008090
:100110003F05A84CCDB2D44EB93836A9020C50B91F
:10012000918688083CA6AAAA2ABE000000803F004B
:100130004E414E494E495459494E46CDCCCC3D0ACC
:10014000D7233C17B7D13877CC2B329595E6241FAF
:10015000B14F0A000020410000C84200401C462068
:10016000BCBE4CCA1B0E5AAEC59D7400407A10F33B
:100170005A00A0724E18090010A5D4E80000E876D5
:1001800048170000E40B54020000CA9A3B0000002C
:10019000E1F505000080969800000040420F000045
:1001A00000A08601000000102700000000E8030006
:1001B0000000006400000000000A000000000001D0
:1001C00000000000002C76D888DC674F0823DFC1D0
:1001D000DFAE59E1B1B796E5E3E453C63AE651998B
:1001E0007696E8E6C28426EB898C9B62ED407C6FB4
:1001F000FCEFBC9C9F40F2BAA56FA5F490055A2A6B
:10020000F75C936B6CF9676DC11BFCE0E40D47FE76
:10021000F520E6B500D0ED902E030094357705006B
:1002200080841E080000204E0A000000C80C3333F2
:1002300033330F986E12831141EF8D2114893BE601
:100240005516CFFEE6DB18D1844B381BF77C1D908A
:100250001DA4BBE424203284725E228100C9F124F3
:10026000ECA1E53D274572726F722077726974695F
:100270006E6720746F20454550524F4D210A00365D
:100280003726033C3D380E2E303E121A1C18084407
:100290000AFF43090001627573793A207061757332
:1002A000656420666F7220696E7075740A006275ED
:1002B00073793A2070617573656420666F7220757A
:1002C0007365720A00627573793A2070726F6365A4
:1002D0007373696E670A0053544F505045442E2083
:1002E000005072696E7465722073746F707065640B
:1002F0002064756520746F206572726F72732E2092
:1003000046697820746865206572726F7220616E2C
:100310006420757365204D39393920746F207265FA
:1003200073746172742E202854656D7065726174E7
:100330007572652069732072657365742E2053652C
:1003400074206974206166746572207265737461CB
:100350007274696E67290A004E6F20436865636B8B
:1003600073756D2077697468206C696E65206E7591
:100370006D6265722C204C617374204C696E653A15
:100380002000636865636B73756D206D69736D61C3
:100390007463682C204C617374204C696E653A203C
:1003A000004C696E65204E756D6265722069732020
:1003B0006E6F74204C617374204C696E65204E75AD
:1003C0006D6265722B312C204C617374204C696E08
:1003D000653A20004D313130002121204B494C4CF1
:1003E00020636175736564206279204B494C4C2011
:1003F000627574746F6E2F70696E0A002121204B34
:10040000494C4C2063617573656420627920746F78
:100410006F206D75636820696E616374697665200D
:1004200074696D65202D2063757272656E7420632A
:100430006F6D6D616E643A2000506C65617365206C
:100440005265736574005052494E544552204841DC
:100450004C5445440025533A202553004B494C4CFD
:1004600045442E20005072696E7465722068616C7C
:100470007465642E206B696C6C28292063616C6C38
:100480006564210A006563686F3A004572726F7295
:100490003A0020496E76616C6964206578747275E3
:1004A00064657220004361703A00526573656E6442
:1004B0003A20004572723A207574663820666F6E75
:1004C00074206E6F7420696E697469616C697A65F5
:1004D000642E004572723A207574663820666F6E1D
:1004E00074206E6F7420696E697469616C697A65D5
:1004F000642E004572723A207574663820666F6EFD
:1005000074206E6F7420696E697469616C697A65B4
:10051000642E0046696C2E204469612E00452069D6
:100520006E206D6DC2B30020082046616374002008
:1005300008204D6178002008204D696E004F6666E6
:10054000004F6E004175746F74656D700056547283
:100550006176204D696E00566D696E00566D61784A
:10056000204500566D6178205A00566D61782059FB
:1005700000566D6178205800416D6178204500413A
:100580006D6178205A00416D6178205900416D619C
:1005900078205800412D54726176656C00412D52CF
:1005A00065747261637400416363656C004A756EC3
:1005B0006374696F6E20446576004573746570736B
:1005C0002F6D6D005A73746570732F6D6D005973C4
:1005D000746570732F6D6D005873746570732F6D33
:1005E0006D00416476616E6365642053657474695F
:1005F0006E6773003F0043616E63656C00496E690E
:1006000074004D34323800496E697469616C697ADE
:100610006520454550524F4D0046696C616D656ED1
:10062000740054656D706572617475726500537401
:100630006570732F6D6D004A65726B004163636571
:100640006C65726174696F6E0056656C6F63697476
:10065000790053657420486F6D65204F6666736539
:10066000747300436F6E66696775726174696F6E4B
:10067000004E6F7A7A6C650046616E205370656536
:100680006400436F6E66696775726174696F6E00AE
:100690004C6F61642053657474696E6773005265B2
:1006A00073746F72652044656661756C7473005372
:1006B000746F72652053657474696E67730050724D
:1006C00065686561742041425320436F6E66005037
:1006D00072656865617420504C4120436F6E6600FE
:1006E000416476616E6365642053657474696E67F6
:1006F00073004D61696E00436F6E66696775726164
:1007000074696F6E0054656D7065726174757265A1
:10071000004D6F74696F6E0054756E6500496E66AA
:100720006F2053637265656E004D6F74696F6E0064
:100730004D38340044697361626C65205374657090
:1007400070657273004732385A00486F6D65205AE1
:10075000004732385900486F6D65205900473238DC
:100760005800486F6D652058004732380041757455
:100770006F20486F6D65004D61696E00436F6F6C4F
:10078000646F776E005072656865617420414253F2
:10079000005072656865617420504C410046616E7E
:1007A000205370656564004E6F7A7A6C65004D6108
:1007B000696E00466C6F770046616E205370656508
:1007C00064004E6F7A7A6C65005370656564004D05
:1007D00061696E0020202020202020002020202081
:1007E000001FE020102010201010201020201020CA
:1007F0001030300840048003001FE03FF03FF03F1E
:10080000F01FE01FE03FF03FF03FF00FC007800314
:10081000003FFFF038007030FC3020FC10207810D2
:100820002030102C00D02E31D02F7BD02F7BD02E1B
:1008300031D02C00D020301020781020FC1030FC5B
:10084000303800703FFFF03FFFF0380070318630E5
:100850002387102787902F87D02F03D02030102098
:1008600078102078102030102F03D02F87D02787C2
:10087000902387103186303800703FFFF00000165B
:100880004300001643000048430000000000000041
:100890000000000000290A002062797465733B2083
:1008A000637263200053657474696E6773205374B8
:1008B0006F726564202800454550524F4D20646199
:1008C000746173697A65206572726F722E0A0029ED
:1008D0000A002062797465733B20637263200020F4
:1008E00073746F7265642073657474696E677320C6
:1008F0007265747269657665642028004572723A83
:1009000020454550524F4D204352430020286361FB
:100910006C63756C6174656429210A0020213D2097
:1009200000454550524F4D20435243206D69736D31
:1009300061746368202D202873746F7265642920A8
:10094000004572723A20454550524F4D20496E6421
:100950006578002053697A653A2000496E646578AD
:100960003A20004572723A20454550524F4D20566C
:10097000657273696F6E00204D61726C696E3D56D1
:100980003736290A00454550524F4D20766572731F
:10099000696F6E206D69736D6174636820284545C9
:1009A00050524F4D3D0048617264636F646564202E
:1009B00044656661756C742053657474696E677301
:1009C000204C6F616465640A000000964300009645
:1009D000430000A0400000C8410000A0420000A069
:1009E0004200007A4500003044B80B0000B80B000C
:1009F0000064000000102700003B2000204400207D
:100A0000490020204D33303120500050494420739C
:100A1000657474696E67733A0020460020420020B6
:100A2000480020204D3134352053004D61746572EB
:100A300069616C2068656174757020706172616DA8
:100A400065746572733A0020204D323036205800AC
:100A5000486F6D65206F66667365743A00204A00C2
:100A600020530020204D3230352042004164766111
:100A70006E6365643A20423C6D696E5F7365676DB5
:100A8000656E745F74696D655F75733E20533C6D70
:100A9000696E5F66656564726174653E20543C6D85
:100AA000696E5F74726176656C5F666565647261BC
:100AB00074653E204A3C6A756E635F6465763E00ED
:100AC00020520020204D32303420500041636365B5
:100AD0006C65726174696F6E2028756E6974732F0E
:100AE0007332293A20503C7072696E745F6163639F
:100AF000656C3E20523C726574726163745F616321
:100B000063656C3E20543C74726176656C5F616312
:100B100063656C3E0020204D3230312058004D611D
:100B200078696D756D20416363656C657261746988
:100B30006F6E2028756E6974732F7332293A002006
:100B4000204D3230332058004D6178696D756D202D
:100B50006665656472617465732028756E69747367
:100B60002F73293A00537465707320706572207575
:100B70006E69743A0020204D3230302044300A0033
:100B800020204D3230302044002044697361626C73
:100B900065640A0046696C616D656E7420736574E6
:100BA00074696E67733A0020204D31343920432038
:100BB0003B20556E69747320696E2043656C7369C0
:100BC00075730A0020286D6D2900202047323120DE
:100BD0002020203B20556E69747320696E206D6D56
:100BE000006F70656E0054524947474552454400B6
:100BF0003A20007A5F6D696E00795F6D696E0078EA
:100C00005F6D696E005265706F7274696E67206502
:100C10006E6473746F70207374617475730A004826
:100C20006F6D696E67204661696C6564005761721B
:100C30006E696E673A20486F6D696E672042756D08
:100C4000702044697669736F72203C20310A00027B
:100C500002040000A0400000A0400000004000008E
:100C60001643000016430000484324F4D43050C318
:100C70008E20C2A24017828B7011127A910D816C66
:100C8000D90AA861E108C7586607615143061E4B9F
:100C90005D05C145A7041A411104093D9803713946
:100CA00031034036DB0265339102D4305402802E8A
:100CB0001D02632CEE01752AC501B028A001102782
:100CC00081018F2564012B244B01E0223401AC21EA
:100CD0001F018D200D01801FFC00841EED00971D5B
:100CE000DF00B81CD200E61BC600201BBC00641A43
:100CF000B200B219A8000A19A0006A189900D11709
:100D0000910040178B00B516840031167E00B31594
:100D100079003A157300C7146F0058146A00EE1377
:100D200066008813630025135E00C7125B006C1217
:100D3000570015125400C111510070114F002111BC
:100D40004B00D61049008D10470046104400021099
:100D50004200C00F4000800F3E00420F3C00060FD3
:100D60003B00CB0E3800930E37005C0E3500270E8B
:100D70003400F30D3200C10D3100900D3000600DD4
:100D80002E00320D2D00050D2C00D90C2B00AE0CC1
:100D90002900850C29005C0C2700350C27000E0C5F
:100DA0002600E80B2400C40B2400A00B23007D0BBD
:100DB00023005A0B2100390B2100180B2000F80AE0
:100DC0001F00D90A1E00BB0A1E009D0A1D00800AD2
:100DD0001D00630A1C00470A1B002C0A1B00110A95
:100DE0001A00F7091A00DD091900C4091900AB0936
:100DF0001900920917007B091800630917004C09B4
:100E0000160036091600200916000A091500F50813
:100E10001500E0081400CC081400B8081400A40859
:100E20001400900813007D0812006B081300580886
:100E3000120046081200340811002308110012089D
:100E4000110001081100F0071000E0071000D007A2
:100E50001000C0071000B0070F00A1071000910795
:100E60000E0083070F0074070F0065070E00570779
:100E70000E0049070E003B070D002E070E0020074D
:100E80000D0013070D0006070D00F9060C00ED0616
:100E90000D00E0060C00D4060C00C8060C00BC06D1
:100EA0000C00B0060C00A4060B0099060C008D0681
:100EB0000B0082060B0077060B006C060B00610628
:100EC0000A0057060B004C060A0042060A003806C4
:100ED0000A002E060A0024060A001A060A00100656
:100EE000090007060A00FD050900F4050900EB05E5
:100EF0000900E2050900D9050900D0050900C70568
:100F00000900BE050900B5050800AD050800A505E6
:100F100009009C050800940508008C05080084055C
:100F200008007C050800740508006C0507006505CD
:100F300008005D050700560508004E050700470537
:100F400007004005080038050700310507002A059D
:100F50000700230507001C050600160507000F05FE
:100F600007000805060002050700FB040600F5045B
:100F70000700EE040600E8040600E2040700DB04B4
:100F80000600D5040600CF040600C9040600C30409
:100F90000600BD040600B7040600B1040500AC0459
:100FA0000600A6040600A00405009B0406009504A4
:100FB0000500900406008A040500850405008004ED
:100FC00006007A04050075040500700405006B0432
:100FD000050066040500610405005C040500570473
:100FE0000500520405004D040500480405004304B3
:100FF00005003E0404003A040500350405003004F1
:1010000004002C04050027040400230405001E042A
:1010100004001A04040016040500110404000D0461
:101020000400090405000404040000040400FC0397
:101030000400F8030400F4030400F0030400EC03CC
:101040000400E8030400E4030400E0030400DC03FC
:101050000400D8030400D4030400D0030400CC032C
:101060000400C8030300C503030024F404D9201BB3
:10107000C40C5C0E9804C4095F0265077101F40595
:10108000F900FB04B30048048700C103690058035A
:10109000550003034500BE023A00840231005302AA
:1010A0002A002902250004022000E4011C00C801D6
:1010B0001900AF0117009801140084011300710199
:1010C00010006101100051010E0043010D003601B6
:1010D0000B002B010B0020010B00150109000C0176
:1010E000090003010800FB000800F3000800EB0002
:1010F0000700E4000600DE000600D8000600D2006B
:101100000600CC000500C7000500C2000500BD00B8
:101110000400B9000400B5000400B1000400AD00F3
:101120000400A9000400A5000300A20003009F0022
:1011300004009B0003009800030095000200930048
:101140000300900003008D0002008B000300880064
:1011500002008600020084000300810002007F007C
:1011600002007D0002007B0002007900020077008F
:10117000010076000200740002007200010071009C
:1011800002006F0002006D0001006C0002006A00A6
:1011900001006900020067000100660001006500AF
:1011A00001006400020062000100610001006000B3
:1011B00001005F0002005D0001005C0001005B00B7
:1011C00001005A00010059000100580001005700B9
:1011D00001005600010055000100540001005300B9
:1011E00000005300010052000100510001005000B6
:1011F00001004F0001004E0000004E0001004D00B4
:1012000001004C0001004B0000004B0001004A00AF
:1012100001004900010048000000480001004700AB
:1012200001004600000046000100450000004500A6
:10123000010044000100430000004300010042009F
:101240000000420001004100000041000100400098
:1012500001003F0000003F0001003E0000003E0092
:1012600001003D0000003D0001003C0000003C008A
:1012700000003C0001003B0000003B0001003A0080
:1012800000003A0001003900000039000100380078
:10129000000038000000380001003700000037006F
:1012A0000100360000003600000036000100350065
:1012B000000035000000350001003400000034005B
:1012C0000000340001003300000033000000330050
:1012D0000100320000003200000032000100310045
:1012E000000031000000310001003000000030003B
:1012F0000000300001002F0000002F0000002F0030
:1013000000002F0001002E0000002E0000002E0023
:1013100001002D0000002D0000002D0000002D0018
:1013200001002C0000002C0000002C0000002C000C
:1013300001002B0000002B0000002B0000002B0000
:1013400001002A0000002A0000002A0000002A00F4
:1013500001002900000029000000290000002900E8
:1013600000002900010028000000280000002800DB
:1013700000002800000028000100270000002700CE
:1013800000002700000027000000270001002600C1
:1013900000002600000026000000260000002600B5
:1013A00001002500000025000000250000002500A8
:1013B000000025000000250001002400000024009A
:1013C000000024000000240000002400010023008D
:1013D0000000230000002300000023000000230081
:1013E0000000230000002300010022000000220072
:1013F0000000220000002200000022000000220065
:101400000100210000002100000021000000210057
:101410000000210000002100000021000100200048
:10142000000020000000200000002000000020003C
:1014300000002000000020000000200001001F002C
:1014400000001F0000001F0000001F0000001F0020
:1014500000001F0000001F0001001E0000001E0011
:1014600000001E0000001E000000043700001E29BE
:101470000000511B00005810000010090000CC04AF
:101480000000780200004101000020436F756E7477
:1014900020583A004572723A204D415854454D50FB
:1014A000004D415854454D5020747269676765720C
:1014B0006564004572723A204D494E54454D5000C6
:1014C0004D494E54454D5020747269676765726589
:1014D0006400202F0020403A00000C0D00FE07029F
:1014E0002603BC017FFE08FE08FE05080806000072
:1014F00040F0C88888987810050808060000C0F8F1
:101500008888888888F80505050600012030F830AD
:10151000200508080600002070F820202020E005A3
:1015200009090600FF2070A8A8B888887020050661
:1015300006060001E08CEA8C8A0A0509090600FF0C
:10154000F8A88888888888A8F8050A0A0600FE2076
:101550005050505088A8A888700303030600034029
:10156000A040FFFFFFFFFFFFFFFFFFFFFFFFFFFFA9
:10157000FFFFFFFFFFFFFFFF0000000605FF010761
:10158000070602008080808080008003030306013C
:1015900005A0A0A005060606000050F85050F8501F
:1015A0000509090600FF2070A8A07028A870200572
:1015B0000707060000C8C8102040989805070706CE
:1015C000000040A0A040A890680103030602058027
:1015D00080800309090601FF204040808080404050
:1015E000200309090601FF80404020202040408060
:1015F00005070706000020A8702070A82005050533
:101600000600012020F820200203030601FFC0404D
:1016100080050101060003F8020202060100C0C0B5
:101620000507070600000810102040408005070746
:10163000060000708898A8C8887003070706010094
:1016400040C040404040E0050707060000708808A1
:10165000102040F8050707060000F8081030088839
:101660007005070706000010305090F810100507AD
:1016700007060000F880F0080888700507070600D4
:1016800000304080F0888870050707060000F808E1
:101690001010202020050707060000708888708839
:1016A00088700507070600007088887808106002B7
:1016B0000505060100C0C000C0C00206060601FF05
:1016C000C0C000C0408003050506010120408040E5
:1016D00020050303060002F800F8030505060101D2
:1016E00080402040800507070600007088102020F9
:1016F00000200507070600007088B8A8B8807005AC
:101700000707060000708888F8888888050707069C
:101710000000F04848704848F005070706000070D0
:10172000888080808870050707060000F0484848D8
:101730004848F0050707060000F88080F08080F830
:10174000050707060000F88080F080808005070705
:1017500006000070888080988870050707060000E2
:10176000888888F8888888030707060100E04040D9
:10177000404040E0050707060000381010101090A8
:10178000600507070600008890A0C0A090880507A4
:1017900007060000808080808080F805070706002B
:1017A0000088D8A8888888880507070600008888E8
:1017B000C8A8988888050707060000708888888868
:1017C0008870050707060000F08888F08080800593
:1017D000070706000070888888A890680507070634
:1017E0000000F08888F0A0908805070706000070C8
:1017F000888070088870050707060000F820202000
:1018000020202005070706000088888888888870BF
:1018100005070706000088888888505020050707BC
:1018200006000088888888A8A850050707060000D9
:10183000888850205088880507070600008888504F
:1018400020202020050707060000F808102040800F
:10185000F80309090601FFE080808080808080E035
:101860000507070600008040402010100803090902
:101870000601FFE020202020202020E005030306B1
:1018800000052050880501010600FEF80303030649
:10189000010580402005050506000070087888785D
:1018A0000507070600008080F0888888F005050598
:1018B0000600007080808870050707060000080891
:1018C00078888888780505050600007088F08070A3
:1018D000050707060000304840E040404005070784
:1018E0000600FE70888888780870050707060000E3
:1018F0008080F0888888880307070601004000C0C0
:10190000404040E00409090601FE100030101010AC
:1019100010906005070706000080808890E090889E
:10192000030707060100C04040404040E0050505B0
:10193000060000D0A8A8A8A8050505060000B0C8A4
:101940008888880505050600007088888870050766
:10195000070600FEF0888888F080800507070600EB
:10196000FE78888888780808050505060000B0C854
:1019700080808005050506000078807008F0050766
:10198000070600002020F820202018050505060085
:1019900000888888986805050506000088888850B2
:1019A000200505050600008888A8A850050505063D
:1019B000000088502050880507070600FE888888A8
:1019C00050204080050505060000F8102040F8036F
:1019D00009090601FF2040404080404040200109A5
:1019E000090602FF80808080808080808003090952
:1019F0000601FF8040404020404040800503030630
:101A0000000248A890FF434F4D4D554E4943415465
:101A1000494F4E0044525952554E004552524F5272
:101A20005300494E464F004543484F005072696E7F
:101A300074205061757365640070012C019001275A
:101A400001B0012201C0011D01F0011801100213B3
:101A50000130020E016002090190020401C002FF80
:101A6000000003FA004003F5008003F000D003EB10
:101A7000002004E6007004E100E004DC004005D72B
:101A800000C005D2004006CD00D006C8008007C3C4
:101A9000003008BE00F008B900C009B400B00AAFB9
:101AA00000B00BAA00D00CA500000EA000500F9BA8
:101AB00000C01096005012910000148C00C01587D1
:101AC00000B0178200B0197D00D01B7800001E7393
:101AD0000040206E0090226900F024640040275FDF
:101AE0000090295A00E02B5500102E500020304B5A
:101AF0000010324600E033410090353C001037378B
:101B00000070383200A0392D00B03A2800A03B23E5
:101B100000603C1E00103D1900903D1400103E0F67
:101B200000703E0A00C03E0500003F0000403FFB41
:101B3000FF803FF6FFC03FF1FF0000210024002797
:101B4000002A002D003000330001010000040107CD
:101B5000010A0100002200250028002B002E003180
:101B600000340002010000050108010B0100002003
:101B7000002300260029002C002F00320000010065
:101B80000003010601090105050505070508080808
:101B900008020202020A0A080804040404010101FE
:101BA0000101010101030303030303030304070706
:101BB000070C0C0C0C0C0C0C0C02020202060606A4
:101BC00006060606060B0B0B0B0B0B0B0B0102108C
:101BD0002020080810204010204080020102010847
:101BE00004020101020408102040808040201008F7
:101BF0000402018004020180402010080402010850
:101C000004020101020408102040800102040810AF
:101C100020408000000A0B02090C0D0E0807030487
:101C200001000000000000000000000000000000B3
:101C30000000000000000000000000000000001292
:101C40001110000000000000000000000000000073
:101C5000000000000000000000687474703A2F2F2C
:101C60006D61726C696E66772E6F726700322E300E
:101C70002E352E330001FFFFFFFFFFFFFFFFFFFFA9
:101C8000FFFFFF0FFFFFFFFFFFFFFFFFFFFFFFFF54
:101C9000FF1E0000000000000000000007FFFF38EA
:101CA0000000000000000000000003FFFF700000C3
:101CB000000000000000000001FFFF6000000000C5
:101CC00000000000000000FFFF60000000000000B6
:101CD00000000000007FFFC00000000000000000C6
:101CE0007800003FFFC00FC0FC0000000000781823
:101CF000001FFFC03FE1FF0000000000783C000F24
:101D0000FFC07FF3FF8000000000783C0007FFC0A9
:101D1000FFFFFFC000000000783C0003FFC1F87F18
:101D200087E00000000078000001FFC1F03F03E001
:101D30000000000078000000FFC1E01E01E01F006D
:101D400003E0783C03F07FC1E01E01E07FC00FF8A4
:101D5000783C07FC3FC1E01E01E1FFE01FFC783C3E
:101D60000FFE1FC1E01E01E3FFF03FFE783C1FFEA7
:101D70000FC1E01E01E3F3F83F3E783C3F3F07C14F
:101D8000E01E01E7E0FC7C1F783C3E1F07C1E01E1F
:101D900001E7C07C7C0F783C3C0F03C1E01E01E7EB
:101DA000807C780F783C3C0F03C1E01E01E7803C4B
:101DB0007800783C3C0F03C1E01E01E7803C7800CE
:101DC000783C3C0F03C1E01E01E7803C7800783C82
:101DD0003C0F03C1E01E01E7C03C7800783C3C0F9B
:101DE00003C1E01E01E3E03C78007C3C3C0F03C1F2
:101DF000E01E01E3FF3FF8007FBC3C0F03C1E01E83
:101E000001E1FF3FF8003FBFFC0F03C1E01E01E00E
:101E1000FF3FF8001FBFFC0F03C1E01E01E07F3F42
:101E2000F8000FBFFC0F036000000000000000007E
:101E3000000000000760000000000000000000003B
:101E4000000006700000000000000000000000001C
:101E50000E380000000000000000000000001C1E02
:101E6000000000000000000000000000780FFFFFED
:101E7000FFFFFFFFFFFFFFFFFFFFF001FFFFFFFF7F
:101E8000FFFFFFFFFFFFFFFF802020506C616E6EA1
:101E9000657242756666657242797465733A2000B0
:101EA0002046726565204D656D6F72793A2000435A
:101EB0006F6D70696C65643A204D61792031342012
:101EC000323032300A00204C6173742055706461E6
:101ED0007465643A20323032302D30332D33312066
:101EE0007C20417574686F723A20286E6F6E652C85
:101EF0002064656661756C7420636F6E666967291E
:101F00000A00322E302E352E330A004D61726C6974
:101F10006E0020536F667477617265205265736539
:101F2000740A00205761746368646F672052657398
:101F300065740A002042726F776E206F75742052AC
:101F4000657365740A002045787465726E616C2053
:101F500052657365740A00506F77657255700A0098
:101F600073746172740A00456E6473746F707300E9
:101F70002553202563202563202563202563002029
:101F80005A3A0020593A0020583A00656E6473743A
:101F90006F7073206869743A20004D6F7665202554
:101FA000736D6D00004D6F766520302E316D6D00C4
:101FB0004D6F766520316D6D004D6F766520313047
:101FC0006D6D004D6F7665204178697300486F74C0
:101FD000656E6420746F6F20636F6C640045787465
:101FE0007275646572004D6F7665205A004D6F768C
:101FF000652059004D6F76652058006F6B00496E63
:1020000076616C69642065787472756465720A0023
:10201000454550524F4D204F4B0A00486F6D65208B
:10202000257325732573204669727374004F6666A5
:1020300073657473204170706C69656400457272D9
:102040003A20546F6F206661722100546F6F2066D2
:1020500061722066726F6D207265666572656E636F
:102060006520706F696E740A00FFFFFF00000000BA
:10207000000000000000000023646566696E6520B2
:1020800044454641554C545F004B6420004B692049
:10209000004B702000504944204175746F74756E78
:1020A000652066696E6973686564212050757420C7
:1020B000746865206C617374204B702C204B692010
:1020C000616E64204B6420636F6E7374616E747311
:1020D0002066726F6D2062656C6F7720696E746F19
:1020E00020436F6E66696775726174696F6E2E68E2
:1020F0000A00504944204175746F74756E652066FE
:1021000061696C6564212074696D656F75740A007E
:10211000544845524D414C2052554E41574159006B
:10212000546865726D616C2052756E6177617900DB
:1021300048656174696E67204661696C6564004832
:10214000656174696E67206661696C6564005049F9
:1021500044204175746F74756E65206661696C65A5
:1021600064212054656D70657261747572652074A8
:102170006F6F20686967680A00204B643A2000206E
:102180004B693A2000204B703A20000A20436C61D2
:102190007373696320504944200A002054753A2023
:1021A00000204B753A2000206D61783A2000206DA8
:1021B000696E3A200020643A200020626961733A17
:1021C0002000504944204175746F74756E6520730A
:1021D000746172740A00504944204175746F7475BB
:1021E0006E65206661696C6564212054656D70655B
:1021F00072617475726520746F6F20686967680A10
:1022000000504944204175746F74756E6520666195
:10221000696C65642120426164206578747275641C
:102220006572206E756D6265720A0064697300657F
:102230006E0043290A0061626C656420286D696E36
:102240002074656D702000436F6C64206578747233
:102250007564657320617265200020643A0020690E
:102260003A0020703A00496E76616C6964206578A6
:102270007472756465720A0020466C6F773A2000AC
:1022800046523A004F4646004F4E0020580020204C
:102290004D61783A2000200020204D696E3A2000E0
:1022A000536F667420656E6473746F70733A2000A8
:1022B0003F4A206F7574206F662072616E676520DB
:1022C00028302E303120746F20302E33290A002020
:1022D0005400205200416363656C65726174696FDC
:1022E0006E3A2050004D31343520533C696E6465A0
:1022F000783E206F7574206F662072616E6765206E
:1023000028302D31290A002F2F20004348414D420B
:1023100045525F54454D5045524154555245004D2C
:102320004F54494F4E5F4D4F44455300544845521A
:102330004D414C5F50524F54454354494F4E00411C
:1023400055544F5245504F52545F53445F5354417C
:102350005455530050524F4D50545F535550504FA9
:10236000525400454D455247454E43595F504152E6
:1023700053455200434153455F4C494748545F42DF
:1023800052494748544E45535300544F47474C45D4
:102390005F4C494748545300534F465457415245A8
:1023A0005F504F574552004255494C445F5045528B
:1023B00043454E54004C4556454C494E475F4441B9
:1023C0005441005A5F50524F4245004155544F4CC2
:1023D0004556454C005052494E545F4A4F420050BA
:1023E000524F4752455353004155544F5245504F59
:1023F00052545F54454D5000564F4C554D45545224
:10240000494300454550524F4D0042494E415259B3
:102410005F46494C455F5452414E53464552005326
:10242000455249414C5F584F4E5F584F4646004613
:1024300049524D574152455F4E414D453A4D6172AB
:102440006C696E20322E302E352E33202847697469
:102450004875622920534F555243455F434F4445C9
:102460005F55524C3A68747470733A2F2F676974D1
:102470006875622E636F6D2F4D61726C696E46696F
:10248000726D776172652F4D61726C696E2050526A
:102490004F544F434F4C5F56455253494F4E3A317C
:1024A0002E30204D414348494E455F545950453ADE
:1024B0003344205072696E746572204558545255E9
:1024C0004445525F434F554E543A31205555494487
:1024D0003A63656465326132662D343161322D3480
:1024E0003734382D396231322D63353563363266F3
:1024F00033363766660A003344205072696E74655D
:1025000072204F46462E004D3131332053004D315D
:1025100031322053687574646F776E006F666600A1
:10252000271A221A1B1A141A061A44454255473A0A
:10253000006F6B0020573A00436F6F6C696E672E17
:102540002E2E0048656174696E672E2E2E00452080
:1025500025530050726F7465637465642050696E12
:102560000A00496E76616C69642050696E204D6F77
:1025700064650A002569730025696D20256973006B
:102580002569682025696D20256973002569642007
:102590002569682025696D202569730025697920E2
:1025A000256964202569682025696D2025697300E7
:1025B0005072696E742074696D653A20004E6F2008
:1025C0004D6F76652E00436C69636B20746F2052EB
:1025D0006573756D652E2E2E000000484200004880
:1025E0004200008040536C6565702E2E2E004732ED
:1025F0002F47332062616420706172616D6574657C
:1026000072730A0020746F6F206C6F6E672065789C
:1026100074727573696F6E2070726576656E74651D
:10262000640A0020636F6C64206578747275736946
:102630006F6E2070726576656E7465640A00220A9A
:1026400000556E6B6E6F776E20636F6D6D616E649B
:102650003A2022003344205072696E746572205211
:10266000656164792E005072696E74696E672E2EF2
:102670002E00204500205A00205900204D393220DC
:10268000580020746F6F206C6F6E672065787472CD
:102690007573696F6E2070726576656E7465640A15
:1026A0000020636F6C6420657874727573696F6E57
:1026B0002070726576656E7465640A004531002C81
:1026C0002073797374656D2073746F707065642105
:1026D000204865617465725F49443A200020453A9C
:1026E00000205A3A0020593A00583A0054A81124C0
:1026F0001FBECFEFD1E2DEBFCDBF00E00CBF13E0C5
:10270000A0E0B2E0ECE4F5E701E00BBF02C0079007
:102710000D92A831B107D9F72EE0A8E1B3E001C0CE
:102720001D92AD39B207E1F713E1C7E7D3E100E04D
:1027300006C021970109802FFE010E944CBAC637BE
:10274000D10780E00807A9F70E940BA90C94A4BA4E
:102750000C94000080E008950B96FC01849108958C
:102760000A96FC0184910895FC0184910895FCDF90
:10277000882321F0823011F083E0089586E00895E7
:10278000FC01E60FF11D849190E0982F8827319687
:10279000E4918E0F911D089568E0F2CF66E0F0CFCE
:1027A000BF92CF92DF92EF92FF920F931F93CF933E
:1027B000DF938C01E62EDC011496CD91DC91CE01E5
:1027C000D3DFF82EF80184819581D1DFB82EF1E0B6
:1027D000CC24CA94FF1202C02FE0C22ED801149656
:1027E0008D919C91BDDFF82EF80184819581B4DF35
:1027F000D82ED80114968D919C91CEDFB0E6BE15EF
:1028000020F5009711F1C80FD91F91E6F92EDE14BB
:1028100060F5D80150961C92509753961C9253978E
:1028200054961C92549751961C92519752961C9212
:10283000D0E0C0E0CE01DF91CF911F910F91FF90CA
:10284000EF90DF90CF90BF900895F801848195813B
:10285000A5DFF0E4FE1538F4009729F0C80FD91F62
:1028600081E4F82ED4CF6196D2CFDF1490F28B2D75
:1028700090E0FE0124912F3F29F42196FD1449F2A6
:10288000F394F7CFFE104AC0D80114968D919C9115
:102890006BDF9E012F5F3F4FFE01882311F08230D6
:1028A000E1F48491D80153968C935397F9012491C4
:1028B00054962C935497FE013396E4915096EC93E2
:1028C0005097FE013496E4915196EC935197FE0196
:1028D0003596E4915296EC93ADCF8491982F9F70EA
:1028E0009250D80152969C93529782958F70519630
:1028F0008C935197F9012491822F8F7054968C9369
:10290000549722952F7053962C935397FE0132962D
:10291000E491E295EF705096EC938CCF3296E4916F
:10292000EC21E80FF92FF11DCE0FDF1FA7CF81E0BB
:102930000895CF92DF92EF92FF9280911B07882338
:1029400009F457C0C0901707D0901807E0901907F6
:10295000F0901A0720E030E0A901C701B6010E94FB
:10296000CAB0882309F445C020E030E040E05FE3CE
:10297000C701B6010E942FB19B01AC010E942FB18B
:102980002BED3FE049E450E40E942FB19B01AC01E4
:1029900060E070E080E89FE30E940CB86B017C016E
:1029A000C0920707D0920807E0920907F0920A0741
:1029B0006091250270912602072E000C880B990B5E
:1029C0000E94D0B02AE037ED43E25CE30E942FB1D1
:1029D000A70196010E942FB160934D0270934E02A1
:1029E00080934F0290935002FF90EF90DF90CF9032
:1029F0000895C12CD12C80E8E82E8FE3F82ED0CF9B
:102A0000CF92DF92EF92FF92FC01C080D180E280F2
:102A1000F38020E030E0A901C701B6010E94CAB0EE
:102A200087FF69C0C701B601905820E030E040E25E
:102A300051E40E942FB120E030E040EA50E40E94CF
:102A400030B720E030E040E251E40E940CB80E9430
:102A500074B8FB01E03187E2F80708F453C0CF01F6
:102A600060E177E20E9409BA80E3860F8093FC065A
:102A7000E83E83E0F80708F447C0CF0168EE73E052
:102A80000E9409BACB016AE070E00E9409BA805D39
:102A90008093FD0680E2E436F10558F0CF0164E64C
:102AA00070E00E9409BACB016AE070E00E9409BAA6
:102AB000805D8093FE0680E2EA30F10558F02AE05E
:102AC00030E0CF01B9010E9409BACB01B9010E94DF
:102AD00009BA805D8093FF06CF016AE070E00E9432
:102AE00009BA805D809300078CEF96E0FF90EF902D
:102AF000DF90CF90089520E030E040E251E4C7013C
:102B0000B60197CF80E2B2CF80E2C2CF8F929F9280
:102B1000AF92BF92CF92DF92EF92FF92FC01C08002
:102B2000D180E280F38020E030E048EC52E4C7013D
:102B3000B6010E942FB14B015C0120E030E0A901F9
:102B4000C701B6010E94CAB020E030E040EA50E47C
:102B500087FF04C020E030E040EA50ECC501B4013A
:102B60000E9430B720E030E040E251E40E940CB80F
:102B70000E9474B89B018BE237FF05C022273327E0
:102B8000261B370B8DE28093FB06C90168EE73E0CC
:102B90000E941DBACB01EAE0F0E0BF010E941DBA1D
:102BA000805D8093FC06C90164E670E00E941DBA56
:102BB000CB01BF010E941DBA805D8093FD06C90153
:102BC000BF010E941DBA282FCB01BF010E941DBA70
:102BD000805D8093FE068EE28093FF06205D209349
:102BE00000078BEF96E0FF90EF90DF90CF90BF90C3
:102BF000AF909F908F9008958F929F92AF92BF92C7
:102C0000CF92DF92EF92FF92CF93FC01C080D180F0
:102C1000E280F38020E030E04AE754E4C701B601E7
:102C20000E942FB14B015C0120E030E040E251EC0A
:102C3000C701B6010E94CAB0181654F420E030E073
:102C400048EC52E4C701B6010E9456B987FD86C020
:102C500020E030E0A901C701B6010E94CAB087FF99
:102C60006EC060E070E080EA90ECA50194010E94E3
:102C700030B720E030E040E251E40E940CB80E94FE
:102C800074B86B017C01F7FC5FC020E137E240E0E3
:102C900050E00E9430BACA01B9012AE030E040E0B9
:102CA00050E00E9430BA605D6093FB06C701B60138
:102CB00028EE33E040E050E00E9430BA9AE0892EDE
:102CC000912CA12CB12CCA01B901A50194010E943B
:102CD00030BA605D6093FC06C701B60124E630E0BF
:102CE00040E050E00E9430BACA01B901A501940148
:102CF0000E9430BA605D6093FD068EE28093FE060E
:102D0000C701B601A50194010E9430BAC62FCA01BD
:102D1000B901A50194010E9430BA605D6093FF067D
:102D2000C05DC09300078BEF96E0CF91FF90EF90CE
:102D3000DF90CF90BF90AF909F908F90089560E00C
:102D400070E080EA90E491CFF094E094D094C09445
:102D5000C11CD11CE11CF11C6DE2A6CF20E030E0CB
:102D6000A901C701B6010E94CAB087FF6AC060E02E
:102D700070E080EA90ECA50194010E9430B720E059
:102D800030E040E251E40E940CB80E9474B84B015C
:102D90005C0120E030E0A901C701B6010E9456B9EC
:102DA00087FD0BC020E030E040E251E4C701B601EE
:102DB0000E94CAB060E287FD13C0B7FC47C0C501DE
:102DC000B40128EE33E040E050E00E9430BACA017E
:102DD000B9012AE030E040E050E00E9430BA605D86
:102DE0006093FC06C501B40124E630E040E050E009
:102DF0000E9430BA8AE0C82ED12CE12CF12CCA01F5
:102E0000B901A70196010E9430BA605D6093FD068A
:102E10008EE28093FE06C501B401A70196010E94CF
:102E200030BAC62FCA01B901A70196010E9430BA73
:102E3000605D6093FF06C05DC09300078CEF96E075
:102E400074CF60E070E080EA90E495CFB094A094F5
:102E500090948094811C911CA11CB11C6DE2C0CF88
:102E60009C0197FF26C0EE27FF27E81BF90B2D39A1
:102E70008FEF38070CF05DC08DE28093FD06CF0127
:102E800064E670E00E941DBACB012AE030E0B9018F
:102E90000E941DBA805D8093FE06CF01B9010E9499
:102EA0001DBACB01B9010E941DBA805D8093FF0657
:102EB0002AC0283E83E03807B4F1C90168EE73E008
:102EC0000E941DBACB01EAE0F0E0BF010E941DBAEA
:102ED000805D8093FD06C90164E670E00E941DBA22
:102EE000CB01BF010E941DBA805D8093FE06C9011F
:102EF000BF010E941DBACB01BF010E941DBA805DB7
:102F00008093FF06F901CF016AE070E00E941DBACC
:102F1000805D809300078DEF96E008958DE237FD88
:102F2000C5CF80E2C3CFF90180E2243631050CF031
:102F3000A4CF80E28093FD068093FE06EA30F1057F
:102F40006CF38DE237FF80E28093FE06CF016AE0EA
:102F500070E00E941DBA605D6093FF06D4CF9C01B3
:102F600097FD2DC080E2243631055CF0C90164E68E
:102F700070E00E941DBACB016AE070E00E941DBAA9
:102F8000805D8093FE0680E22A3031055CF0EAE045
:102F9000F0E0C901BF010E941DBACB01BF010E9430
:102FA0001DBA805D8093FF06C9016AE070E00E944F
:102FB0001DBA805D809300078EEF96E008953195ED
:102FC000219531098DE2DDCF24E6829FC0011124D5
:102FD00081589F4F6FEF70E00E941DBA262F81E34A
:102FE000643609F080E28093FD0690E22A3040F0DA
:102FF0003AE0822F632F0E94FDB90E94FDB9905DD7
:103000009093FE06822F6AE00E94FDB9905D909336
:10301000FF0685E2809300078DEF96E00895FC019E
:10302000A081B1811C92A281B3818C918F5F8C931E
:103030000280F381E02D90818CE0989F800D112417
:10304000ECE2FDE013AE84AF08956091250270912B
:103050002602072E000C880B990B0E94D0B02AE0A4
:1030600037ED43E25CE30E942FB1209107073091D6
:1030700008074091090750910A070E942FB16093F9
:103080004D0270934E0280934F0290935002089528
:1030900080910307811104C0809172048093AA0774
:1030A000089580910307811104C080917204809378
:1030B000AA070895FC01849108950F931F93522F3E
:1030C00020912A0D30912B0D2817390721F190936B
:1030D0002B0D80932A0D8B0130E020E00093E90650
:1030E0001093EA062093EB063093EC064093E1063A
:1030F0005093E2068158904421F410929304109268
:103100006C0482E08093460281E08093F90610927D
:103110009A0410926D041F910F91089521E020935D
:10312000930460936E0470936F0480937004909383
:10313000710420E040E070E060E08091DB06909157
:10314000DC06BBCF6DEC7CEC8CEC9CE3E7CF6DEC4C
:103150007CEC8CEC9DE3E2CF60E070E080E89FE3E4
:10316000DDCF60E070E080E291E4D8CF8091FC0C8C
:103170009091FD0C891B8F7039F481E090918D073F
:10318000913019F080E0089581E00895CF93DF93A6
:10319000EC01CB01BA010E94D0B02AE037ED43E246
:1031A0005DE30E940CB820E030E0A9010E9430B736
:1031B0000E9479B8688379838A839B83DF91CF915A
:1031C0000895CF93DF93EC01CB01BA010E94D0B0F8
:1031D00020E030E040E251E40E940CB820E030E012
:1031E000A9010E9430B7688379838A839B83DF912A
:1031F000CF910895CF93DF93EC01CB01BA010E94E8
:10320000D0B02AE037ED43E25DE30E940CB820E045
:1032100030E0A9010E9430B7688379838A839B8359
:10322000DF91CF910895CF93DF93EC01CB01BA01E9
:103230000E94D0B020E030E0A9010E9430B768833E
:1032400079838A839B83DF91CF910895CF93DF9316
:10325000EC01CB01BA010E94D0B020E030E0A9011E
:103260000E9430B7688379838A839B83DF91CF91F3
:103270000895CF93DF93EC01CB01BA010E94D0B047
:1032800020E030E04AE754E40E940CB820E030E04F
:10329000A9010E9430B7688379838A839B83DF9179
:1032A000CF910895CF93DF93EC01CB01BA010E9437
:1032B000D0B020E030E048EC52E40E940CB820E0AE
:1032C00030E0A9010E9430B7688379838A839B83A9
:1032D000DF91CF910895CF92DF92EF92FF92CF933B
:1032E000DF9300D01F92CDB7DEB70E94D0B020E0B0
:1032F00030E048EC52E40E940CB820E030E0A90134
:103300000E9430B76B017C0120E030E0A9010E94EF
:10331000CAB027E137EB41E558E387FF04C027E156
:1033200037EB41E558EBC701B6010E9430B769831E
:103330007A838B839C83CE0101965EDC0F900F9085
:103340000F900F90DF91CF91FF90EF90DF90CF9093
:1033500008950E94D0B020E030E0A9010E9430B76B
:103360000E9474B8CB01FBCDCF93DF93EC01CB016E
:10337000BA010E94D0B020E030E0A9010E9430B72D
:103380000E9474B879836883DF91CF9108950E9479
:10339000D0B029EC38EC48EC5EE30E940CB820E099
:1033A00030E040E05FE30E9430B70E9479B8862F9A
:1033B0000BCECF93DF93EC01CB01BA010E94D0B0CA
:1033C00029EC38EC48EC5EE30E940CB820E030E0D9
:1033D00040E05FE30E9430B70E9479B86883DF91D4
:1033E000CF910895CF93DF9300D01F92CDB7DEB772
:1033F0000E9479B80E94CEB069837A838B839C83C4
:10340000CE010196FDDA0F900F900F900F90DF9193
:10341000CF9108950E94D0B02AE037ED43E25DE3FA
:103420000E940CB820E030E0A9010E9430B7DACF4A
:103430008F929F92AF92BF92CF92DF92EF92FF92C4
:10344000CF936B017C0120E030E0A9010E94CAB05B
:1034500087FDA4C067E177EB81E598E3A7019601BA
:103460000E9430B76B017C0120E030E0A9010E948E
:10347000CAB087FF98C0C701B601905820E030E07D
:1034800048EC52E40E942FB120E030E040EA50E4E2
:103490000E9430B720E030E040E251E40E940CB8D6
:1034A0000E9474B86B017C0180E28093FA0660E2AE
:1034B00080E1C81687E2D806E104F1048CF0C70168
:1034C000B60120E137E240E050E00E9430BACA0184
:1034D000B9012AE030E040E050E00E9430BA605D7F
:1034E0006093FB0660E288EEC81683E0D806E1042C
:1034F000F1048CF0C701B60128EE33E040E050E063
:103500000E9430BACA01B9012AE030E040E050E040
:103510000E9430BA605D6093FC0660E284E6C816E3
:10352000D104E104F1048CF0C701B60124E630E0D7
:1035300040E050E00E9430BACA01B9012AE030E010
:1035400040E050E00E9430BA605D6093FD068AE082
:10355000882E912CA12CB12CC701B601A501940194
:103560000E9430BAC62FCA01B901A50194010E9478
:1035700030BA605D6093FE068EE28093FF06C05D08
:10358000C09300078AEF96E0CF91FF90EF90DF9015
:10359000CF90BF90AF909F908F90089567E177EBA9
:1035A00081E598EB5BCF20E030E048EC52E4C701C6
:1035B000B60168CF0E94D0B020E030E040E251E494
:1035C0000E940CB820E030E0A9010E9430B730CF53
:1035D000CF92DF92EF92FF92CF93DF9300D01F92B2
:1035E000CDB7DEB76B017C0120E030E0A9010E947D
:1035F000CAB087FD1AC067E177EB81E598E3A701C0
:1036000096010E9430B769837A838B839C83CE01B5
:103610000196F6D90F900F900F900F90DF91CF91F8
:10362000FF90EF90DF90CF90089567E177EB81E511
:1036300098EBE5CF0E94D0B020E030E0A9010E94D5
:1036400030B7C6CF0E94D0B02AE037ED43E25DE349
:103650000E940CB820E030E0A9010E9430B7B8CF3A
:10366000CF92DF92EF92FF926B017C0120E030E07D
:10367000A9010E94CAB087FD25C067E177EB81E50B
:1036800098E3A70196010E9430B76B017C0120E00E
:1036900030E0A9010E94CAB020E030E040E05FE3E2
:1036A00087FF04C020E030E040E05FEBC701B601D7
:1036B0000E9430B70E9474B8CB01FF90EF90DF906A
:1036C000CF904DCC67E177EB81E598EBDACF0E94A4
:1036D000D0B020E030E0A9010E9430B7C1CFFC019A
:1036E0008081089511989091020187FD90959170C5
:1036F000909300010000000000000000119A0000FB
:1037000000000000000011989091020186FD909544
:103710009170909300010000000000000000119AD9
:10372000000000000000000011989091020185FD4A
:10373000909591709093000100000000000000003F
:10374000119A000000000000000011989091020101
:1037500084FD90959170909300010000000000009E
:103760000000119A000000000000000011989091E4
:10377000020183FD9095917090930001000000007C
:1037800000000000119A00000000000000001198E5
:103790009091020182FD909591709093000100003C
:1037A000000000000000119A00000000000000006E
:1037B00011989091020181FD909591709093000174
:1037C0000000000000000000119A0000000000004E
:1037D0000000119880910201817080930001000027
:1037E000000000000000119A00000000000000002E
:1037F0000895089590E080E00895282F909186071D
:10380000833021F495FD0FC094FD0FC0892F90E007
:10381000B0E0A0E004C0B695A795979587952A9546
:10382000D2F78170089581E0089580E008950C94A6
:10383000EB880C94EB880F931F930E94DF88009114
:10384000120D1091130D2091140D3091150D0115CD
:10385000110521053105D9F52091180D2223A1F17B
:10386000E091160D21502093180D21E02E0F20938A
:10387000160D3091190D231302C01092160D24E07D
:10388000E29FF0011124E65EF24F00811181228156
:10389000338100930E0D10930F0D2093100D309374
:1038A000110D600F711F811D911D6093120D70939A
:1038B000130D8093140D9093150D8091100D909120
:1038C000110D892B09F0409A1F910F910895601BEB
:1038D000710B820B930B97FDF7CF40981092120D4E
:1038E0001092130D1092140D1092150DEDCF0F9331
:1038F0001F930E94DF880091A3041091A4042091DB
:10390000A5043091A604601B710B820B930B97FDED
:103910000CC086B186FB882780F991E08927349B0B
:103920008260329B84608093A2048091A2048170A3
:103930009091A20491FD82609091A104981749F0A2
:10394000813009F148F0823079F0833091F0809332
:10395000A1041F910F910895913079F09230B9F739
:103960009091A0049F5F0CC0992339F09330C1F36C
:10397000EECF9130A9F3923051F79091A00491507D
:103980009093A004E4CF992359F3933001F7F5CF36
:10399000CF92DF92EF92FF92CF93C82F0E94DF88E1
:1039A0006B017C0124EA30E74DE75FE360916E0430
:1039B00070916F0480917004909171040E94CAB05C
:1039C00087FD18C08AEF90E0A0E0B0E08C0D9D1D4F
:1039D000AE1DBF1D80938F0490939004A09391041B
:1039E000B0939204C0930002CF91FF90EF90DF90CC
:1039F000CF90089580E090E0DC01E8CF6FEF7DE3A9
:103A000083E00C94CFA569EA7FE382E00C94CFA514
:103A10006DEA7FE381E00C94CFA561EB7FE380E06A
:103A20000C94CFA5CF92DF92EF92FF92CF93DF93CA
:103A300000D01F92CDB7DEB76B017C0120E030E0F3
:103A4000A9010E94CAB087FD1BC067E177EB81E541
:103A500098E3A70196010E9430B769837A838B832C
:103A60009C83CE0101960E94B8830F900F900F9017
:103A70000F90DF91CF91FF90EF90DF90CF9008955E
:103A800067E177EB81E598EBE4CF0E94D0B020E0CE
:103A900030E04AE754E40E940CB820E030E0A9018D
:103AA0000E9430B7BFCFAF92BF92CF92DF92EF921A
:103AB000FF920F931F93CF93DF936B01E9014A307D
:103AC00009F4B6C0453109F06BC0DB011296ED91E7
:103AD000FC91F280C681D78180910201809582702D
:103AE0008093000188E28A950000E9F7BF2CB29428
:103AF00020EFB22230E1A32EAF0C48E2E42E88EF93
:103B0000F1DD8E2D8A950000E9F7BFE1BF1508F4BD
:103B10007EC08F2D80778068E5DD8B2DE3DD8E2DD7
:103B20008A950000E9F780E8DDDD80E0DBDD8E2DA1
:103B30008A950000E9F78AEFD5DD8E2D8A95000081
:103B4000E9F78E01005F1F4F8881807FCBDD89916F
:103B50008295807FC7DDC017D107B1F78E2D8A957A
:103B60000000E9F7F394E0E1BE0EFA10C8CF8091AF
:103B70000201827080930001D6011296CD91DC91F2
:103B8000CE010E9485898111DBC1DF91CF911F9108
:103B90000F91FF90EF90DF90CF90BF90AF9008957E
:103BA000FB0102811381423309F485C108F489C104
:103BB000463409F476C1473409F479C14B3329F509
:103BC00089812B81D80112966C91129713964C9192
:103BD000213009F4CCC1233009F096C138EF380FF9
:103BE000582F91E0431708F490E041E0531708F094
:103BF00040E031E0561708F430E0592F542B3523BC
:103C000009F0AAC1942309F0A7C181E0BECF80EEDC
:103C10008F0D8068807F66DD8F2D8295807F62DDCD
:103C20008E2D8A950000E9F780E85CDD80E87ECF84
:103C30008091010182608093010180910201827074
:103C40008093000180910101816080930101809146
:103C50000201817080930001099A119A80910201FA
:103C6000809582708093000188E28A950000E9F7D0
:103C700088E790E0CEE9DFE0FE013197F1F70197A8
:103C8000D9F788EF2FDD18E2812F8A950000E9F738
:103C900080E228DD80E026DD812F8A950000E9F7AB
:103CA00080E020DD80E81EDD812F8A950000E9F7A5
:103CB00080E018DD80E116DD812F8A950000E9F7AC
:103CC000CE010197F1F7CE010197F1F7CE010197EF
:103CD000F1F7CE010197F1F7CE010197F1F7CE018F
:103CE0000197F1F7CE010197F1F7CE010197F1F7B6
:103CF000CE010197F1F7CE010197F1F7CE010197BF
:103D0000F1F7CE010197F1F7CE010197F1F7CE015E
:103D10000197F1F72197F1F780E2E4DC80E4E2DC3F
:103D2000812F8A950000E9F780E2DCDC80E6DADCAE
:103D30001A950000E9F700E010E0D8E2812F8077C3
:103D40008068D0DC802FCEDC8D2F8A950000E9F7CB
:103D500080E8C8DC80E0C6DC8D2F8A950000E9F79A
:103D60008AEFC0DC8D2F8A950000E9F7C0E2119838
:103D7000809102018170809300010000000000002A
:103D80000000119A000000000000000011988091CE
:103D9000020181708093000100000000000000001B
:103DA000119A0000000000000000119880910201AB
:103DB0008170809300010000000000000000119A53
:103DC0000000000000000000119880910201817045
:103DD000809300010000000000000000119A000024
:103DE0000000000000001198809102018170809312
:103DF00000010000000000000000119A0000000017
:103E000000000000119880910201817080930001F0
:103E10000000000000000000119A000000000000F7
:103E200000001198809102018170809300010000D0
:103E3000000000000000119A0000000000000000D7
:103E400011988091020181708093000100000000B0
:103E500000000000119A000000000000000080E057
:103E600041DC8D2F8A950000E9F7C15009F07FCF22
:103E700088EF38DC8D2F8A950000E9F71F5F005F1F
:103E8000103209F05BCF80E02DDC80EC2BDCDA9582
:103E90000000E9F78091020182708093000181E0C7
:103EA00074CED80115968C91888381E06ECEF8018E
:103EB00081818883FACFB901C8010E946F8981E0AE
:103EC00064CE443171F0473109F09FCE1882F80179
:103ED00082818983858181508A8383818B8381E07C
:103EE00054CED80115964C91159750E0440F551FAC
:103EF00070E060E016968D919C910E945ABAC801BC
:103F00000E949B8981E041CE481708F47ECE861737
:103F100008F47BCEFA80E12CD12C243070F41DC043
:103F2000BE01C8010E946F89898198819D0D988387
:103F30008E0D8983FF0C09F468CEF7FEF6CFF0CF23
:103F40004D8150E0440F551F70E060E08E819F81ED
:103F50000E945ABA81E019CEFA8030E0F901EA52A3
:103F6000FD4FD0802E523D4FF901E080E6CF58E062
:103F7000580F382F36CEEF92FF920F931F93CF93A7
:103F8000DF93CDB7DEB72C970FB6F894DEBF0FBE28
:103F9000CDBF1091670D0091680D2091760421111D
:103FA0001BC043ED54E0602F812F0E94167490E0F7
:103FB00080E0180F1093670D0093680D99272C96D9
:103FC0000FB6F894DEBF0FBECDBFDF91CF911F912A
:103FD0000F91FF90EF900895E090340DF090350D23
:103FE00020E33DE03A832983212F30E03C832B837B
:103FF000202F30E03E832D8318861F827A876987C1
:104000001C861B869E012F5F3F4F4AE558E1BC018D
:10401000C7010E94DC73B70180E39DE00E945B8BC7
:104020008F819885C6CFEF92FF920F931F93CF9306
:10403000DF93CDB7DEB72C970FB6F894DEBF0FBE77
:10404000CDBF1091670D0091680D2091760421116C
:104050001BC043EB54E0602F812F0E94167490E048
:1040600080E0180F1093670D0093680D99272C9628
:104070000FB6F894DEBF0FBECDBFDF91CF911F9179
:104080000F91FF90EF900895E090340DF090350D72
:1040900020E33DE03A832983212F30E03C832B83CA
:1040A000202F30E03E832D8318861F827A87698710
:1040B0001C861B869E012F5F3F4F4FE65BE1BC01D4
:1040C000C7010E94DC73B70180E39DE00E945B8B17
:1040D0008F819885C6CF8F929F92AF92BF92CF92D9
:1040E000DF92EF92FF920F93CF93DF931F92CDB7A2
:1040F000DEB75C017B0149016B01C40ED51EF501E1
:10410000808191810E94CFB68983002311F0F7014D
:104110008083BE016F5F7F4FC4010E940673F5016B
:1041200080819181019691838083FFEFEF1AFF0ACE
:10413000EC14FD0421F780E00F90DF91CF910F91F7
:10414000FF90EF90DF90CF90BF90AF909F908F90B7
:1041500008950F93FC010150040F84A996A99417A8
:1041600088F0081710F4041778F42150260F83A95B
:1041700095A9961758F0281760F481E0261720F4C7
:104180000F910895081778F780E0FACF2817A8F75D
:10419000FBCF81E0F5CF5F926F927F928F929F92DB
:1041A000AF92BF92CF92DF92EF92FF920F931F9345
:1041B000CF93DF93EC01562E142F622F0E94D01361
:1041C0006C0180E0C114D104A9F08C819D810E9412
:1041D000B713B82EFB88EC888989580E1E198A8976
:1041E000181B0E2D2F2D412F652DCE01B2DF811111
:1041F00011C08889DF91CF911F910F91FF90EF90AF
:10420000DF90CF90BF90AF909F908F907F906F90F6
:104210005F900895CB0CD11C87E0F80EF694F694CD
:10422000F694E10E4E01ECE18E0E911C6F2C712C78
:104230001E15F9F2052D560111C0F50184916A8110
:104240007B810C8F1D8F1F8E8E8F94014BE3CE01CF
:104250000E94A289FFEFAF1ABF0A085F8A2D8C194E
:104260008F1558F3C60CD71C1F5FE2CFDF92EF9279
:10427000FF920F931F93CF93DF93EC01D62E1CADCB
:104280000BAD7C0184E0E80EF11CE98DFA8DC701CD
:104290001995412F480F2D2D602FC7017CDF9BAD55
:1042A000890F8BAF81E090E0DF91CF911F910F914B
:1042B000FF90EF90DF9008958F929F92AF92BF9200
:1042C000CF92DF92EF92FF920F931F93CF93DF93E2
:1042D000EC018B017A018A859B858617970731F05F
:1042E000888199810E945B8B1B870A8788859985C5
:1042F000019641F50C81DA808E81D80EA880B980B4
:10430000D5015596ED91FC91C5011995080F10E066
:10431000F70121917F0121114FC08E819F81810F73
:10432000911D9F838E8390E080E0DF91CF911F915C
:104330000F91FF90EF90DF90CF90BF90AF909F9044
:104340008F900895CE80DF80F701008110E0002378
:1043500021F1A880B980602FC5010E94D013D5013A
:1043600051961C9111954701BFEF8B1A9B0AF401DE
:1043700081914F01882351F0D50150969C91190FDE
:10438000082F682FC5010E94D013F1CF003281F0B1
:10439000F50183899189890F180FC10ED11C2885D9
:1043A00039852C153D0508F0A5CF81E090E0BDCF03
:1043B000D50150968C91F0CF402F6D2DC501EBDECD
:1043C000D80E180FA5CF4F925F926F927F928F9267
:1043D0009F92AF92BF92CF92DF92EF92FF920F9394
:1043E0001F93CF93DF93EC01562E142F622E402E95
:1043F000220F220F220FADDE882319F1410E5E013C
:104400008CE1A80EB11C862C912C762C052D670111
:10441000F60184916A817B810C8F1D8F1F8E8E8F98
:1044200095014BE3CE010E94A289FFEFCF1ADF0A6C
:104430007A94085F7110ECCFE80CF91C1F5F4112F1
:10444000E4CFDF91CF911F910F91FF90EF90DF901C
:10445000CF90BF90AF909F908F907F906F905F9024
:104460004F9008950F930FB70F9300916E000B7F3D
:1044700000936E0078940F930BB70F930CB70F92C5
:104480001F922F933F934F935F936F937F938F93DD
:104490009F93AF93BF93EF93FF93112499D6FF910E
:1044A000EF91BF91AF919F918F917F916F915F91AC
:1044B0004F913F912F911F900F900CBF0F910BBF09
:1044C0000F910460F89400936E000F910FBF0F914D
:1044D000189510924C0580912302909124020F9719
:1044E0001816190614F490E080E09093CF0C809396
:1044F000CE0C0E94EB8880912302909124020F97AA
:104500001816190614F490E080E09093CF0C809375
:10451000CE0C0E94EB881092D00C2C980895CF936B
:10452000DF93C6ECDCE08A819B810E943D746C8342
:104530007D838E839F83A89510920607DF91CF918C
:1045400008952F923F924F925F926F927F928F9237
:104550009F92AF92BF92CF92DF92EF92FF920F9312
:104560001F93CF93DF93CDB7DEB72F970FB6F89495
:10457000DEBF0FBECDBF80910607811119C02F96F7
:104580000FB6F894DEBF0FBECDBFDF91CF911F9164
:104590000F91FF90EF90DF90CF90BF90AF909F90E2
:1045A0008F907F906F905F904F903F902F900895E5
:1045B000B6DF0E94DF882B013C0120E030E0A9013A
:1045C0006091CA0C7091CB0C8091CC0C9091CD0C69
:1045D0000E9430B76B017C0160912302709124022C
:1045E000072E000C880B990B0E94D0B09B01AC01E8
:1045F000C701B6010E9456B918160CF4F5C16091B6
:10460000CE0C7091CF0C072E000C880B990B0E94DA
:10461000D0B06B017C0120913F0530914005409165
:104620004105509142050E94CAB0811187C0209176
:104630004B0529835981523009F49EC1533009F446
:10464000CCC1513009F4D7C1C090CA0CD090CB0C6A
:10465000E090CC0CF090CD0C609121027091220280
:10466000072E000C880B990B0E94D0B0A701960171
:104670000E94CAB087FF11C060912302709124028A
:10468000072E000C880B990B0E94D0B0A701960151
:104690000E9456B918160CF469C060E06093D00C03
:1046A0008091C20C9091C30CA091C40CB091C50C28
:1046B0000097A105B10509F462CFA3019201281B5F
:1046C000390B4A0B5B0BDA01C901B7FD58CF20E06B
:1046D00030E0A901C701B6010E9430B76B017C012F
:1046E0006091C00C7091C10C90E080E00E94CEB04F
:1046F0009B01AC01C701B6010E94CAB087FFA6C1E9
:1047000060E371E28FE391E22F960FB6F894DEBF7B
:104710000FBECDBFDF91CF911F910F91FF90EF9012
:10472000DF90CF90BF90AF909F908F907F906F90D1
:104730005F904F903F902F900C949988C0923F05C6
:10474000D0924005E0924105F092420531E0398374
:1047500020E030E0A901C701B6010E9456B9181641
:104760000CF01982498140934B0564CF6091CE0CC7
:104770007091CF0C6115710509F497C1072E000CDB
:10478000880B990B0E94D0B0A70196010E942FB709
:104790004B015C0120E030E040E251EC0E94CAB0E5
:1047A00087FD83C120E030E040E251E4C501B4015F
:1047B0000E9456B918160CF48CC180913E058111E7
:1047C0008DC18091360590913705A0913805B09143
:1047D000390589839A83AB83BC8320913A05309154
:1047E0003B0540913C0550913D052D833E834F8311
:1047F0005887A701960160912A0570912B05809139
:104800002C0590912D050E942FB72091D90C309145
:10481000DA0C4091DB0C5091DC0C0E942FB1298105
:104820003A814B815C810E942FB720ED3CEC4CE437
:104830005DE30E942FB129813A814B815C810E9406
:1048400030B769837A838B839C836093360570933A
:10485000370580933805909339058091D50C909158
:10486000D60CA091D70CB091D80C89879A87AB87CA
:10487000BC872D813E814F815885C501B4010E94BE
:1048800030B78B018F879E8720E030E0A9010E941E
:10489000CAB087FD2EC129853A854B855C8560E0CD
:1048A00070E08FE793E40E940CB86D837D871C0154
:1048B00098014F855E850E94CAB087FF04C00D81B4
:1048C0001D852F863E86C801AF85BE8580933A053B
:1048D00090933B05A0933C05B0933D052091D10CEE
:1048E0003091D20C4091D30C5091D40CC501B4013D
:1048F0000E942FB14B015C0180922E0590922F05F2
:10490000A0923005B092310598014F855E8569858A
:104910007A858B859C850E942FB19B01AC012093E9
:104920003205309333054093340550933505C50166
:10493000B4010E9430B729813A814B815C810E9489
:1049400030B720E030E0A9010E9430B74B015C0194
:1049500020E030E0A9010E94CAB087FDA9C020E094
:1049600030E04FE753E4C501B4010E9456B9181670
:104970000CF0A8C06FE79DC0C090CA0CD090CB0CC3
:10498000E090CC0CF090CD0C80903F0590904005CD
:10499000A0904105B090420520E030E040E850E4AE
:1049A000C501B4010E942FB7A70196010E94CAB0A9
:1049B0001816ECF50E94DF88C0904705D090480596
:1049C000E0904905F0904A056C197D098E099F0910
:1049D00097FD3ACE83E080934B0560E171E280E27F
:1049E00091E20E94998830CE60E171E280E291E22A
:1049F0000E94998804CEC090CA0CD090CB0CE09055
:104A0000CC0CF090CD0C80903F0590904005A0908C
:104A10004105B0904205A5019401C701B6010E946D
:104A2000CAB087FD19CE82E080934B05B5CF0E94B6
:104A3000DF88605C73468F4F9F4F6093470570938C
:104A400048058093490590934A05FECDA090CE0C71
:104A5000B090CF0CA114B104F9F0C701B6010E94C7
:104A600074B86E5F7F4F34E0A31AB1086A157B05F6
:104A70009CF47093C10C6093C00C0E94DF88605E50
:104A8000714B8F4F9F4F6093C20C7093C30C8093F8
:104A9000C40C9093C50C73CD1092C20C1092C30C31
:104AA0001092C40C1092C50C6ACD81E080933E0533
:104AB00060E0C0922A05D0922B05E0922C05F0927E
:104AC0002D05ECCDC501B4010E9474B875956795AC
:104AD000F0CF81E080933E056FE7EBCF10923E056B
:104AE0001D821E821F82188619821A821B821C82D6
:104AF00080CE00E010E01F861E86E5CEBC0120912E
:104B00000B0530910C0540910B0550910C052417B5
:104B1000350731F481E02617370709F080E0089562
:104B20009A01F1CF0F930FB70F9300916E000F937F
:104B30000B7F00936E0000916F000D7F00936F005C
:104B40000F930BB70F930CB70F921F922F933F93B6
:104B50004F935F936F937F938F939F93AF93BF9385
:104B6000EF93FF9311245DD4FF91EF91BF91AF912B
:104B70009F918F917F916F915F914F913F912F9175
:104B80001F900F900CBF0F910BBF0F910260F89414
:104B900000936F000F9100936E000F910FBF0F9164
:104BA00018958091510580FF27C089988FEF8093D9
:104BB000C10480915105869580FF21C08F9A8FEFA7
:104BC0008093C204809151058695869580FF1AC016
:104BD00080910B018270809309018FEF8093C30451
:104BE0008091510586958695869580FF13C016980D
:104BF0008FEF8093C4040895899A81E0D8CF8F986D
:104C000081E0DECF80910B01809582708093090155
:104C100081E0E4CF169A81E0ECCF2091230230911D
:104C200024022F503109821793070CF49C01309312
:104C3000CF0C2093CE0C0C94EB88AF92BF92CF9206
:104C4000DF92EF92FF920F931F93CF93DF93CDE606
:104C5000DCE002E917E08DE7A82E8CE0B82EC12C2D
:104C6000D12C7601C39469917991899199910E948F
:104C7000CEB0288939894A895B890E942FB10E9468
:104C800079B8F80161937193819391938F01C6165E
:104C9000D706E806F90610F46B017C01AC16BD06D8
:104CA00011F76FEF7FEFCB01A70196010E94F4B6D9
:104CB0002093A2073093A3074093A4075093A5071E
:104CC000DF91CF911F910F91FF90EF90DF90CF90E8
:104CD000BF90AF900895B1CFB0CFAFCFAECF4F92CE
:104CE0005F926F927F928F929F92AF92BF92CF927C
:104CF000DF92EF92FF920F931F93CF93DF93CDB785
:104D0000DEB76A970FB6F894DEBF0FBECDBF9A8F9D
:104D1000898F5B018A01DC01D6966D917D918D9121
:104D20009C91D9970E94CEB06B017C01F501208146
:104D30003181428153810E942FB10E94F6B72B012D
:104D40003C01D8012D913D914D915C91C701B60177
:104D50000E942FB10E94F6B74B015C01C301B20162
:104D60000E9479B8698B7A8B8B8B9C8B6837710525
:104D70008105910540F428E730E040E050E0298BC0
:104D80003A8B4B8B5C8BC501B4010E9479B86D875F
:104D90007E878F87988B683771058105910540F470
:104DA00088E790E0A0E0B0E08D879E87AF87B88B62
:104DB000E98DFA8DEE5BFF4F208131814281538175
:104DC00029833A834B835C83CA01B9010E94D0B026
:104DD0002B013C0169897A898B899C890E94CEB01C
:104DE00069877A878B879C8720E030E0A901C3011F
:104DF000B2010E94CAB0882309F43BC1A701960101
:104E0000C701B6010E942FB14B015C0129853A858B
:104E10004B855C85CA01B9010E942FB19B01AC0191
:104E2000C501B4010E942FB74B015C01A30192019F
:104E3000C301B2010E9430B79B01AC01C501B401AE
:104E40000E940CB80E94F6B70E9479B86D837E83E9
:104E50008F83988769817A818B819C8190958095D9
:104E6000709561957F4F8F4F9F4F0E94D0B04B013F
:104E70005C016D857E858F8598890E94CEB069839F
:104E80007A838B839C8320E030E0A901C501B401C3
:104E90000E94CAB0882309F4F0C029813A814B816D
:104EA0005C81CA01B9010E942FB16D8B7E8B8F8B03
:104EB000988FA7019601C701B6010E942FB19B01EF
:104EC000AC016D897E898F89988D0E942FB76B0107
:104ED0007C01A5019401C501B4010E9430B79B017A
:104EE000AC01C701B6010E940CB80E94A5B8A98DFB
:104EF000BA8D95968D909D90AD90BC9098977501C8
:104F000064012D813E814F815885C21AD30AE40A7B
:104F1000F50A0E9479B8C61AD70AE80AF90AF7FE14
:104F20006EC020E030E0A901C301B2010E94CAB006
:104F3000882309F4A6C0C501B4010E94CEB06B015C
:104F40007C01A3019201C301B2010E9430B79B0111
:104F5000AC01C701B6010E942FB16B017C0129850C
:104F60003A854B855C85CA01B9010E942FB19B012E
:104F7000AC01C701B6010E942FB76B017C012981EA
:104F80003A814B815C81CA01B9010E942FB19B011A
:104F9000AC01C701B6010E9430B76B017C0120E073
:104FA00030E040E850E4C301B2010E942FB19B0100
:104FB000AC01C701B6010E940CB80E94F6B76B01A4
:104FC0007C0120E030E0A9010E9456B918161CF0BF
:104FD000C12CD12C7601C701B6010E9479B86D832E
:104FE0007E838F83988786169706A806B90620F4D5
:104FF0008D829E82AF82B886C12CD12C76018D81A4
:105000009E81AF81B885E98DFA8D81A792A7A3A76C
:10501000B4A7C80ED91EEA1EFB1EC5A6D6A6E7A6D3
:10502000F0AA29893A894B895C8922AF33AF44AF12
:1050300055AFFE962D853E854F8558892083318357
:10504000428353836A960FB6F894DEBF0FBECDBF7E
:10505000DF91CF911F910F91FF90EF90DF90CF9054
:10506000BF90AF909F908F907F906F905F904F9088
:10507000089560E070E0CB01E5CE60E070E0CB0128
:1050800034CF60E070E0CB0198CF90916F0081E069
:1050900091FD02C080E0089590916F009D7F9093F4
:1050A0006F000895EFE6F0E08081826080830895CC
:1050B000CF93C82FEADF94E0C99F90011124F90132
:1050C000E25FFA4F265E3A4FD9014D915D916D91A5
:1050D0007C91408351836283738391E090930D05AB
:1050E000882311F0CF91DECFCF910895CF92DF9238
:1050F000EF92FF928091C00465995FC081608093B8
:10510000C004909103018091C00491FD58C0826059
:105110008093C0048091C0044B9953C084608093F5
:10512000C004C090FE04C0FE0FC08091510580FFF6
:105130000BC08091C00480FF07C08091D5068160BC
:105140008093D50680E0B4DFD12CF12CE12CD7017F
:10515000C601B695A7959795879580FF10C0809159
:105160005105869580FF0BC08091C00481FF07C068
:105170008091D50682608093D50681E099DF82E038
:10518000F694E794D794C7948A95D1F7C0FE1BC0D4
:10519000809151058695869580FF15C08091C00449
:1051A00082FF11C08091D50684608093D50682E08D
:1051B000FF90EF90DF90CF907BCF8E7FA0CF8D7F41
:1051C000A7CF8B7FACCFFF90EF90DF90CF9008956B
:1051D0000F931F93CF93DF93809114028F37B8F111
:1051E0008F579091D00C90934F059923A1F12C9A51
:1051F0008F5F8093140280914E0591E08927809300
:105200004E0581110E94771C80911302C1E0C80FE6
:1052100083300CF0C0E0813009F481C0F4F48823BD
:1052200089F1C09313028091430781115FDF809160
:105230006B0C90916C0C009729F0019790936C0C7B
:1052400080936B0CDF91CF911F910F9108959091F6
:105250004F05891768F22C98CBCF823009F46BC0C8
:105260008330F9F680914D05811103C087E080936A
:105270004D0580914D05815080934D05882389F21D
:10528000C3E0CFCF809112028F5F80311CF48093F6
:105290001202C7CF109212028091060781110BC033
:1052A0008091C60C9091C70C9093C90C8093C80C48
:1052B00081E0809306071092C70C1092C60C0091F3
:1052C000C80C1091C90C8091CE0C9091CF0CD1E0FC
:1052D000181619062CF08091D00C811101C0D0E075
:1052E00080911F02909120020817190734F464E995
:1052F00074E181EA94E10E949988DD2309F491CF59
:1053000080911D0290911E02801791070CF089CFA9
:1053100063EB74E180EC94E10E94998882CF88E08D
:1053200080937B0085E480937C0080917A00806488
:1053300080937A0076CF80917A0086FD0FC020910D
:105340007800309179008091C60C9091C70C820F43
:10535000931F9093C70C8093C60C63CFC2E061CFBC
:1053600094DE1092A6071092A7071092A807109239
:10537000A907811197CE08950F931F938091FC0C7C
:105380009091FD0C891B8F7009F449C09091F90C24
:10539000992361F0833040F48FEF890F29F08093D7
:1053A000F90C90E080E038C01092F90C8091FD0C6F
:1053B0002BE4829FC00111248554984FFC01208169
:1053C00020FDEFCF4091A6075091A7076091A80755
:1053D0007091A907E95BFF4F008111812281338120
:1053E000401B510B620B730B4093A6075093A7070A
:1053F0006093A8077093A9072091FD0C2F5F2F7071
:105400002093FA0C3091FD0C2091FB0C321304C058
:105410002091FA0C2093FB0C1F910F910895A0DFAF
:10542000C0CF2F923F924F925F926F927F928F9256
:105430009F92AF92BF92CF92DF92EF92FF920F9323
:105440001F93CF93DF93CDB7DEB72C970FB6F894A9
:10545000DEBF0FBECDBF8FEF9FEF9093890080938B
:1054600088000AE00983712C612C789480910705EB
:1054700090910805A0910905B0910A05892B8A2B06
:105480008B2B09F0E2C180910D058823D1F080912A
:105490000B0590910C0510920D05892B91F010923F
:1054A000FE0410920C0510920B059091FC0C80915B
:1054B000FD0C981731F08091FD0C8F5F8F708093F9
:1054C000FD0C80910B0590910C05892B09F4BDC151
:1054D0004091030550910405609105057091060502
:1054E0008091FF0490910005A0910105B091020503
:1054F0000091F10410E030E020E0841B950BA60B36
:10550000B70B081719072A073B0710F4D901C80180
:105510008E83840F951FA61FB71F8093030590935A
:105520000405A0930505B09306051C861B86F1E0D3
:10553000C090C904D090CA04E090CB04F090CC0491
:105540008091D9049091DA04A091DB04B091DC043D
:10555000C80ED91EEA1EFB1EC092D904D092DA04EE
:10556000E092DB04F092DC04F7FC33C08091C104CC
:10557000082E000C990BAA0BBB0B40911A055091F9
:105580001B0560911C0570911D05840F951FA61FBA
:10559000B71F80931A0590931B05A0931C05B09329
:1055A0001D058091C5049091C604A091C704B091D7
:1055B000C804A7019601281B390B4A0B5B0BDA01C3
:1055C000C9018093D9049093DA04A093DB04B093CB
:1055D000DC040091CD041091CE042091CF043091D1
:1055E000D0048091DD049091DE04A091DF04B0919D
:1055F000E004080F191F2A1F3B1F0093DD041093BE
:10560000DE042093DF043093E00437FD33C0409183
:10561000C204042E000C550B660B770B80911E05FF
:1056200090911F05A0912005B0912105840F951F31
:10563000A61FB71F80931E0590931F05A0932005FA
:10564000B09321058091C5049091C604A091C70430
:10565000B091C804B901A801481B590B6A0B7B0B18
:10566000DB01CA018093DD049093DE04A093DF0484
:10567000B093E0044091D1045091D2046091D304DE
:105680007091D4048091E1049091E204A091E3042C
:10569000B091E404480F591F6A1F7B1F4093E10437
:1056A0005093E2046093E3047093E40477FD33C005
:1056B0008090C304082C000C9908AA08BB088091AC
:1056C000220590912305A0912405B0912505880D10
:1056D000991DAA1DBB1D8093220590932305A093BD
:1056E0002405B09325058091C5049091C604A0912E
:1056F000C704B091C8041A012B01281A390A4A0AB2
:105700005B0AD201C1018093E1049093E204A0936B
:10571000E304B093E4048090D5049090D604A09064
:10572000D704B090D8048091E5049091E604A0914C
:10573000E704B091E804880D991DAA1DBB1D809354
:10574000E5049093E604A093E704B093E804B7FD62
:1057500031C0E091C4048E2EEE0F9908AA08BB0850
:105760002090260530902705409028055090290567
:10577000280C391C4A1C5B1C2092260530922705F8
:1057800040922805509229058090C5049090C60447
:10579000A090C704B090C8041C012D012818390836
:1057A0004A085B082092E5043092E6044092E70440
:1057B0005092E804F1110DC0E0918400F091850051
:1057C0004F014B845C8484189508E2E08E169104A6
:1057D00098F3F7FE889A37FF8E9A77FD06C0F0910E
:1057E0000B01F095F870F0930901B7FF149A20901F
:1057F0008400309085003C862B86A0908400B09079
:1058000085004B845C84A418B508E2E0AE16B104B0
:10581000A0F3F7FE889837FF8E9877FD05C020919A
:105820000B01287020930901B7FF1498FE81FF2314
:1058300031F020908400309085003C862B860E81CC
:1058400001500E83F0E0011173CE80910705909115
:105850000805A0910905B0910A05892B8A2B8B2B8D
:1058600009F031C4E0910B05F0910C05309709F473
:105870009CC48091030590910405A0910505B09109
:1058800006054091FF04509100056091010570915B
:10589000020584179507A607B70708F471C0109290
:1058A000FE0410920C0510920B059091FC0C809157
:1058B000FD0C981709F479C48091FD0C8F5F8F70EF
:1058C0008093FD0C70EDC72E77E0D72EE12CF12CE4
:1058D00080910B0590910C05892B09F0ECC34CDDF0
:1058E00090930C0580930B05892B09F4E4C3409039
:1058F0000B0550900C05D2018C9183FF9BC25D96E5
:105900008D919D910D90BC91A02DF201418D528DF4
:10591000638D748D058916892789308D00931A054A
:1059200010931B0520931C0530931D0540931E0505
:1059300050931F05609320057093210580932205E5
:1059400090932305A0932405B093250581A192A1EE
:10595000A3A1B4A18093260590932705A0932805C1
:10596000B09329059091FC0C8091FD0C981709F4D7
:10597000B6CF8091FD0C8F5F8F708093FD0CAFCF01
:105980004091FA045091FB046091FC047091FD0475
:10599000481759076A077B0708F4DBC08091F604B3
:1059A0009091F704A091F804B091F90441A952A98B
:1059B00063A974A9FF24859FE12C969F9001A69F5F
:1059C000300DA59F200D311D869FE00C211D3F1D30
:1059D000959FE00C211D3F1DA49FE00C211D3F1D44
:1059E000949FE10C2F1D3F1DE6942F1D3F1D789FB6
:1059F000200D311D799F300D112442AD53AD64ADA2
:105A000075AD420F531F611D711D4093F2045093F9
:105A1000F3046093F4047093F50406A917A920AD6C
:105A200031AD041715072607370740F40093F20439
:105A30001093F3042093F4043093F5048090F2045F
:105A40009090F304A090F404B090F5042AE634E1B9
:105A500041E0F901C590D590E590F490C814D904BF
:105A6000EA04FB0460F4B694A79497948794440FD7
:105A70002C5F3F4F66E874E16217730751F740935C
:105A8000F10470E287169104A104B10428F450E2F5
:105A9000852E912CA12CB12CE0E28E1A9108A10840
:105AA000B1088114F8E09F06A104B10408F42EC0E7
:105AB00004E0909E9001112426593F4EF901329640
:105AC00045915491182DEE27159FB001149F610D3B
:105AD0007E1F06946E1F7E1F1124AB0170E060E0F4
